:020000040800F2
:10000000200D00204501000881170008790F000825
:100010007D170008B10A000807250008000000004D
:10002000000000000000000000000000611900084E
:10003000790C00080000000009180008751A000873
:100040005F0100085F0100085F0100085F01000810
:100050005F0100085F0100085F0100085F01000800
:100060005F0100085F0100085F0100085F010008F0
:100070005F0100085F0100085F0100085F010008E0
:100080005F0100085F0100085F0100085F010008D0
:100090005F0100085F0100085F0100085F010008C0
:1000A0005F0100085F0100085F0100085F010008B0
:1000B000E91E00085F0100085F0100085F010008F9
:1000C0005F0100085F0100085F0100085F01000890
:1000D0005F010008A9200008B12100085F010008A5
:1000E0005F0100085F0100085F0100085F01000870
:1000F0005F0100085F0100085F0100085F01000860
:100100005F0100085F0100085F0100085F0100084F
:100110005F0100085F0100085F0100085F0100083F
:100120005F0100085F0100085F0100085F0100082F
:10013000DFF80CD000F048FB00480047B13400085D
:10014000200D00200648804706480047FEE7FEE7EE
:10015000FEE7FEE7FEE7FEE7FEE7FEE7FEE7FEE777
:10016000B51A00083101000840EA01039B0703D0DB
:1001700009E008C9121F08C0042AFAD203E011F8E6
:10018000013B00F8013B521EF9D27047D2B201E0A8
:1001900000F8012B491EFBD270470022F6E710B58C
:1001A00013460A4604461946FFF7F0FF204610BDE5
:1001B00030B505462A460B4612F8010B13F8014BE1
:1001C00008B1A042F8D01CB1002802D06D1CF1E7A4
:1001D000284630BD421C10F8011B0029FBD1801AB3
:1001E000704710B5002200E0521C835C8C5CA34277
:1001F00001D1002BF8D1D8B2E1B2401A10BD0346AC
:1002000011F8012B00F8012B002AF9D1184670478C
:100210002DE9FE4F804681EA0300C00F0C46009096
:1002200021F0004123F00045B8EB0200A94105D2BE
:100230004046214690461C460B46024623F00040AD
:10024000104347D0270DC7F30A00C3F30A510290A9
:10025000401A019040286BDAC3F3130040F4801B6E
:100260000098924620B10023D2EB030A63EB0B0BFC
:1002700001985946C0F14002504600F078F9064610
:100280000D4650465946019A00F090F910EB0800CF
:100290006141002487EA115284EAE7731A4340D08F
:1002A000009A62B3019A012A4FEA075215DC001B3B
:1002B00061EB02014FF0004202EA0752CDE9004231
:1002C000001C41F5801132462B4600F090F903B036
:1002D000BDE8F08F40462146F9E7001B61EB0201C3
:1002E000001C41F5801300185B412018A2F500178F
:1002F00047EB030140EAD570B6196D4111E06D0876
:100300004FEA360645EAC0754FEA0752001B61EB1B
:100310000201001C41F5801149084FEA3000001924
:10032000514132462B4603B0BDE8F04F00F050B9C2
:100330000098012240000023D0EB020263EBE0733F
:10034000009821464FEAE074B8EB000061EB04012D
:10035000E9E783F000435BE781F0004158E72DE9CE
:10036000FE4F81EA030404F0004421F000410094B0
:100370004FF0000B23F0004350EA01045ED052EA34
:1003800003045BD0C3F30A54C1F30A552C44A4F20E
:10039000F3340194A0FB0254C1F3130141F4801122
:1003A000C3F3130343F4801301FB024400FB034E29
:1003B000840A970A44EA815447EA8357A4FB0768F2
:1003C00002958D0A05FB07854FEA932C04FB0C541C
:1003D0002705029D4FEA065847EA1637B5EB080590
:1003E0006EEB070C870E920E47EA811742EA8312E2
:1003F000A7FB0201B6EB0B0164EB00042B0D43EAF3
:100400000C335E1844EB1C50DA465146E7FB020100
:10041000C5F313044FEA0B3343EA14534FEA043293
:10042000019C43EA0603A4F10C040294009CCDE96C
:1004300000B400F0DCF803B0BDE8F08F0020014606
:10044000F9E70EB5C10F80EAE0700844CA07002141
:1004500040F233438DE80E000A460B4600F0C7F821
:1004600003B000BD0EB540F2334102910021CDE949
:1004700000110A460B4600F0BAF803B000BDC1F304
:100480000A5210B5C1F3130140F2FF3341F4801159
:100490009A4201DA002010BD40F233439A42A2F2A0
:1004A000334203DC524200F071F810BD904010BDA1
:1004B00030B5041E71F1000404DB4FF000444042EB
:1004C00064EB0101141E73F1000405DB1C464FF0C0
:1004D0000043524263EB0403994208BF904230BD8F
:1004E00030B50B46014600202022012409E021FA04
:1004F00002F59D4205D303FA02F5491B04FA02F501
:100500002844151EA2F10102F1DC30BD2DE9F05F97
:100510000546002092469B46884606468146402472
:100520001BE0284641464746224600F02FF8534636
:100530005A46C01A914110D311461846224600F07F
:1005400016F82D1A67EB01084F46224601200021BC
:1005500000F00DF817EB00094E41201EA4F1010434
:10056000DFDC484631462A464346BDE8F09F202A54
:1005700004DB203A00FA02F1002070479140C2F1FA
:10058000200320FA03F3194390407047202A04DB2C
:10059000203A21FA02F00021704721FA02F3D040FC
:1005A000C2F120029140084319467047202A06DB19
:1005B000CB17203A41FA02F043EAE07306E041FA31
:1005C00002F3D040C2F1200291400843194670471F
:1005D00010B5141E73F1000408DA401C41F100014B
:1005E00092185B411A4301D120F0010010BD2DE9A2
:1005F000F04D92469B4611B1B1FA81F202E0B0FA99
:1006000080F220329046FFF7B2FF04460F4640EAE0
:100610000A0041EA0B0153465A46084313D01146DB
:1006200053EA010019D0C8F140025046FFF7AEFF6F
:1006300005460E46504659464246FFF798FF084386
:1006400005D0012004E020463946BDE8F08D0020A9
:10065000054346EAE0762C4337430A986305E40AEB
:10066000A0EB08000022FD0A44EA47540A3002D5F4
:1006700000200146E9E7010510196941DDE9084557
:1006800000196941BDE8F04DA2E72DE9F04D81EA7E
:10069000030404F0004B21F0004514464FF0000A1B
:1006A00023F0004150EA050220D054EA01021DD097
:1006B000C5F30A570246C5F31303C1F31300C1F390
:1006C0000A5640F4801543F48013A7EB0608101B6C
:1006D000D64608F2FD3873EB050002D308F1010895
:1006E00001E092185B41B8F1000F03DA00200146E7
:1006F000BDE8F08D00204FF48011064684460EE0E0
:10070000171B73EB050705D3121B63EB05030643A9
:100710004CEA010C49084FEA300092185B4150EA5C
:100720000107EDD152EA030012D082EA040083EA05
:100730000501084305D0101BAB4106D2012200235E
:1007400006E000224FF0004302E06FF00102531078
:100750001AEB06004CEB085110EB0A0041EB0B01C1
:10076000BDE8F04DFFF734BF70B521F000430343FF
:100770000CD0C1F30A550024D5EB040564EB040347
:10078000D617AD1AB34102DB0020014670BD201818
:1007900041EB025170BDC1F30A52C1F3130140F2A3
:1007A000FF3341F480119A4202DA0020014670477B
:1007B00040F233439A42A2F2334202DC5242FFF744
:1007C000E5BEFFF7D4BE0000064C074D06E0E0682A
:1007D00040F0010394E8070098471034AC42F6D388
:1007E000FFF7AAFC24C2020844C202082DE9F04D1A
:1007F00000231A461B1A8A4103DB00200146BDE88C
:10080000F08DC1F30A52C1F3130141F480154FF08A
:10081000000BD10702D100186D41521E002704467B
:1008200040F2FF11384601EB620A3E46804602461E
:1008300000204FF48011FFF7A9FEC2197141BB18C7
:1008400046EB0100B4EB030C75EB000C04D3E41A87
:1008500065EB000517460E46241908F101006D41AD
:1008600080463428E3DDF91946EB0600091BA84150
:1008700003D24FF0FF32134601E0002213461BEB78
:10088000070046EB0A51BDE8F04DFFF7A1BE21B1CC
:10089000826842F00102826003E0826822F0010275
:1008A0008260704710B504461248844208D1012185
:1008B000401500F0DBFF0021601500F0D7FF17E0C6
:1008C0000D48844208D10121001500F0CFFF00211E
:1008D000201500F0CBFF0BE00848844208D101212D
:1008E000C80300F0C3FF00214FF4004000F0BEFF3A
:1008F00010BD00000024014000280140003C0140E0
:10090000014600208A6802F004020AB1012000E0DA
:10091000002070470146C86C80B270470246002034
:1009200013680B400BB1012000E000207047014626
:1009300000208A6802F008020AB1012000E00020CD
:100940007047000030B502460020002350680F4C6D
:1009500020400D790C6844EA0524204350609068DB
:100960000B4C2040D1E902542C434D7944EA450414
:1009700020439060D06A20F470000C7C641EE4B2C6
:10098000234340EA0350D06230BD0000FFFEF0FF79
:10099000FDF7F1FFF0B504460D4600200021092DBA
:1009A00011DDE068A5F10A0606EB4607072606FA00
:1009B00007F18843A5F10A0606EB460603FA06F19D
:1009C0000843E0600CE0206905EB4507072606FABE
:1009D00007F1884305EB450603FA06F10843206159
:1009E000072A0FDA606B561E06EB86071F2606FAEB
:1009F00007F18843561E06EB860605FA06F1084302
:100A0000606322E00D2A0FDA206BD61F06EB860703
:100A10001F2606FA07F18843D61F06EB860605FA5D
:100A200006F10843206310E0E06AA2F10D0606EB30
:100A300086071F2606FA07F18843A2F10D0606EB8A
:100A4000860605FA06F10843E062F0BD816841F0D0
:100A500008018160704721B1826842F4A00282607F
:100A600003E0826822F4A00282607047816841F04E
:100A7000040181607047000008B50121082000F0E2
:100A8000E5FE4FF48070ADF8000010208DF80300F3
:100A900003208DF802006946044800F07CF94FF409
:100AA0008071024800F04AFA08BD0000000C0140C5
:100AB00000BFFEE710B5002400F024F804E0601C3D
:100AC000C4B2012002F0C2FA0D48006808B1642CDB
:100AD000F5DB642C01DB012010BD002404E0601C68
:100AE000C4B2012002F0B2FA0548006808B9642CCB
:100AF000F5DB642C01DB0120EEE70020ECE70000D1
:100B00002C01244208B54FF40060ADF800004820E5
:100B10008DF803006946024800F03DF908BD000069
:100B20000020014008B54FF40060ADF8000010202F
:100B30008DF8030003208DF802006946014800F09B
:100B40002AF908BD0020014008B50121080200F083
:100B50007DFE4FF40060ADF8000010208DF803001A
:100B600003208DF802006946064800F014F94FF49E
:100B70000061044800F0E4F900F068F8FFF79AFF1C
:100B800008BD00000020014010B5002404E0601CF6
:100B9000C4B2012002F05AFA0D48006808B1642C72
:100BA000F5DB002404E0601CC4B2012002F04EFA20
:100BB0000748006808B9642CF5DB282002F046FAE3
:100BC0000348006808B1012010BD0020FCE70000C8
:100BD0002C01244270B50024002506E06006040EB6
:100BE000FFF7D2FF0443681CC5B2082DF6DB204690
:100BF00070BD7CB505460E4600F028F8FFF75AFF99
:100C0000F8B9002405E0FFF7E5FF0DF80400601CCB
:100C1000C4B2052CF7DB9DF800009DF801100844D4
:100C20009DF8021008449DF8031008449DF8041034
:100C3000884208D19DF8000030709DF802002870AD
:100C400001E001207CBD0020FCE7000010B5FFF7AB
:100C500069FF002006490860142002F0B4F9012061
:100C60000449C1F8AC011E2002F0F0F910BD0000EB
:100C7000AC012442000024427047000051B18200C0
:100C8000A2F1C042126842F001038200A2F1C04208
:100C9000136009E08200A2F1C0421268034B1A40BF
:100CA0008300A3F1C0431A6070470000FEFF0F00ED
:100CB000D0E901121143C26811430269114342692C
:100CC000114382691143C2691143026A1143426AA6
:100CD0001143826A1143C26A1143026B11430268D5
:100CE0009200A2F1C0421160816808290BD101680D
:100CF0008900A1F1C041096841F040020168890002
:100D0000A1F1C0410A60416B0968426B526841EA37
:100D10000211426B926841EA0221426B928941EAD8
:100D20000241426B128A41EA0251426B127D41EA52
:100D30000261426B926911430268521C9200A2F157
:100D4000C0421160C16AB1F5804F1BD1816B096847
:100D5000826B526841EA0211826B926841EA022179
:100D6000826B128A41EA0251826B127D41EA026172
:100D7000826B9269114302689200A2F1C042C2F8EC
:100D8000041107E06FF0704201688900A1F1C041D1
:100D9000C1F8042170472DE9F041024600250026E4
:100DA000002000230024002791F803C00CF00F0559
:100DB00091F803C00CF0100CBCF1000F03D091F8B7
:100DC00002C04CEA050591F800C0BCF1000F31D01B
:100DD000146800202BE04FF0010C0CFA00F3B1F87E
:100DE00000C00CEA03069E4220D183004FF00F0C96
:100DF0000CFA03F7BC4305FA03FC4CEA040491F82F
:100E000003C0BCF1280F06D14FF0010C0CFA00FC16
:100E1000C2F814C00AE091F803C0BCF1480F05D134
:100E20004FF0010C0CFA00FCC2F810C0401C08285E
:100E3000D1D31460B1F800C0BCF1FF0F34DD5468A9
:100E400000202EE000F1080C4FF0010808FA0CF326
:100E5000B1F800C00CEA03069E4221D183004FF096
:100E60000F0C0CFA03F7BC4305FA03FC4CEA04042C
:100E700091F803C0BCF1280F05D100F1080C08FA65
:100E80000CF8C2F8148091F803C0BCF1480F07D1E8
:100E900000F1080C4FF0010808FA0CF8C2F81080B5
:100EA000401C0828CED35460BDE8F081F0B50A4656
:100EB000002300240021002500F00046B6F1004F79
:100EC00002D11D4EF16901E01B4E7168C0F303456C
:100ED00083B200F44016B6F5401F08D121F07061CE
:100EE000154E766826F07066134F7E6012E000F4AF
:100EF0008016B6F5801F06D1032606FA05F4A14335
:100F000041F0706106E0460D360103FA06F6B14382
:100F100041F0706122B1460D360103FA06F6314305
:100F200000F00046B6F1004F02D1034EF16101E03E
:100F3000014E7160F0BD000000000140416170474A
:100F40000161704710B50446072301222146094874
:100F5000FFF720FD01210748FFF77DFD00BF0221BB
:100F60000448FFF7DBFC0028F9D00248FFF7D2FC69
:100F700010BD0000003C014000BFFEE770B5064612
:100F80000F484088401E83B20D480088401E82B240
:100F90000021084600F02FF900240CE0002504E0B1
:100FA000304600F051FB681C85B205484088A842D5
:100FB000F6DC601C84B202480088A042EEDC70BD02
:100FC0002400002000B502460F4882716AB936201D
:100FD00000F02EFB002000F031FB4FF4F0700A49C6
:100FE00048804FF4A07008800CE0362000F020FB11
:100FF000602000F023FB4FF4A070034948804FF4B9
:10100000F070088000BD00002400002070B5044688
:101010000D4616462B4622462946204600F0EBF8A0
:10102000304600F011FB70BD2DE9FF4F84B08146C2
:101030008A460020039002900698A0EB09050798C5
:10104000A0EB0A06CDF80490CDF800A0002D01DD3C
:10105000012705E00DB9002702E04FF0FF376D4290
:10106000002E02DD4FF0010806E016B94FF000082F
:1010700002E04FF0FF387642B54201DD2C4600E039
:1010800034464FF0000B21E0009A91B2019A90B2E1
:1010900000F078F8039828440390029830440290B6
:1010A0000398A04205DD0398001B03900198384483
:1010B00001900298A04205DD0298001B0290009862
:1010C000404400900BF101001FFA80FB601C834537
:1010D000DADD08B0BDE8F08F2DE9FF4F84B081461E
:1010E0008A460020029083460698A0EB09050798DF
:1010F000A0EB0A06CDF80490CDF800A0002D01DD8C
:10110000012705E00DB9002702E04FF0FF376D42DF
:10111000002E02DD4FF0010806E016B94FF000087E
:1011200002E04FF0FF387642B54201DD2C4600E088
:101130003446002003901EE0009A91B2019A90B2CA
:10114000119AFFF763FF029828440290B344029873
:10115000A04205DD0298001B0290019838440190DE
:10116000A34504DDABEB040B0098404400900398CA
:10117000401C80B20390611C03988842DCDD08B0FB
:10118000BDE8F08F30B504460D462B462246294671
:10119000204600F030F80248008800F055FA30BDD3
:1011A00020000020F0B504460D4616461F462B468B
:1011B000324629462046FFF737FF3B46224629465E
:1011C0002046FFF731FF3B46324639462046FFF7BF
:1011D0002BFF3B46324629463046FFF725FFF0BD40
:1011E00010B50246012000E050430B1EA1F101049E
:1011F000E1B2F9D110BD70B504460D462A2000F0C9
:1012000017FA2646E11704EB1161C1F30F2000F035
:1012100015FAE11704EB11610912A4EB012188B260
:1012200000F00CFA1646D11702EB1161C1F30F2042
:1012300000F004FA1646D11702EB11610912A2EB75
:10124000012188B200F0FAF92B2000F0F1F92E46C6
:10125000E91705EB1161C1F30F2000F0EFF9E91771
:1012600005EB11610912A5EB012188B200F0E6F946
:101270001E46D91703EB1161C1F30F2000F0DEF910
:101280001E46D91703EB11610912A3EB012188B2A5
:1012900000F0D4F92C2000F0CBF970BD2DE9F84F07
:1012A00080460E4617461C46B3462046E31704EB1D
:1012B0005373DB1021464FEAE47C04EB5C7C4FEA7D
:1012C000EC0CA4EBCC0CBCF1000F02D04FF0010CE5
:1012D00001E04FF0000C6344224604EBD27C4FEA5D
:1012E0006C0C03FB0CF3DBB20093A7F12000C7B238
:1012F000002556E00C2C07D107EB47002B4901EBEA
:10130000800010F8059013E0102C05D1284800EB60
:10131000071010F805900BE0182C07D107EBC70059
:10132000244901EB800010F8059001E0BDE8F88F3A
:101330004FF0000A2FE009F0800030B11E4802880B
:1013400031464046FFF762FE07E00A9828B91B487D
:10135000028831464046FFF759FE4FEA49604FEA9E
:101360001069701C86B216484088B04200DCDDE788
:10137000A6EB0B00A0420AD15E4608F101001FFA5D
:1013800080F80F480088404500DCCFE706E00AF10E
:10139000010000F0FF0ABAF1080FCCDB00BF681CA7
:1013A000C5B200988542A5DB00BFBFE7885202089E
:1013B000FC560208EC5C02082000002022000020FD
:1013C000240000202DE9FF4F81B004460F4615464A
:1013D000A34600975FE0002656E006EB8600C0EBD0
:1013E0008610304911F81000297888424AD106EB5E
:1013F0008600C0EB86102B4901EB400040786978ED
:1014000088423FD14FF0000839E006EB8600C0EB80
:101410008610244901EB4000801C10F808A04FF012
:10142000000925E00AF08000802805D139462046D1
:10143000049AFFF7EBFD05E01B4802883946204679
:10144000FFF7E4FD4FF6FF7000EA4A0A601C84B221
:10145000A4EB0B00202807D15C46781C87B20098CB
:10146000381A1D2800D1009F09F1010000F0FF0982
:10147000B9F1080FD6DB08F1010000F0FF08B8F160
:10148000740FC2DB701CC6B2782EA6DBAD1C04F153
:10149000200084B2A346287800289CD105B0BDE87E
:1014A000F08F0000C8990208220000202DE9FF4FAC
:1014B00081B0074691461E460E9D4FF0000A00245B
:1014C00039E0301B401EC1B20A20FFF789FEB9FB8C
:1014D000F0F00A21B0FBF1F201FB1208BAF1000FA3
:1014E00016D1701EA04213DDB8F1000F0ED10020FE
:1014F000AB4605EBDB71491001FB0471009088B22B
:101500002B4620220299FFF7C9FE12E04FF0010A94
:101510000020AB4605EBDB71491001FB0471009024
:1015200088B208F13001CAB22B460299FFF7B6FE25
:1015300000BF601CC4B2B442C3DB05B0BDE8F08F8D
:101540002DE9F84F06460F4614461D464FF0000A97
:10155000D346002000907819401E83B23019401EF7
:1015600082B239463046FFF746FE04FB05F04000E4
:101570000090D04625E04FF000091CE00BF101017E
:101580000A9810F801A04FF6FF7000EA0A2A0A989C
:1015900010F80B0040EA0A0A07EB080291B206EBCA
:1015A000090290B25246FFF731FD0BF1020B09F12F
:1015B00001001FFA80F9A145E0DB08F101001FFAE4
:1015C00080F8A845D7DBBDE8F88F2DE9F847044639
:1015D0000D4690469946DDE9096704F0FF0A08EBDD
:1015E00004001FFA80F809EB05001FFA80F916E0E5
:1015F000444502DB5446A81985B24D4500DB14E092
:10160000002000903A78334629462046FFF746FEF0
:10161000304606EBD07104EB61018CB27F1C387848
:101620007E2802DC38782028E2DA00BFBDE8F8879F
:101630000149088070470000FE07006C01490880DE
:10164000704700000008006C0149088070470000E6
:101650000008006C08B50121482000F0F7F82020B0
:10166000ADF8000010208DF8030003208DF8020073
:1016700069460948FFF78FFB20210748FFF760FC08
:101680002020ADF8000069460448FFF784FB2021C4
:101690000248FFF755FC08BD000C0140001801404E
:1016A00070B50024002508E00620FFF74BFC044439
:1016B000052001F088FC681CC5B20A2DF4DB0A2065
:1016C000B4FBF0F4B4F57A6F01D94FF47A642820B2
:1016D000B4FBF0F0C0F16400C0B270BD00B587B0DB
:1016E0000121802000F0B2F80121C80300F0AEF81B
:1016F0000121C80300F0BAF800214FF4004000F0C7
:10170000B5F84FF48070ADF8180000208DF81B007C
:1017100006A91848FFF73FFB1748FFF7C3F800205A
:1017200001908DF808008DF809004FF460200390B7
:101730000020049001208DF8140001A90E48FFF745
:1017400001F901210C48FFF7A2F80B48FFF77EF9D9
:1017500000BF0948FFF7EBF80028FAD10648FFF769
:1017600085F900BF0448FFF7CBF80028FAD107B08D
:1017700000BD0000001C0140003C014000BFFEE72E
:101780007047000070B5002100230F22C47804B315
:10179000154C246804F4E064C4F5E064210AC1F146
:1017A0000403CA40447804FA03F1847814402143C6
:1017B00009010E4C0678A155047804F01F05012498
:1017C000AC4005786D11AD0005F1E025C5F800418C
:1017D00009E0047804F01F050124AC40044D0678AC
:1017E000761145F8264070BD0CED00E000E400E005
:1017F00080E100E002490143024A116070470000A5
:101800000000FA050CED00E07047000029B1064A1F
:1018100052690243044B5A6104E0034A526982430D
:10182000014B5A61704700000010024029B1064A7E
:10183000D2690243044BDA6104E0034AD26982436D
:10184000014BDA61704700000010024029B1064ADE
:1018500092690243044B9A6104E0034A926982430D
:10186000014B9A61704700000010024029B1064AFE
:10187000D2680243044BDA6004E0034AD268824330
:10188000014BDA60704700000010024030B50021C3
:101890000022002400232D4D6D6805F00C0121B1BC
:1018A000042905D0082923D105E0294D056022E04F
:1018B000274D05601FE0254D6D6805F47012234D1E
:1018C0006D6805F48034022505EB92421CB9214D68
:1018D000554305600BE01D4D6D6805F400351DB1E5
:1018E0001C4D5543056002E0194D5543056002E06B
:1018F000174D056000BF00BF144D6D6805F0F00185
:101900000909154D6B5C0568DD4045600F4D6D683C
:1019100005F4E061090A104D6B5C4568DD408560A7
:101920000A4D6D6805F46051C90A0B4D6B5C456842
:10193000DD40C560054D6D6805F44041890B074DDC
:101940006B5CC568B5FBF3F5056130BD0010024066
:1019500000127A0000093D000B0000201B0000204F
:10196000704710B500F002F810BD00000CB5002063
:10197000019000903348006840F48030314908609D
:1019800000BF3048006800F4003000900198401C0F
:101990000190009818B90198B0F5A06FF1D12948CD
:1019A000006800F4003010B10120009001E0002038
:1019B00000900098012843D12348006840F01000AF
:1019C000214908600846006820F0030008600846C6
:1019D000006840F0020008601A48406819494860F1
:1019E0000846406848600846406840F480604860A7
:1019F0000846406820F47C1048600846406840F47F
:101A0000E81048600846006840F08070086000BF39
:101A10000C48006800F000700028F9D009484068C0
:101A200020F00300074948600846406840F0020083
:101A3000486000BF0348406800F00C000828F9D156
:101A40000CBD00000010024000200240042808D114
:101A50004FF0E021096941F004014FF0E0221161EB
:101A600007E04FF0E021096921F004014FF0E02286
:101A7000116170477047000010B504466FF0040014
:101A8000FFF7E4FFE11704EB5171C1F3C701074A07
:101A900011701046007800EB4001C1EBC0104FF60A
:101AA000FF7101EAC0000249088010BD2E0000202D
:101AB0003000002010B51348006840F001001149C3
:101AC000086008464068104908400E4948600846CA
:101AD00000680E4908400B4908600846006820F479
:101AE000802008600846406820F4FE0048604FF4FB
:101AF0001F008860FFF735FF4FF000600449086061
:101B000010BD0000001002400000FFF8FFFFF6FECD
:101B100008ED00E000B59DB001210802FFF776FE58
:101B200001200790002008900F20099000200A90C3
:101B30000B900C900D9015200090019005200290C4
:101B40000020039004900590069006200E9000203F
:101B50000F9010901020119000201290149013906C
:101B6000159016904FF480501790002018904FF465
:101B70008040199000201A9007A81B90CDF870D0D3
:101B80000EA8FFF795F801210620FFF777F81DB0A2
:101B900000BD000008B501214FF4B470FFF756FEF8
:101BA0004CF23370ADF8000018208DF803000320CC
:101BB0008DF8020069461848FFF7EDF84FF680707F
:101BC000ADF8000018208DF8030003208DF8020006
:101BD00069461248FFF7DFF841F20100ADF8000056
:101BE00018208DF8030003208DF8020069460C4888
:101BF000FFF7D1F80120ADF8000010208DF80300A8
:101C000003208DF8020069460648FFF7C4F801205A
:101C10000549086008BD000000140140001801409B
:101C200000200140000C01408081214210B5FFF7E7
:101C3000B1FFFFF76FFF322001F0C5F9D320FFF7A6
:101C4000F7FCA3480088A3498880A14800888880C1
:101C50009F4800888880084680884FF6FF7101EA17
:101C600000209C4988800846808899490988084353
:101C7000984988800846818897A000F0ABFCFF2037
:101C8000FFF7D6FCFF20FFF7D3FC052001F09BF9FE
:101C9000FF20FFF7CDFCFF20FFF7CAFCFF20FFF776
:101CA000C7FCFF20FFF7C4FC0A2001F08CF9B0202C
:101CB000FFF7BEFC0020FFF7C1FCB320FFF7B8FC24
:101CC0000220FFF7BBFC0020FFF7B8FC0020FFF765
:101CD000B5FC0020FFF7B2FCC020FFF7A9FC1320E1
:101CE000FFF7ACFC3B20FFF7A9FC0020FFF7A6FCA8
:101CF0000020FFF7A3FC0020FFF7A0FC0120FFF766
:101D00009DFC0020FFF79AFC4320FFF797FCC120C1
:101D1000FFF78EFC0820FFF791FC1B20FFF78EFCDD
:101D20000820FFF78BFC0820FFF788FCC420FFF792
:101D30007FFC1120FFF782FC0120FFF77FFC73205E
:101D4000FFF77CFC0120FFF779FCC620FFF770FC51
:101D50000020FFF773FCC820FFF76AFC0F20FFF795
:101D60006DFC0520FFF76AFC1420FFF767FC5C2080
:101D7000FFF764FC0320FFF761FC0720FFF75EFC20
:101D80000720FFF75BFC1020FFF758FC0020FFF74F
:101D900055FC2320FFF752FC1020FFF74FFC0720D3
:101DA000FFF74CFC0720FFF749FC5320FFF746FCE8
:101DB0000C20FFF743FC1420FFF740FC0520FFF741
:101DC0003DFC0F20FFF73AFC2320FFF737FC0020F3
:101DD000FFF734FC3520FFF72BFC0020FFF72EFC2B
:101DE0004420FFF725FC0020FFF728FC0120FFF727
:101DF00025FCD020FFF71CFC0720FFF71FFC072065
:101E0000FFF71CFC1D20FFF719FC0320FFF716FC51
:101E1000D120FFF70DFC0320FFF710FC5B20FFF73C
:101E20000DFC1020FFF70AFCD220FFF701FC032075
:101E3000FFF704FC2420FFF701FC0420FFF7FEFB62
:101E40002A20FFF7F5FB0020FFF7F8FB0020FFF743
:101E5000F5FB0120FFF7F2FB3F20FFF7EFFB2B2004
:101E6000FFF7E6FB0020FFF7E9FB0020FFF7E6FBAA
:101E70000120FFF7E3FBDF20FFF7E0FB3620FFF751
:101E8000D7FB0020FFF7DAFBC020FFF7D1FB1320C0
:101E9000FFF7D4FB3A20FFF7CBFB5520FFF7CEFB33
:101EA0001120FFF7C5FB962001F08DF82920FFF7E0
:101EB000BFFB1E2001F087F82C20FFF7B9FB0020A4
:101EC000FFF780F84FF6FF70FFF758F810BD0000DD
:101ED0000008006C24000020204C43442049443A70
:101EE00025780D0A000000000EB50121880700F0DA
:101EF0006FF898B10A4800780A4909780A4A1278B6
:101F0000CDE9002102900948437802780849094840
:101F100000F090F90121880700F04BF80EBD000099
:101F20000A00002009000020000000200500002019
:101F3000DCC10208004400407FB505460C46012183
:101F40000846FFF773FC681E80B2ADF80800601EFB
:101F500080B2ADF804000020ADF80A00ADF806002C
:101F600001A94FF0804000F04DF801221146900782
:101F700000F03FF80121880700F01BF81C208DF8C5
:101F8000000006208DF8010004208DF802000120D9
:101F90008DF803006846FFF7F5FB0121880700F084
:101FA00005F80121880700F007F87FBDCA430282C7
:101FB0007047CA430282704721B1028842F0010291
:101FC000028004E002884FF6FE731A4002807047D8
:101FD00030B50246002000230024158A05EA0103DB
:101FE000958905EA010413B10CB1012000E000203D
:101FF00030BD1AB183890B43838102E083898B430F
:1020000083817047002202881D4B98420ED01D4BE1
:1020100098420BD0B0F1804F08D01B4B984205D0AE
:102020001A4B984202D01A4B984204D14FF68F7344
:102030001A404B881A43174B984207D0164B9842C8
:1020400004D04FF6FF431A40CB881A4302808B8896
:1020500083850B8803850A4B98420BD0094B984225
:1020600008D00E4B984205D00D4B984202D00D4B34
:10207000984201D10B7A03860123838270470000C6
:10208000002C0140003401400004004000080040E2
:10209000000C0040001000400014004000400140CF
:1020A000004401400048014010B540F225511D4850
:1020B00000F065F910B31B4800F01CFAC4B21A48CE
:1020C000008800F40040C8B91748008800F4804038
:1020D00060B10A2C03D000201349088020E0124888
:1020E000008840F400401049088019E00D2C06D10A
:1020F0000D48008840F480400B49088010E00A48F1
:102100000088C0F30D0009490C5407480088401CA2
:102110000549088008460088C72801DD002008809E
:1021200010BD00000038014032000020520800209D
:1021300010B586B0044601210420FFF787FB01217A
:102140008803FFF783FB4FF40070ADF81400032001
:102150008DF8160018208DF8170005A91248FEF713
:102160001AFE4FF48060ADF8140004208DF81700BB
:1021700005A90D48FEF70FFE01940020ADF80800F8
:10218000ADF80A00ADF80C00ADF810000C20ADF869
:102190000E0001A9054800F041F90121034800F0B3
:1021A000D5F806B010BD000000080140003801401D
:1021B00010B540F225511C4800F0E1F8F8B11A487A
:1021C00000F098F9C4B21948008800F40040B0B992
:1021D0001648008800F4804048B10A2C03D0002043
:1021E000124908801EE00020104908801AE00D2CDA
:1021F00006D10E48008840F480400C49088011E068
:102200000A480088C0F30D0009490C5407480088AB
:10221000401C0649088008460088B0F5806F01DB45
:102220000020088010BD0000004400402C00002069
:102230003E0400200FB470B586B006460CA801908D
:1022400073E00B9800785C281CD10B98401C0B9015
:1022500000786E2809D072280FD10D21304600F089
:102260004EF90B98401C0B900BE00A21304600F011
:1022700046F90B98401C0B9003E00B98401C0B9008
:1022800000BF4BE00B980078252840D10B98401CEC
:102290000B900078642818D0732833D1019810C8A7
:1022A00001900BE02178304600F029F900BF802131
:1022B000304600F057F80028F9D0641C2078002838
:1022C000F0D10B98401C0B9020E0019820C80190A1
:1022D0000A2202A9284601F093F802AC0BE021780B
:1022E000304600F00CF900BF8021304600F03AF88B
:1022F0000028F9D0641C20780028F0D10B98401CED
:102300000B9003E00B98401C0B9000BF06E00B986D
:1023100010F8011B0B90304600F0F1F800BF80214F
:10232000304600F01FF80028F9D00B9800780028FC
:1023300087D106B070BC5DF814FB01F40072B2F5F1
:10234000007F00D100BFCA430280704721B182895B
:1023500042F40052828104E082894DF6FF731A40F4
:102360008281704702460020B1F5007F00D100BF96
:1023700013880B400BB1012000E00020704770B5BE
:102380000246002400230025002040F66A16B142D0
:1023900000D100BFC1F3421501F01F03012606FA68
:1023A00003F3012D02D19689334006E0022D02D1BC
:1023B000168A334001E0968A33400C12012606FA51
:1023C00004F41688344013B10CB1012000E0002061
:1023D00070BDF0B50346002400260025002040F61D
:1023E0006A17B94200D100BF1846C1F3421401F088
:1023F0001F06012707FA06F5012C01D10C3004E075
:10240000022C01D1103000E014301AB107682F43BC
:10241000076002E00768AF430760F0BD2DE9F047B1
:1024200086B005460E460024A24600BFA1460027FE
:10243000B08900B100BF2F462C8A4CF6FF700440D3
:10244000F08804432C82AC894EF6F3100440B08827
:1024500031890843718908430443AC81AC8A4FF643
:10246000FF400440B0890443AC8201A8FFF70EFA94
:102470001F48874202D1DDF810A001E0DDF80CA072
:10248000A88900F4004040B10AEBCA0000EB0A1032
:1024900031684900B0FBF1F807E00AEBCA0000EB35
:1024A0000A1031688900B0FBF1F86420B8FBF0F045
:1024B00004012009642101FB1089A88900F400406F
:1024C00040B1322000EBC900B0FBF1F000F0070092
:1024D000044308E0322000EB09106421B0FBF1F066
:1024E00000F00F0004432C8106B0BDE8F087000027
:1024F0000038014001468888C0F308007047C1F3E6
:1025000008028280704700BFFEE7000000B587B078
:1025100001214804FFF78AF901210820FFF796F905
:1025200001210420FFF792F901210846FFF78EF9F7
:1025300001212548FEF7BAFC0420ADF8180003205D
:102540008DF81A0018208DF81B0006A91F48FEF709
:1025500022FC0820ADF8180004208DF81B0006A905
:102560001A48FEF718FC4FF4E13002900020ADF855
:102570000C00ADF80E00ADF81000ADF814000C2002
:10258000ADF8120002A91248FFF748FF4021104899
:10259000FFF7D3FE012240F225510D48FFF719FF46
:1025A00001210B48FFF7D2FE26208DF804000320FE
:1025B0008DF805008DF8060001208DF8070001A8B0
:1025C000FFF7E0F807B000BD00023000000801404E
:1025D000004400400FB4054B10B503A9044A02980B
:1025E00000F05AF910BC5DF814FB000099300008A7
:1025F00034000020490050EAC12018BF04204A0DD1
:1026000018BF40F0010040F2FF72B2EB515F08BF0B
:1026100040F00200012808BF052070472DE9F04175
:102620004F1E00EBC7010446D1E9000115461E46C6
:1026300037F006020DD02A463346FDF790FE7F1E86
:1026400004EBC703D3E90023FDF7E2FD37F00602F0
:10265000F1D1022F25D0042F13D0062F18BFBDE8CB
:10266000F0812A463346FDF77AFED4E90A23FDF7C6
:10267000CFFD2A463346FDF772FED4E90823FDF765
:10268000C7FD2A463346FDF76AFED4E90623FDF767
:10269000BFFD2A463346FDF762FED4E90423FDF769
:1026A000B7FD2A463346FDF75AFED4E90223FDF76B
:1026B000AFFD2A463346FDF752FED4E90023BDE8BC
:1026C000F041FDF7A5BD0000002213461046014968
:1026D000FDF7DBBF0000F03FFDF79ABD0022134677
:1026E00010461146FDF7D1BF40F2013200204FF0F5
:1026F000E041FEF739B80000024A00201107FEF75A
:1027000033B8000001FDFFFF02E008C8121F08C136
:10271000002AFAD170477047002001E001C1121F62
:10272000002AFBD170470000014908607047000093
:10273000380000202DE9FF5FDDE90220010DDDF802
:1027400038B0024318D044F61050A1F2FF31414393
:102750000D140F98012820D0A5EB0B00401C5FEA58
:10276000000A4FF00004474EDFF81C91A046504687
:1027700016D5CAF1000728E00F98012443A20128CA
:1027800008D0002100980F9BC0E90021C0E9024356
:10279000BDE8FF9F6FEA0B01F4E7CBF10000DEE735
:1027A000074612E0F80707D022463346404649461E
:1027B000FDF7D5FD80468946224633461046194628
:1027C000FDF7CDFD04460E467F10002FEAD1DDE96E
:1027D0000201BAF1000F42464B4602DAFDF7BFFD97
:1027E00001E0FDF752FF04460E460022284BFDF79C
:1027F0005FFE03D84FF0FF30014607E00022254B73
:1028000020463146FDF704FDFDF7C5FF102409E021
:10281000002C0ADB0A220023FDF778FE019B3032F0
:102820001A55641E50EA0102F2D1641C019AC4F1E7
:10283000110314440F9A012A03D0012208430DD139
:102840000AE0084304D000204FF0110B0F9080E7FE
:10285000A3EB0B056D1E0DE05B4504DD4FF00002A0
:1028600005F1010504E003DA4FF00002A5F10105CE
:10287000002AECD000980F99C0E90231C0E9004568
:1028800086E70000000024400000F03F3000000018
:102890000000F0430000E03F2DE9FF4F95B09B465C
:1028A0008946064600250FE2252877D100242746D1
:1028B000F84A0121059400E0044316F8013F203B4B
:1028C00001FA03F01042F7D130782A2811D06FF0C6
:1028D0002F033078A0F13002092A16D8059A44F067
:1028E000020402EB820203EB42021044761C0590C4
:1028F000EFE759F8042B0592002A03DA504244F41A
:102900000054059044F00204761C30782E2816D12D
:1029100016F8010F44F004042A280DD06FF02F029E
:102920003078A0F13003092B09D807EB870302EBBD
:102930004303C718761CF3E759F8047B761C3078FC
:102940006C280FD006DC4C2817D068280DD06A28D8
:1029500014D104E0742810D07A280FD10DE044F48B
:1029600000140AE044F4801401E044F44014727846
:10297000824202D104F58014761C761C30786628D9
:102980000BD013DC582877D009DC002875D04528F7
:10299000F6D04628F4D047281AD19DE118E06328E4
:1029A00035D0642879D0652812D195E1702873D08C
:1029B00008DC6728F1D069286FD06E280DD06F2809
:1029C00006D1B5E073282CD0752875D0782874D03E
:1029D0005A46179990476D1C75E1C4F302500228BE
:1029E00009D003280DD0D9F8001004280DD00D60AF
:1029F00009F1040967E1D9F80010EA17C1E90052AA
:102A0000F6E7D9F800100D80F2E70D70F0E719F83D
:102A1000041B8DF8001000208DF80100EA4601200B
:102A200003E059F804AB4FF0FF3061074FF00001AD
:102A300002D40DE008F101018846B9420FDA804561
:102A4000F8DB1AF808100029F4D108E008F10101B8
:102A500088468142FADB1AF808100029F6D1059859
:102A60005B46A0EB080721463846179A00F094FA17
:102A7000284400EB080507E04DE029E10DE01AF8D5
:102A8000010B5A4617999047B8F10108F7D25B46F7
:102A900021463846179A13E142E00A220092C4F315
:102AA00002524FF0000A022A08D059F804CB032A38
:102AB0004FEAEC710AD00DE029E02AE009F10701A4
:102AC00021F00702F2E802C1914609E00FFA8CFCFE
:102AD0004FEAEC71042A03D14FFA8CFC4FEAEC71F7
:102AE000002907DA0A460021DCF1000C61EB020143
:102AF0002D2202E0220504D52B228DF8042001228C
:102B000003E0E20701D02022F7E7904659E00A21CE
:102B100002E010220DE010214FF0000A00910BE0BE
:102B200010224FF0000A44F004040827009203E04A
:102B300008224FF0000A0092C4F30252022A05D084
:102B400059F804CB0021032A08D009E009F1070154
:102B500021F00702F2E802C1914605E01FFA8CFC61
:102B6000042A01D10CF0FF0C4FF00008220728D5F1
:102B7000702806D0009B83F0100353EA0A0305D0A7
:102B80000EE040228DF80420012208E05CEA0102F8
:102B900006D030228DF804208DF8050002229046E0
:102BA000009B83F0080353EA0A030AD15CEA01029E
:102BB00001D1620705D530228DF804204FF00108BD
:102BC0007F1E582804D034A003900EA802900DE078
:102BD00036A0F9E753466046009AFDF797FC844615
:102BE0000398825C0298401E029002705CEA010029
:102BF000F0D1029806A9081A00F1200A600702D550
:102C000024F4803400E00127574502DDA7EB0A00D9
:102C100000E0002000EB0A01009005984144401AB2
:102C20000590E00306D45B462146179A059800F00C
:102C3000B3F90544002706E001A85A46C05D17997C
:102C400090476D1C7F1C4745F6DBE0030CD55B46C7
:102C50002146179A059800F09FF9054404E03020BA
:102C60005A46179990476D1C0099481E00900029FC
:102C7000F5DC08E0029802995A460078491C029156
:102C8000179990476D1CBAF10001AAF1010AF1DC15
:102C900065E1000009280100303132333435363720
:102CA0003839616263646566000000003031323398
:102CB0003435363738394142434445460000000038
:102CC00000F058F90544761C307800287FF4ECAD0C
:102CD00019B02846BDE8F08F620700D4062709F135
:102CE000070222F0070CFCE80223E14603F000484B
:102CF0005FEA080C02D00FF2702C0DE05FEA045C72
:102D000002D50FF2682C07E05FEAC47C02D00FF214
:102D1000602C01E0AFF2700C4FF0FF3823F000435D
:102D2000CDF850C065280CD006DC452809D04628CF
:102D30001DD047283DD13DE0662818D067287ED1B8
:102D400038E00021112F01DB112000E0781CCDE9D3
:102D5000000106A90EA8FFF7EDFCDDE90F010E9AB0
:102D600003910021009207F1010A04914DE04FF018
:102D700000400097CDE9011006A90EA8FFF7DAFC84
:102D8000DDE90F0203920E9B11990022DDF80CA0E1
:102D90000093049211B9791C00EB010AB7EB0A0009
:102DA00004D4C0F1FF3007F1010A0490AAEB070038
:102DB000019044E0012F00DA01270021112F01DDED
:102DC000112000E03846CDE9000106A90EA8FFF762
:102DD000B1FCDDE90F010E9A0391002104910092EC
:102DE000BA4621070CD40399514500DA8A46BAF154
:102DF000010F05DD009AAAF10101515C302908D0CC
:102E0000B84202DA10F1040F06DA0121CDE901100F
:102E100015E0AAF10101E9E7002805DC0499014465
:102E20000491AAEB000102E0411C514500DD8A46F5
:102E30000499401A401C01904FF000400290200776
:102E400004D40198504501DBCDF8048000208DF8B2
:102E50004F0002980DF14F07B0F1004F25D02B2005
:102E60000E9002984FF0020800280CDA40420290BF
:102E70002D200E9007E00A210298FDF731FB30313A
:102E8000029007F8011DB8F10001A8F10108F2DC79
:102E900002980028EFD1791E0E980870307800F063
:102EA000200040F0450007F8020D12A8C01B00F1F9
:102EB00007081498007800B1012000EB0A0101987E
:102EC00001EBE07105984144401A401E0590E00373
:102ED00006D45B462146179A059800F05DF8054434
:102EE0001498007818B15A46179990476D1CE00362
:102EF00024D55B462146179A059800F04DF8054405
:102F00001CE00498002807DBDDE90301884203DDAB
:102F10000098405C179901E0179930205A46904775
:102F2000049805F10105401C04900198401E019091
:102F300004D12E205A46179990476D1CBAF1000112
:102F4000AAF1010ADDDC05E017F8010B5A461799D2
:102F500090476D1CB8F10001A8F10108F4DC5B4654
:102F60002146179A0598ABE62D0000002B000000C3
:102F7000200000002DE9F041044600251E461746BA
:102F8000880404D405E039462020B0476D1C641E37
:102F9000F9D52846BDE8F0812DE9F0410446002529
:102FA0001E469046C80301D5302700E0202788043C
:102FB00004D505E041463846B0476D1C641EF9D57E
:102FC0002846BDE8F08170B504464FF4077094FBC5
:102FD000F0F0C6B24FF4077094FBF0F100FB114023
:102FE00085B205E04FF4077000F00AF8701EC6B213
:102FF000002EF7D115B1284600F002F870BD000090
:103000000146114A12884A434FF0E0235A610022D8
:103010009A611A46126942F001021A6100BF4FF02C
:10302000E022106900F001021AB100F48032002A97
:10303000F5D04FF0E022126922F001024FF0E023B8
:103040001A6100229A617047300000200146114A3F
:1030500012784A434FF0E0235A6100229A611A46DF
:10306000126942F001021A6100BF4FF0E0221069BC
:1030700000F001021AB100F48032002AF5D04FF0BE
:10308000E022126922F001024FF0E0231A610022CF
:103090009A6170472E00002070B504460D46E1B2DB
:1030A0000548FFF72CFA00BF80210348FFF75AF9C3
:1030B0000028F9D0204670BD003801400EB56946A1
:1030C00001A8FDF796FD9DF800008DF809009DF818
:1030D00004008DF80800BDF8081008460EBD10B5B4
:1030E000FEF7DEFA10BD000070B5ADF53E7D054679
:1030F000C8217AA8FDF751F8D022834946A8FDF7E8
:1031000033F8D0228049D03112A8FDF72DF80024E1
:103110007E497AA8FDF773F87AA8FDF75BF80646B2
:1031200032467AA97AA0FFF755FA7AA9684601F0E3
:1031300033F848226946ACA8FDF716F8794A7A4B6D
:10314000BBA80DF2E221CDE90332CDE90110B6A80A
:103150000DF2CE23ACAAB1A900907448FFF73AFA59
:1031600000BFB2E09DF8CE02002877D012A850F838
:1031700024100DF2CE20FDF734F800286ED16CA19A
:103180000DF2CE20FDF714F840B16B4850231A46DB
:10319000C82100909420FEF7D3F98CE00DF2CE20E8
:1031A0001499FDF71EF828B10DF2CE201399FDF702
:1031B00018F840B9614850231A46C821009094205D
:1031C000FEF7BEF977E00DF2CE201599FDF709F86C
:1031D00040B95B4850231A46C82100909420FEF75E
:1031E000AFF968E057A10DF2CE20FCF7E1FF40B146
:1031F000554850231A46C82100909420FEF7A0F9A4
:1032000059E052A10DF2CE20FCF7D2FF40B1514857
:1032100050231A46C82100909420FEF791F94AE005
:103220004DA10DF2CE20FCF7C3FF40B14B48502317
:103230001A46C82100909420FEF782F93BE048A18D
:103240000DF2CE20FCF7B4FF48B1464850231A4691
:10325000C82100909420FEF773F92CE033E042A1DE
:103260000DF2CE20FCF7A4FF40B1404850231A468F
:10327000C82100909420FEF763F91CE03CA10DF2F8
:10328000CE20FCF795FF40B13B4850231A46C82199
:1032900000909420FEF754F90DE038A10DF2CE20F5
:1032A000FCF786FF38B1374850231A46C8210090F2
:1032B0009420FEF745F946A850F824100DF2CE20D0
:1032C000FCF79DFF04E0601CC4B2342CFFF64AAF4B
:1032D00000BF144A144BBBA80DF2E221CDE9033222
:1032E000CDE90110B6A80DF2CE23ACAAB1A9009089
:1032F00025A0FFF76FF94622ACA92846FCF734FF5A
:103300000DF53E7D70BD0000E85002083E0400202F
:1033100025730D0A20646174616C656E2D2D3E2548
:10332000640D0A003E0800204808002050BE020834
:1033300071696E6700000000E85C0008E8EC0108B5
:10334000E85601086C656900E88E000873686163DF
:1033500068656E00E8C0000877750000E8F20008B4
:1033600078756500E824010879750000E88801088F
:1033700079756A6961000000E8BA01087A68656ECB
:1033800079750000E81E0208312D2D257320322D9D
:103390002D257320332D2D257320342D2D257320BD
:1033A000352D2D257320362D2D257320372D2D25D8
:1033B0007320382D2D25730D0A00000010B5FDF780
:1033C000C3FBFEF78BF9FDF757FBFEF72FFC4FF61B
:1033D000FF70FDF7D3FD002002490880FFF796F843
:1033E00010BD0000200000200246501A022805DC13
:1033F000501A10F1020F01DD012070470020FCE798
:10340000F0B503460D461646002729460A2E03D07E
:10341000002008702846F0BD33B9302001F8010BB8
:10342000002008702846F6E7002B03DA2D2001F86B
:10343000010B5B4242F210720DE093FBF2F404B90F
:1034400037B104F1300001F8010B04FB12330127FE
:103450000A2092FBF0F2002AEFDC002008702846D8
:10346000D9E7000030B5884206DA00240D4D2C6003
:1034700001240D4D2C7005E001240A4D2C60002420
:10348000094D2C709A4206DD0124064D0C352C6046
:10349000064D2C7005E00024024D0C352C60034DC8
:1034A0002C7030BD94812142090000200A000020C8
:1034B000A4B000F04BFFFFF781FF4FF4EB734FF424
:1034C0009B720A210846FDF76DFE1F239CA20F2167
:1034D0008020FDF777FF00239BA22F211420FDF70A
:1034E00071FF9BA018210C230A46CDE90010322160
:1034F0007E20FEF76AF8002396A24F211420FDF7E4
:1035000061FF002395A24F217E20FDF75BFF002382
:1035100093A26F211420FDF755FF93A01821CDE948
:10352000001092484388028872217E20FEF74DF8F1
:103530008F48008899234FF49B72194600900A2007
:10354000FDF7CAFD1F238BA2A3215620FDF73AFFEA
:103550001F238AA2A321AA20FDF734FF002389A2FA
:1035600040F247111420FDF72DFF002387A240F2FF
:1035700067111420FDF726FF002379A240F287117E
:103580001420FDF71FFF002382A240F2A711142090
:10359000FDF718FF002381A240F2A7118C20FDF750
:1035A00011FFCCE07E4800F00DFF40B17C4800F0F8
:1035B00009FF044600F0DFFE7A49087004E00C20A1
:1035C00000F0D9FE77490870774800F0FBFE40B163
:1035D000754800F0F7FE044600F0CDFE7349087010
:1035E00004E0282000F0C7FE70490870FFF777FD5F
:1035F0006F49087018200323009008460278322192
:103600005420FDF753FF45F25840594908801020D7
:1036100003230090634802783521BA20FDF746FF66
:10362000002053490880FFF749FD11906148BDF81B
:10363000441001806420FFF7C6FCFFF73FFD1190A6
:103640005D48BDF84410018002461178594A10784F
:10365000FFF7CAFE30B157480078584908705548FE
:103660004078487018200090544802780323522173
:103670005420FDF71BFF1820009050484278032388
:1036800072215420FDF712FF4FF47840384908802A
:10369000102003230090454802785521BA20FDF7F9
:1036A00005FF002032490880444802783F480378EB
:1036B0003C4801783E480078FFF7D4FE6846FFF7A3
:1036C00013FD4822694612A8FCF74EFD00230DF1B8
:1036D00066024FF485715420FDF774FE12A8102184
:1036E0000B464FF48C72CDE9001040F24F1154207C
:1036F000FDF76BFF1CA81821CDE900101B4843887B
:1037000046224FF4B5715420FDF75FFF0DF17A00AA
:103710001821CDE900101548438846224FF4C571A1
:103720005420FDF752FF21A81821CDE900100F48C1
:10373000438846224FF4D5715420FDF746FF31E708
:10374000CAD2C4DA00000000B9E2D5D500000000FA
:1037500025000000CEC2B6C800000000A1E30000B2
:10376000CAAAB6C800000000255248002400002064
:1037700020000020CCECC6F800000000CEF7B0B26C
:1037800000000000CAB1BCE400000000C6F8CEC2D0
:1037900000000000B7E7C1A600000000BCB60000B2
:1037A0003E080020070000204808002008000020F4
:1037B0000000002001000020030000200500002080
:1037C0002DE9F04D1D460C4698B0174621F00041FA
:1037D00023F00043002814BF4FF0010C4FF0000C01
:1037E0000CEB440CFE4A0CEB02064FEA620C6645F9
:1037F0002BD33E0018BF012606EB45061644F94AB6
:10380000964222D3F84A53EA070C02D0944205D1DB
:1038100048B918B000201146BDE8F08D002808BF57
:103820004FF0000C01D04FF0010C0CEB440212F5EC
:10383000001F0AD8002F14BF4FF0010C4FF0000CEE
:103840000CEB450212F5001F07D918B03A462B467B
:103850002146BDE8F04DFEF73FBF0022DFF88CA304
:10386000002CB8BF534526DADFF884C36345A8BFF0
:10387000022220DADFF870C39C451CDCDFF874C339
:103880000CEB235CBCF1140F08DDCCF1340627FAF5
:1038900006FC0CFA06F6BE420DD108E05FB9CCF189
:1038A000140623FA06FC0CFA06F69E4203D10CF02D
:1038B0000102C2F1020251EA000C19D1002D17DAFF
:1038C000002C18BF022A01D0012A07D00220FEF7DF
:1038D0002BFF18B0BDE8F04DFEF7F6BE0220FEF754
:1038E00023FFFEF7F1FE18B081F00041BDE8F08D36
:1038F000B7F1000C6CD1534525D104F1804212F58B
:10390000801201BF00280020B74918B008BFBDE8E9
:10391000F08DB548884207DC002DA1BF60462946DE
:1039200018B0BDE8F08D07E0281E05DA80F00041F0
:1039300018B06046BDE8F08DAF497944D1E9000187
:1039400018B0BDE8F08DDFF8A0C2634525D1002D89
:103950001FDA19B1514512D1D8B909E0002840F059
:10396000EC82A24A214618B062F31E01BDE8F08D38
:103970000020214618B060F31E01BDE8F08D08DA82
:1039800018B02346BDE8F04D024600206146FCF722
:103990007CBE18B02146BDE8F08D514518DAB5F16E
:1039A000804F0DD0A5F1005CBCF1FF5C10D1B4F1EB
:1039B000000C0DDB18B06146BDE8F04D00F0DCBC3A
:1039C000234618B00246BDE8F04D1946FCF7C7BCC7
:1039D000060024F0004C3BD1D9B1514533D1002C25
:1039E00006DD002DA1BF0020514618B0BDE8F08DC6
:1039F000002C01DD002D1BDB002C13DA002D11DB68
:103A0000012A4FF0000014BF78497C4918B0BDE886
:103A1000F08D022A18BF002C0AD0012A08D1002CF0
:103A200006DA0AE0002CB8BF002D11DA012A04D012
:103A3000002018B00146BDE8F08D18B000204FF00E
:103A40000041BDE8F08DA1F14050B0F17F601AD087
:103A5000012000EBE47050EA020421D0624C521EB7
:103A60004FF0000B104304BF4FF0000B644C65484F
:103A700083427CDD644A654893421FDD884217DB40
:103A8000002D25DB37E0002C00DA4AB1022A0CBFFA
:103A900001204FF0FF3018B0BDE8F04DFCF7D1BC6D
:103AA0000120FEF741FE18B0BDE8F04DFEF716BE4E
:103AB0004D4A8A4202DC002D0ADC1CE0814202DA17
:103AC000002D18DA04E0484B994220DD002D12DD6C
:103AD0000220FEF729FEFEF707FE05460E460022ED
:103AE000534658462146FCF73AFC18B066F31E01CF
:103AF0002846BDE8F08D0220FEF716FEFEF7FCFD1D
:103B00000A46214618B062F31E01BDE8F08D00227E
:103B100030466146FCF71DFC80460E466FF0010200
:103B2000FCF722FE4FF05532394BFCF715FC4246AC
:103B30003346FCF714FC0022364BFCF70DFC8246A2
:103B400042463346049110461946FCF708FC52469B
:103B5000049BFCF704FC8A4600904FF0C0422E4BB9
:103B600040463146FCF7FBFB2C4A2B4B00E027E09C
:103B7000CDE9060151460098FCF7F1FB8246019120
:103B8000274A284B40463146FCF7E9FB5246019B49
:103B9000FCF7DFFB82460B4602460591DDE9060194
:103BA000FCF736FBDDE90623002688463046FCF7A5
:103BB000D0FB5246059BFCF7CFFB024600F07EB9D6
:103BC0000020B1F5801F07DA352230466146FCF748
:103BD000CBFD06466FF0340000EB215024E00000DE
:103BE000FFFF1F00FFFF0F000000F03F0000F07F0D
:103BF0000000404301FCFFFF0A8502000000F0FFC7
:103C00000000F0BF0000E0410000F043FFFFEF3F85
:103C10005555D53F0000E03F4715F73FFE822B6525
:103C200044DF5DF80BAE543EA0F2FF300190C1F3CB
:103C3000130040F07F6141F040510291FE498842FB
:103C4000D8BF002004DDFD498142C8BF012001DD4D
:103C50000D9008E000200D900198401C0190029802
:103C6000A0F5801002900299F54878440B910D99C7
:103C700000EBC100D0E900230F9330460A920B9964
:103C8000FCF767FBCDE90601DDE90A2130460F9B11
:103C9000FCF7BEFA02460B460020EA49FCF7F5FCA9
:103CA000059102460B460090DDE90601FCF757FB43
:103CB0001490E5488A464FF000087844029900685D
:103CC00012904FF0005040EA61010D980F9B01EBFC
:103CD000804000F5002109910A9A1298FCF739FBFF
:103CE00032460B9BFCF738FB42465346FCF737FB4A
:103CF0000646029140465146099B129AFCF72FFB5B
:103D0000DDE90623FCF728FB3246029BFCF721FB8A
:103D1000059B009AFCF723FB0091149A04905346EC
:103D200010461946FCF71BFB06460246C7480B46E1
:103D3000029106217844FEF771FCCDE90510029B43
:103D4000324610461946FCF70AFBDDE90532FCF75E
:103D500006FB05910646534640461946149AFCF761
:103D600057FA009B049AFCF7FAFA3246059BFCF7D7
:103D70004FFACDE905104246534610461946FCF766
:103D8000EEFA0022B24B02910A90FCF741FADDE90B
:103D90000532FCF73DFA0E464246AD4B4046FCF775
:103DA000D8FA029B0A9AFCF7D4FADDE90532FCF74F
:103DB000D3FA424602910A90334610465146FCF728
:103DC000CEFACDE906015346149A02990A98FCF7F7
:103DD000C6FA8A4602903346424600990498FCF798
:103DE000BEFA5346029AFCF713FA82460B46024685
:103DF0000591DDE90601FCF70BFADDE90623002059
:103E000088460646FCF7A5FA5246059BFCF7A4FA3D
:103E1000824609914FF060428E4B30464146FCF796
:103E20009EFA049006918C4A8A4B50460999FCF7F9
:103E300096FA82460291894A894B30464146FCF700
:103E40008EFA5246029BFCF7E3F9864B7B440D9AAF
:103E500003EBC203D3E90023FCF7DAF90E900791D4
:103E60000198FCF7EEFA0591DDE9061382460E9AF9
:103E70000498FCF7CDF97C4A7A440D9B02EBC3030E
:103E8000D3E9002300930292FCF7C2F95246059B46
:103E9000FCF7BEF90026884652463046059BFCF7E3
:103EA00058FA009B029AFCF754FA069B049AFCF716
:103EB00050FA079B0E9AFCF74FFA024600200B4679
:103EC000029038462946FCF74AFA824601912B4671
:103ED00038461946029AFCF73CFA32464346FCF74C
:103EE0003EFA5246019BFCF793F907468A46324652
:103EF000434629460298FCF732FA05460E463A46F2
:103F00005346FCF785F9594A8846914221DBA8EBD4
:103F1000020353EA000210D12A463346FCF719FA8D
:103F2000CDE90401524A534B38465146FCF770F92B
:103F3000DDE90423FCF7BCFA21D20220FEF7F4FBF2
:103F4000FEF7D2FB0A46214618B062F31E01BDE817
:103F5000F08D494B28F000429A4210D3474A08EBB3
:103F6000020353EA00027FF4C6AD2A463346FCF74B
:103F7000F0F93A465346FCF79BFA7FF6BCAD0022B7
:103F8000019228F000403E493E4A01EB2051824216
:103F900023DA481C4FF4801121FA00F040443A4AD9
:103FA000C0F30A517A44394BA1F2FF31CB4020EAE9
:103FB0000303C0F3130040F48010C1F11401C840A2
:103FC00012680190B8F1000FBCBF40420190284632
:103FD0003146FCF7BEF905460E462A4633463846BA
:103FE0005146FCF715F94FF000084246284B404671
:103FF0000591FCF7B4F9CDE90601264A264B404667
:104000000599FCF7ACF9009102902A4633464046E8
:104010000599FCF79EF93A465346FCF79DF91F4A6D
:104020001F4BFCF79CF9009B029AFCF7F1F807463E
:10403000884602460B4635E08E9803007AB60B00A0
:10404000528102000000F03F8A810200B880020025
:104050000000084009C7EE3FFD033ADCF5015B14A0
:10406000E02F3EBE907F0200547F0200000090408F
:10407000FE822B654715973C00CC904000346F3F83
:1040800001FCFFFF0000E03FA07E0200FFFF0F00E9
:10409000432EE63F396CA80C615C20BEEF39FAFE76
:1040A000422EE63FDDE90601FCF7B2F8DDE9062322
:1040B00005460E46FCF74DF93A464346FCF74CF9E7
:1040C0000F462A463346009010461946FCF747F93A
:1040D000824602462E4888460B4605217844FEF764
:1040E0009DFA52464346FCF73AF92A463346FCF716
:1040F00033F980468A463B4628463146009AFCF70B
:104100002EF93B46009AFCF783F8069100900022B6
:104110004FF0804340465146FCF71BF90F460C9088
:104120004246534628463146FCF719F93B460C9A5D
:10413000FCF7ABFA069B009AFCF70BF92A463346CC
:10414000FCF707F90022134BFCF706F90546019826
:104150000E4601EB00510815002810DC28463146B8
:10416000019AFCF701FBFEF745FA042808BFFEF7A9
:10417000C3FA28463146019AFCF7F6FA05460B4683
:1041800018B02A4658462146BDE8F04DFCF7E7B87E
:10419000407D02000000F03F2DE9F34F93B00E4642
:1041A0004FF0000900250027A846AA460024304603
:1041B000FCF710F8834600BF5FE0BAF1080F57D252
:1041C000DFE80AF0040E18232D38424C002404E0E6
:1041D000002001A90855601CC4B2142CF8DB47E08C
:1041E000002404E0002106A80155601CC4B20A2C7A
:1041F000F8DB3DE0002405E000210DF1360001551B
:10420000601CC4B20A2CF7DB32E0002404E0002179
:104210000BA80155601CC4B20A2CF8DB28E000246E
:1042200005E000210DF122000155601CC4B20A2CEA
:10423000F7DB1DE0002404E0002110A80155601CFC
:10424000C4B20A2CF8DB13E0002404E000203B4950
:104250000855601CC4B20A2CF8DB09E0002404E015
:10426000002037490855601CC4B20A2CF8DB00BF97
:1042700000BF0AF1010000F0FF0ABAF1080F9CDB51
:1042800030A106A8FBF7BBFF4FF000094CE016F881
:1042900009002C2844D1781CC7B245463AE0012FCA
:1042A00005D1705DA5EB080101AA505430E0022F42
:1042B00006D1715DA5EB08020DF12200815427E0C3
:1042C000032F05D1715DA5EB08020BA881541FE0F7
:1042D000042F06D1715DA5EB08020DF13600815463
:1042E00016E0052F05D1715DA5EB080210A88154D9
:1042F0000EE0062F05D1705DA5EB0801104A505461
:1043000006E0072F04D1705DA5EB08010B4A50545D
:10431000681CC5B24D45C2DB09F1010000F0FF0881
:1043200009F1010000F0FF09D945B0DB462201A9DF
:104330001398FBF719FF15B0BDE8F08F3E08002079
:1043400048080020CEF7B0B20000000010B54820A9
:10435000FDF792FB4FF4A060FDF74CFAFDF77AF9F8
:104360004FF4E130FDF7E4FE48F6A0414FF47A70D7
:10437000FDF7E2FD10BD70472DE9F04106460F46FE
:10438000FCF734FA041E0D4618BF0120284320F024
:104390000040C0F17F6000F1E040C00F0ED0301C43
:1043A00018BF0120384320F00040C0F17F6000F1C9
:1043B000E040C00F04BF0120FEF7B6F920462946B1
:1043C000BDE8F0812DE9F04F89B081464FF0000B38
:1043D0000024002008904846FBF7FCFE00F0FF0A8E
:1043E00000BF38E019F804002F2801DD012000E0AB
:1043F00000203A282DDA19F80400303800F0FF0BBD
:10440000AAF10101081BFCF71CF802460B46CDE996
:10441000000100201349FFF7D3F9074688465846A4
:10442000FCF720F83A464346CDE90201FBF797FF37
:1044300005460E460898FCF715F82A463346CDE99E
:104440000401FBF7E5FECDE90601FCF718F8C0B260
:104450000890601CC4B25445C4DB089809B0BDE89C
:10446000F08F000000002440000000000000000069
:10447000000000000000000000000000000000003C
:10448000000000000000000000000000000000002C
:10449000000000000000000000000000000000001C
:1044A000000000000000000000000000000000000C
:1044B00000000000000000000000000000000000FC
:1044C00000000000000000000000000000000000EC
:1044D00000000000000000000000000000000000DC
:1044E00000000000000000000000000000000000CC
:1044F00000000000000000000000000000000000BC
:1045000000000000000000000000000000000000AB
:10451000000000000000000000000000000000009B
:10452000000000000000000000000000000000008B
:10453000000000000000000000000000000000007B
:10454000000000000000000000000000000000006B
:10455000000000000000000000000000000000005B
:10456000000000000000000000000000000000004B
:10457000000000000000000000000000000000003B
:10458000000000000000000000000000000000002B
:10459000000000000000000000000000000000001B
:1045A000000000000000000000000000000000000B
:1045B00000000000000000000000000000000000FB
:1045C0000000000000000000000000000000DA23EE
:1045D000BA239923DA23FB23FC2BFC2B1C2C1C2C49
:1045E0001C2C1C2C1C2C1C2C1C2C1C2C1C2C1C2C8B
:1045F0001C2C1C2C1C2C1C2C1C2C1C2C1C2C1C2C7B
:104600001C2C1C2CFC2BFC2BFB23DA23B923BA23F8
:10461000DA2300000000000000000000000000009D
:10462000000000000000000000000000000000008A
:1046300000000000000000000000DA23DB231C2C37
:104640003D2C5D2C5D2C5D2C5D2C5D2C5D2C5D2C42
:104650005D2C5D2C5D2C5D2C5D2C5D2C5D2C5D2C12
:104660005D2C5D2C5D2C5D2C5D2C5D2C5D2C5D2C02
:104670005D2C5D2C5D2C5D2C5D2C5D2C5D2C3D2C12
:104680001C2CDB23DA2300000000000000000000E7
:10469000000000000000000000000000000000001A
:1046A000000000000000BA23BA233D2C3D2C5D2CF5
:1046B0003D2C3D2C5D2C3D2C5D2C3D2C5D2C3D2C52
:1046C0003D2C5D2C3D2C5D2C3D2C5D2C3D2C3D2C42
:1046D0005D2C3D2C5D2C3D2C5D2C3D2C5D2C3D2C12
:1046E0003D2C5D2C3D2C5D2C3D2C5D2C3D2C3D2C22
:1046F0005D2C3D2C3D2CDB23DA2300000000000064
:1047000000000000000000000000000000000000A9
:10471000000000009923FB235D2C5D2C3D2C5D2CBB
:104720003D2C3D2C5D2C3D2C5D2C3D2C5D2C3D2CE1
:104730003D2C5D2C3D2C5D2C3D2C5D2C3D2C3D2CD1
:104740005D2C3D2C5D2C3D2C5D2C3D2C5D2C3D2CA1
:104750003D2C5D2C3D2C5D2C3D2C5D2C3D2C3D2CB1
:104760005D2C3D2C5D2C5D2CFB239923000000006B
:104770000000000000000000000000000000000039
:104780000000BA23FB2B5D2C5D2C5D2C5D2C5D2C79
:104790005D2C5D2C5D2C5D2C5D2C5D2C5D2C5D2CD1
:1047A0005D2C5D2C5D2C5D2C5D2C5D2C5D2C5D2CC1
:1047B0005D2C5D2C5D2C5D2C5D2C5D2C5D2C5D2CB1
:1047C0005D2C5D2C5D2C5D2C5D2C5D2C5D2C5D2CA1
:1047D0005D2C5D2C5D2C5D2C5D2CFB2BDA23000009
:1047E00000000000000000000000000000000000C9
:1047F0000000BA235D2C5D2C3D2C5D2C3D2C5D2CE6
:104800003D2C3D2C5D2C3D2C5D2C3D2C5D2C3D2C00
:104810003D2C5D2C3D2C5D2C3D2C5D2C3D2C3D2CF0
:104820005D2C3D2C5D2C3D2C5D2C3D2C5D2C3D2CC0
:104830003D2C5D2C3D2C5D2C3D2C5D2C3D2C3D2CD0
:104840005D2C3D2C5D2C3D2C5D2C5D2CBA23000095
:104850000000000000000000000000000000000058
:10486000BA233D2C5D2C5D2C5D2C5D2C5D2C5D2CCC
:104870005D2C5D2C5D2C5D2C5D2C5D2C5D2C5D2CF0
:104880005D2C5D2C5D2C5D2C5D2C5D2C5D2C5D2CE0
:104890005D2C5D2C5D2C5D2C5D2C5D2C5D2C5D2CD0
:1048A0005D2C5D2C5D2C5D2C5D2C5D2C5D2C5D2CC0
:1048B0005D2C5D2C5D2C5D2C5D2C5D2C3D2CDA235C
:1048C00000000000000000000000000000000000E8
:1048D000DB233D2C3D2C5D2C3D2C5D2C3D2C5D2C9B
:1048E0003D2C3D2C5D2C3D2C5D2C3D2C5D2C3D2C20
:1048F0003D2C5D2C3D2C5D2C3D2C5D2C3D2C3D2C10
:104900005D2C3D2C5D2C3D2C5D2C3D2C5D2C3D2CDF
:104910003D2C5D2C3D2C5D2C3D2C5D2C3D2C3D2CEF
:104920005D2C3D2C5D2C3D2C5D2C3D2C3D2CDB234A
:104930000000000000000000000000000000DA237A
:104940001C2C5D2C5D2C5D2C5D2C5D2C5D2C5D2C60
:104950005D2C5D2C5D2C5D2C5D2C5D2C5D2C5D2C0F
:104960005D2C5D2C5D2C5D2C5D2C5D2C5D2C5D2CFF
:104970005D2C5D2C5D2C5D2C5D2C5D2C5D2C5D2CEF
:104980005D2C5D2C5D2C5D2C5D2C5D2C5D2C5D2CDF
:104990005D2C5D2C5D2C5D2C5D2C5D2C5D2C1C2C10
:1049A000DB23000000000000000000000000BA232C
:1049B0003D2C3D2C3D2C5D2C3D2C5D2C3D2C5D2C4F
:1049C0003D2C3D2C5D2C3D2C5D2C3D2C5D2C3D2C3F
:1049D0003D2C5D2C3D2C5D2C3D2C5D2C3D2C3D2C2F
:1049E0005D2C3D2C5D2C3D2C5D2C5D2C9E3C5E6534
:1049F000DE85FE8DDE853E655D343D2C3D2C3D2CF7
:104A00005D2C3D2C5D2C3D2C5D2C3D2C3D2C3D2CFE
:104A1000DA23000000000000000000000000B923BD
:104A20005D2C3D2C3D2C5D2C3D2C5D2C3D2C5D2CBE
:104A30003D2C3D2C5D2C3D2C5D2C3D2C5D2C3D2CCE
:104A40003D2C5D2C3D2C5D2C3D2C5D2C3D2C3D2CBE
:104A50005D2C3D2C3D2C9E3CFE8D1FCFDFF7FFFFD4
:104A6000FFFFFFFFFFFFFFFF7FE73E653D2C3D2C73
:104A70005D2C3D2C5D2C3D2C5D2C3D2C3D2C5D2C6E
:104A8000B923000000000000000000000000DA234D
:104A90005D2C5D2C5D2C5D2C5D2C5D2C5D2C5D2CCE
:104AA0005D2C5D2C5D2C5D2C5D2C5D2C5D2C5D2CBE
:104AB0005D2C5D2C5D2C5D2C3D2C7D341E55BE7D0A
:104AC0001E8E1E96BFB6FFFFFFFFFFFFFFFF5FDFDB
:104AD0003E9E5E65FE543E65BFB6DFF7BE445D2C6C
:104AE0005D2C5D2C5D2C5D2C5D2C5D2C5D2C5D2C7E
:104AF000DA23000000000000000000000000FB239B
:104B00005D2C3D2C3D2C5D2C3D2C5D2C3D2C5D2CDD
:104B10003D2C3D2C5D2C3D2C5D2C3D2C5D2C3D2CED
:104B20003D2C5D2C5D2CFE549FAEBFEFFFFFFFFFC1
:104B3000FFFFFFFFFFFFFFFFFFFFFFFF3FD79E4489
:104B40003D2C5D2C3D2C5D2C5D2C7FA61E8E3D2CBE
:104B50005D2C3D2C5D2C3D2C5D2C3D2C3D2C5D2C8D
:104B6000FB23000000000000000000000000FB2B01
:104B70005D2C5D2C5D2C5D2C5D2C5D2C5D2C5D2CED
:104B80005D2C5D2C5D2C5D2C5D2C5D2C5D2C5D2CDD
:104B90005D2CBE44BFB6FFFFFFFFFFFFFFFFFFFF1F
:104BA000FFFFFFFFFFFFFFFFFFFFFFFFFFFFBFF75D
:104BB0001E8E5D345D2C5D2C5D2CDE4C7FAE5D2C3D
:104BC0005D2C5D2C5D2C5D2C5D2C5D2C5D2C5D2C9D
:104BD000FB2B000000000000000000000000FB2B89
:104BE0005D2C3D2C3D2C5D2C3D2C5D2C3D2C5D2CFD
:104BF0003D2C3D2C5D2C3D2C5D2C3D2C5D2C3D2C0D
:104C00005E65BFEFFFFFFFFFFFFFFFFFFFFFFFFF3F
:104C1000FFFFFFFFFFFFFFFFFFFFFFFFFFFFFFFFA4
:104C2000FFFF1FCFBE445D2C3D2C9E3C5EA63D2C5D
:104C30005D2C3D2C5D2C3D2C5D2C3D2C3D2C5D2CAC
:104C4000FC2B000000000000000000000000FC2B16
:104C50005D2C5D2C5D2C5D2C5D2C5D2C5D2C5D2C0C
:104C60005D2C5D2C5D2C5D2C5D2C5D2C3D2C9E7592
:104C7000DFFFFFFFFFFFFFFFFFFFFFFFFFFFFFFF64
:104C8000FFFFFFFFFFFFFFFFFFFFFFFFFFFFFFFF34
:104C9000FFFFFFFF7FE7BE445D2CFE54BE7D5D2C11
:104CA0005D2C5D2C5D2C5D2C5D2C5D2C5D2C5D2CBC
:104CB0001C2C000000000000000000000000FC2B85
:104CC0005D2C3D2C3D2C5D2C3D2C5D2C3D2C5D2C1C
:104CD0003D2C3D2C5D2C3D2C5D2C3D2C5E65DFFF7D
:104CE000FFFFBFEF1FCFFFFFFFFFFFFFFFFFFFFF34
:104CF000FFFFFFFFFFFFFFFFFFFFFFFFFFFFFFFFC4
:104D0000FFFFFFFFFFFF7FDF9E3CDE85BE443D2CA3
:104D10005D2C3D2C5D2C3D2C5D2C3D2C3D2C5D2CCB
:104D20001C2C000000000000000000000000FC2B14
:104D30005D2C3D2C3D2C5D2C3D2C5D2C3D2C5D2CAB
:104D40003D2C3D2C5D2C3D2C5D2C9E3C9FEFFFFFB0
:104D5000FFC69E75DFF7FFFFFFFFFFFFFFFF7FE747
:104D60009FB65FA6BFB67FE7FFFFFFFFFFFFFFFF16
:104D7000FFFFFFFFFFFFFFFFBFBE5E9E3D2C3D2CF0
:104D80005D2C3D2C5D2C3D2C5D2C3D2C3D2C5D2C5B
:104D90001C2C000000000000000000000000FC2BA4
:104DA0005D2C5D2C5D2C5D2C5D2C5D2C5D2C5D2CBB
:104DB0005D2C5D2C5D2C5D2C3D2C9FAEFFFF5E9E1F
:104DC0001E5DDFF7FFFFFFFFFFFF7FE75E6D5D2CDE
:104DD0005D2C5D2C5D2C5D2C5E6D7FE7FFFFFFFF82
:104DE000FFFFFFFFFFFFFFFFFFFFFE8D5D2C5D2C30
:104DF0005D2C5D2C5D2C5D2C5D2C5D2C5D2C5D2C6B
:104E00001C2C000000000000000000000000FC2B33
:104E10005D2C3D2C3D2C5D2C3D2C5D2C3D2C5D2CCA
:104E20003D2C3D2C5D2C3D2CDE4CDFF7FE8DDE4C09
:104E30009FEFFFFFFFFFFFFF5FD79E3C3D2C3D2C08
:104E40005D2C3D2C5D2C3D2C5D2C9E3C5FD7FFFFE7
:104E5000FFFFFFFFFFFFFFFFFFFF5FD75D2C3D2C34
:104E60005D2C3D2C5D2C3D2C5D2C3D2C3D2C5D2C7A
:104E70001C2C000000000000000000000000FC2BC3
:104E80005D2C5D2C5D2C5D2C5D2C5D2C5D2C5D2CDA
:104E90005D2C5D2C5D2C3D2C3E9EDE857D345FD7E8
:104EA000FFFFFFFFFFFFDFF7DE4C5D2C5D2C5D2C6D
:104EB0005D2C5D2C5D2C5D2C5D2C5D2CDE4CDFFFB4
:104EC000FFFFFFFFFFFFFFFFFFFFFFFF1E5D5D2CEA
:104ED0005D2C5D2C5D2C5D2C5D2C5D2C5D2C5D2C8A
:104EE0001C2C000000000000000000000000FC2B53
:104EF0005D2C3D2C3D2C5D2C3D2C5D2C3D2C5D2CEA
:104F00003D2C3D2C5D2C5D2C9E755D2C9FB6FFFFCE
:104F1000FFFFFFFFFFFF9FAE3D2C5D2C3D2C3D2C86
:104F20005D2C3D2C5D2C3D2C5D2C3D2C3D2C9FB6ED
:104F3000FFFFFFFFFFFFFFFFFFFFFFFF5E9E3D2C18
:104F40005D2C3D2C5D2C3D2C5D2C3D2C3D2C5D2C99
:104F50001C2C000000000000000000000000FC2BE2
:104F60005D2C5D2C5D2C5D2C5D2C5D2C5D2C5D2CF9
:104F70005D2C5D2C5D2C5D2C5D2C9E7DFFFFFFFF6D
:104F8000FFFFFFFFFFFF9E753D2C3D2C3D2C3D2C70
:104F90003D2C3D2C3D2C3D2C3D2C3D2C3D2C9E7D17
:104FA000FFFFFFFFFFFFFFFFFFFFFFFF3FD75D2C6E
:104FB0005D2C5D2C5D2C5D2C5D2C5D2C5D2C5D2CA9
:104FC0001C2C000000000000000000000000FC2B72
:104FD0005D2C3D2C3D2C5D2C3D2C5D2C3D2C5D2C09
:104FE0003D2C3D2C5D2C3D2CBE44BFEFFFFFFFFF51
:104FF000FFFFFFFFFFFF5FDF1FCF1FCF1FCF1FCFC1
:105000001FCF1FCF1FCF1FCF1FCF1FCF1FCF5FDFE0
:10501000FFFFFFFFFFFFFFFFFFFFFFFFBFEF5D345D
:105020005D2C3D2C5D2C3D2C5D2C3D2C3D2C5D2CB8
:105030001C2C000000000000000000000000FC2B01
:105040005D2C5D2C5D2C5D2C5D2C5D2C5D2C5D2C18
:105050005D2C5D2C5D2C5D2CDFBEFFFFFFFFFFFF95
:10506000FFFFFFFFFFFFFFFFFFFFFFFFFFFFFFFF50
:10507000FFFFFFFFFFFFFFFFFFFFFFFFFFFFFFFF40
:10508000FFFFFFFFFFFFFFFFFFFFFFFFDFFF9E3C74
:105090005D2C5D2C5D2C5D2C5D2C5D2C5D2C5D2CC8
:1050A0001C2C000000000000000000000000FC2B91
:1050B0005D2C3D2C3D2C5D2C3D2C5D2C3D2C5D2C28
:1050C0003D2C3D2C5D2C5E6DFFFFFFFFFFFFFFFFC2
:1050D000FFFFFFFFFFFFFFFFFFFFFFFFFFFFFFFFE0
:1050E000FFFFFFFFFFFFFFFFFFFFFFFFFFFFFFFFD0
:1050F000FFFFFFFFFFFFFFFFFFFFFFFFFFFF9E3CE4
:105100005D2C3D2C5D2C3D2C5D2C3D2C3D2C5D2CD7
:105110001C2C000000000000000000000000FC2B20
:105120005D2C3D2C3D2C5D2C3D2C5D2C3D2C5D2CB7
:105130003D2C3D2C5D345FDFFFFFFFFFFFFFFFFFD6
:10514000FFFFFFFFFFFFFFFFDFF7DFF7DFF7DFF70F
:10515000DFF7DFF7DFF7DFF7DFF7DFF7DFF7DFF79F
:10516000DFF7DFF7DFF7DFF7DFF7DFF7BFEF7D34DC
:105170005D2C3D2C5D2C3D2C5D2C3D2C3D2C5D2C67
:105180001C2C000000000000000000000000FC2BB0
:105190005D2C5D2C5D2C5D2C5D2C5D2C5D2C5D2CC7
:1051A0005D2C5D2CBE85FFFFFFFFFFFFFFFFFFFFB4
:1051B000FFFFFFFFFFFF9E755D345D345D345D349E
:1051C0005D345D345D345D345D345D345D345D3457
:1051D0005D345D345D345D345D345D345D2C5D2C57
:1051E0005D2C5D2C5D2C5D2C5D2C5D2C5D2C5D2C77
:1051F0001C2C000000000000000000000000FC2B40
:105200005D2C3D2C3D2C5D2C3D2C5D2C3D2C5D2CD6
:105210003D2C5D349FE7FFFFFFFFFFFFFFFFFFFF18
:10522000FFFFFFFFFFFF1E963D2C5D2C3D2C3D2C0C
:105230005D2C3D2C5D2C3D2C5D2C3D2C5D2C3D2CA6
:105240003D2C5D2C3D2C5D2C3D2C5D2C3D2C3D2CB6
:105250005D2C3D2C5D2C3D2C5D2C3D2C3D2C5D2C86
:105260001C2C000000000000000000000000FC2BCF
:105270005D2C5D2C5D2C5D2C5D2C5D2C5D2C5D2CE6
:105280005D2C9E75FFFFFFFFDFF7FFFFFFFFFFFFB6
:10529000FFFFFFFFFFFF7FE75D345D2C5D2C5D2C82
:1052A0005D2C5D2C5D2C5D2C5D2C5D2C5D2CDE4C15
:1052B000DE4CDE4CDE4CDE4CDE4CDE4C7D345D2CB8
:1052C0005D2C5D2C5D2C5D2C5D2C5D2C5D2C5D2C96
:1052D0001C2C000000000000000000000000FC2B5F
:1052E0005D2C3D2C3D2C5D2C3D2C5D2C3D2C5D2CF6
:1052F0003D2C1FCFFFFFBFEF9E7DFFFFFFFFFFFF96
:10530000FFFFFFFFFFFFFFFF3E9E5D2C3D2C3D2C6E
:105310005D2C3D2C5D2C3D2C5D2C3D2CBE7DFFFF7E
:10532000FFFFFFFFFFFFFFFFFFFFDFF77D3C3D2C8F
:105330005D2C3D2C5D2C3D2C5D2C3D2C3D2C5D2CA5
:105340001C2C000000000000000000000000FC2BEE
:105350005D2C5D2C5D2C5D2C5D2C5D2C5D2C5D2C05
:105360007D3CDFF7FFFF5E9E5D345FDFFFFFFFFFE9
:10537000FFFFFFFFFFFFFFFFFFFF3E9E5D345D2C41
:105380005D2C5D2C5D2C5D2C5D2CDE85DFFFFFFF31
:10539000FFFFFFFFFFFFFFFFFFFF5E9E3D2C5D2C29
:1053A0005D2C5D2C5D2C5D2C5D2C5D2C5D2C5D2CB5
:1053B0001C2C000000000000000000000000FC2B7E
:1053C0005D2C3D2C3D2C5D2C3D2C5D2C3D2C5D2C15
:1053D0001E5DFFFFFFFFFE545D2C5E6DFFFFFFFFB4
:1053E000FFFFFFFFFFFFFFFFFFFFFFFF7FE7FE8DD8
:1053F0001E5DBE44FE54BE7D3FD7FFFFFFFFFFFF93
:10540000FFFFFFFFFFFFFFFF9FE79E3C3D2C3D2C72
:105410005D2C3D2C5D2C3D2C5D2C3D2C3D2C5D2CC4
:105420001C2C000000000000000000000000FC2B0D
:105430005D2C3D2C3D2C5D2C3D2C5D2C3D2C5D2CA4
:10544000BE7DFFFF9FE75D345D2C5D2C7FA6FFFFD7
:10545000FFFFFFFFFFFFFFFFFFFFFFFFFFFFFFFF5C
:10546000FFFFFFFFFFFFFFFFFFFFFFFFFFFFFFFF4C
:10547000FFFFFFFFFFFFFFFF5E6D3D2C3D2C3D2C2E
:105480005D2C3D2C5D2C3D2C5D2C3D2C3D2C5D2C54
:105490001C2C000000000000000000000000FC2B9D
:1054A0005D2C5D2C5D2C5D2C5D2C5D2C5D2C5D2CB4
:1054B000FE8DFFFFFFC63D2C5D2C5D2C5D34FFC6CD
:1054C000FFFFFFFFFFFFFFFFFFFFFFFFFFFFFFFFEC
:1054D000FFFFFFFFFFFFFFFFFFFFFFFFFFFFFFFFDC
:1054E000FFFFFFFFFFFFFE8D5D2C5D2C5D2C5D2C13
:1054F0005D2C5D2C5D2C5D2C5D2C5D2C5D2C5D2C64
:105500001C2C000000000000000000000000FB2B2D
:105510005D2C3D2C3D2C5D2C3D2C5D2C3D2C5D2CC3
:10552000FE8DFFFFBFB63D2C5D2C3D2C5D2C7D34E8
:10553000DFBEFFFFFFFFFFFFFFFFFFFFFFFFFFFFDC
:10554000FFFFFFFFFFFFFFFFFFFFFFFFFFFFFFFF6B
:10555000FFFFFFFFDE8D5D2C3D2C5D2C3D2C3D2C97
:105560005D2C3D2C5D2C3D2C5D2C3D2C3D2C5D2C73
:10557000FC2B000000000000000000000000FB2BDE
:105580005D2C5D2C5D2C5D2C5D2C5D2C5D2C5D2CD3
:105590009E75FFFF3FD75D2C5D2C5D2C5D2C5D2C37
:1055A0005D2C1E96DFF7FFFFFFFFFFFFFFFFFFFFF2
:1055B000FFFFFFFFFFFFFFFFFFFFFFFFFFFFFFFFFB
:1055C0009FE75E653D2C5D2C5D2C5D2C5D2C5D2C7C
:1055D0005D2C5D2C5D2C5D2C5D2C5D2C5D2C5D2C83
:1055E000FB2B000000000000000000000000FB2377
:1055F0005D2C3D2C3D2C5D2C3D2C5D2C3D2C5D2CE3
:105600009E3CBFF7FFFF9E755D2C3D2C3D2C3D2C35
:105610009E441E963FD7DFBEDFF7FFFFFFFFFFFF71
:10562000FFFFFFFFFFFFFFFFFFFFFFFF9FEF1E9644
:105630007D345D2C3D2C5D2C3D2C5D2C3D2C3D2C7A
:105640005D2C3D2C5D2C3D2C5D2C3D2C3D2C5D2C92
:10565000FB23000000000000000000000000DA232F
:105660005D2C5D2C5D2C5D2C5D2C5D2C5D2C5D2CF2
:105670003D2C9E75DFFFFFFFFFC63E9E5EA6FFC668
:10568000DFBE7E755D343D2CBE44BE7DBFB65FDFA0
:10569000BFEFBFF79FEF3FD77FA65E6D7D343D2CF8
:1056A0005D2C5D2C5D2C5D2C5D2C5D2C5D2C5D2CB2
:1056B0005D2C5D2C5D2C5D2C5D2C5D2C5D2C5D2CA2
:1056C000DA23000000000000000000000000B92301
:1056D0005D2C3D2C3D2C5D2C3D2C5D2C3D2C5D2C02
:1056E0003D2C3D2CBE44DE853E9EFE8D5E6D7D3C98
:1056F0003D2C5D2C3D2C5D2C3D2C5D2C3D2C3D2C02
:105700003D2C3D2C3D2C3D2C5D2C3D2C5D2C3D2C11
:105710003D2C5D2C3D2C5D2C3D2C5D2C3D2C3D2CE1
:105720005D2C3D2C5D2C3D2C5D2C3D2C3D2C5D2CB1
:10573000B923000000000000000000000000BA23B0
:105740003D2C3D2C3D2C5D2C3D2C5D2C3D2C5D2CB1
:105750003D2C3D2C5D2C3D2C5D2C3D2C5D2C3D2CA1
:105760003D2C5D2C3D2C5D2C3D2C5D2C3D2C3D2C91
:105770005D2C3D2C5D2C3D2C5D2C3D2C5D2C3D2C61
:105780003D2C5D2C3D2C5D2C3D2C5D2C3D2C3D2C71
:105790005D2C3D2C5D2C3D2C5D2C3D2C3D2C3D2C61
:1057A000BA23000000000000000000000000DA231F
:1057B0001C2C5D2C5D2C5D2C5D2C5D2C5D2C5D2CE2
:1057C0005D2C5D2C5D2C5D2C5D2C5D2C5D2C5D2C91
:1057D0005D2C5D2C5D2C5D2C5D2C5D2C5D2C5D2C81
:1057E0005D2C5D2C5D2C5D2C5D2C5D2C5D2C5D2C71
:1057F0005D2C5D2C5D2C5D2C5D2C5D2C5D2C5D2C61
:105800005D2C5D2C5D2C5D2C5D2C5D2C5D2C1C2C91
:10581000DB2300000000000000000000000000008A
:10582000DB233D2C3D2C5D2C3D2C5D2C3D2C5D2C3B
:105830003D2C3D2C5D2C3D2C5D2C3D2C5D2C3D2CC0
:105840003D2C5D2C3D2C5D2C3D2C5D2C3D2C3D2CB0
:105850005D2C3D2C5D2C3D2C5D2C3D2C5D2C3D2C80
:105860003D2C5D2C3D2C5D2C3D2C5D2C3D2C3D2C90
:105870005D2C3D2C5D2C3D2C5D2C3D2C3D2CDB23EB
:105880000000000000000000000000000000000018
:10589000BA233D2C5D2C5D2C5D2C5D2C5D2C5D2C8C
:1058A0005D2C5D2C5D2C5D2C5D2C5D2C5D2C5D2CB0
:1058B0005D2C5D2C5D2C5D2C5D2C5D2C5D2C5D2CA0
:1058C0005D2C5D2C5D2C5D2C5D2C5D2C5D2C5D2C90
:1058D0005D2C5D2C5D2C5D2C5D2C5D2C5D2C5D2C80
:1058E0005D2C5D2C5D2C5D2C5D2C5D2C3D2CDA231C
:1058F00000000000000000000000000000000000A8
:105900000000BA235D2C5D2C3D2C5D2C3D2C5D2CC4
:105910003D2C3D2C5D2C3D2C5D2C3D2C5D2C3D2CDF
:105920003D2C5D2C3D2C5D2C3D2C5D2C3D2C3D2CCF
:105930005D2C3D2C5D2C3D2C5D2C3D2C5D2C3D2C9F
:105940003D2C5D2C3D2C5D2C3D2C5D2C3D2C3D2CAF
:105950005D2C3D2C5D2C3D2C5D2C5D2CBA23000074
:105960000000000000000000000000000000000037
:105970000000BA23FB2B5D2C5D2C5D2C5D2C5D2C77
:105980005D2C5D2C5D2C5D2C5D2C5D2C5D2C5D2CCF
:105990005D2C5D2C5D2C5D2C5D2C5D2C5D2C5D2CBF
:1059A0005D2C5D2C5D2C5D2C5D2C5D2C5D2C5D2CAF
:1059B0005D2C5D2C5D2C5D2C5D2C5D2C5D2C5D2C9F
:1059C0005D2C5D2C5D2C5D2C5D2CFB2BBA23000027
:1059D00000000000000000000000000000000000C7
:1059E000000000009923FB235D2C5D2C3D2C5D2CD9
:1059F0003D2C3D2C5D2C3D2C5D2C3D2C5D2C3D2CFF
:105A00003D2C5D2C3D2C5D2C3D2C5D2C3D2C3D2CEE
:105A10005D2C3D2C5D2C3D2C5D2C3D2C5D2C3D2CBE
:105A20003D2C5D2C3D2C5D2C3D2C5D2C3D2C3D2CCE
:105A30005D2C3D2C5D2C5D2CFB2399230000000088
:105A40000000000000000000000000000000000056
:105A5000000000000000BA23DA233D2C3D2C5D2C11
:105A60003D2C3D2C5D2C3D2C5D2C3D2C5D2C3D2C8E
:105A70003D2C5D2C3D2C5D2C3D2C5D2C3D2C3D2C7E
:105A80005D2C3D2C5D2C3D2C5D2C3D2C5D2C3D2C4E
:105A90003D2C5D2C3D2C5D2C3D2C5D2C3D2C3D2C5E
:105AA0005D2C3D2C3D2CBA23BA23000000000000E1
:105AB00000000000000000000000000000000000E6
:105AC00000000000000000000000BA23DB231C2CB3
:105AD0003D2C5D2C5D2C5D2C5D2C5D2C5D2C5D2C9E
:105AE0005D2C5D2C5D2C5D2C5D2C5D2C5D2C5D2C6E
:105AF0005D2C5D2C5D2C5D2C5D2C5D2C5D2C5D2C5E
:105B00005D2C5D2C5D2C5D2C5D2C5D2C5D2C3D2C6D
:105B10001C2CDB23BA230000000000000000000062
:105B20000000000000000000000000000000000075
:105B30000000000000000000000000000000DA2368
:105B4000BA239923DA23FB23FB2BFC2BFC2BFC2B06
:105B5000FC2BFC2BFC2BFC2BFC2BFC2BFC2BFC2B0D
:105B6000FC2BFC2BFC2BFC2BFC2BFC2BFC2BFC2BFD
:105B7000FC2BFC2BFC2BFB2BFB23DA23B923BA23B6
:105B8000DA23000000000000000000000000000018
:105B90000000000000000000000000000000000005
:105BA00000000000000000000000000000000000F5
:105BB00000000000000000000000000000000000E5
:105BC00000000000000000000000000000000000D5
:105BD00000000000000000000000000000000000C5
:105BE00000000000000000000000000000000000B5
:105BF00000000000000000000000000000000000A5
:105C00000000000000000000000000000000000094
:105C10000000000000000000000000000000000084
:105C20000000000000000000000000000000000074
:105C30000000000000000000000000000000000064
:105C40000000000000000000000000000000000054
:105C50000000000000000000000000000000000044
:105C60000000000000000000000000000000000034
:105C70000000000000000000000000000000000024
:105C80000000000000000000000000000000000014
:105C90000000000000000000000000000000000004
:105CA00000000000000000000000000000000000F4
:105CB00000000000000000000000000000000000E4
:105CC00000000000000000000000000000000000D4
:105CD00000000000000000000000000000000000C4
:105CE0000000000000000000FFFFFFFFFFFFFFFFBC
:105CF000FFFFFFFFFFFFFFFFFFFFFFFFFFFFFFFFB4
:105D0000FFFFFFFFFFFFFFFFFFFFFFFFFFFFFFFFA3
:105D1000FFFFFFFFFFFFFFFFFFFFFFFFFFFFFFFF93
:105D2000FFFFFFFFFFFFFFFFFFFFFFFFFFFFFFFF83
:105FB000FFFFFFFFFFFF6FF726EFB7FFFFFFFFFFBA
:105FC000FFFFFFFFFFFFFFFFFFFFFFFFFFFFFFFFE1
:105FD000FFFFFFFFFFFFFFFFFFFFFFFFFFFFFFFFD1
:105FE000FFFFFFFFFFFFFFFFFFFFFFFFFFFFFFFFC1
:105FF000FFFFFFFFFFFFFFFFFFFFFFFFFFFFFFFFB1
:10600000FFFFFFFFFFFFFFFFFFFFFFFFFFFFFFFFA0
:10601000FFFFFFFFFFFFFFFFFFFFFFFFFFFFFFFF90
:10602000FFFFFFFFFFFFFFFFFFFFFFFFFFFFFFFF80
:10603000FFFFFFFFFFFFFFFFFFFFFFFFFFFFFFFF70
:10604000FFFFFFFFFFFFFFFFFFFFFFFFFFFFFFFF60
:10605000FFFFFFFFFFFF04EF03EF6DF7FFFFFFFF01
:10606000FFFFFFFFFFFFFFFFFFFFFFFFFFFFFFFF40
:10607000FFFFFFFFFFFFFFFFFFFFFFFFFFFFFFFF30
:10608000FFFFFFFFFFFFFFFFFFFFFFFFFFFFFFFF20
:10609000FFFFFFFFFFFFFFFFFFFFFFFFFFFFFFFF10
:1060A000FFFFFFFFFFFFFFFFFFFFFFFFFFFFFFFF00
:1060B000FFFFFFFFFFFFFFFFFFFFFFFFFFFFFFFFF0
:1060C000FFFFFFFFFFFFFFFFFFFFFFFFFFFFFFFFE0
:1060D000FFFFFFFFFFFFFFFFFFFFFFFFFFFFFFFFD0
:1060E000FFFFFFFFFFFFFFFFFFFFFFFFFFFFFFFFC0
:1060F000FFFFFFFFFFFF27EF03EF6FF7FFFFFFFF3C
:10610000FFFFFFFFFFFFFFFFFFFFFFFFFFFFFFFF9F
:10611000FFFFFFFFFFFFFFFFFFFFFFFFFFFFFFFF8F
:10612000FFFFFFFFFFFFFFFFFFFFFFFFFFFFFFFF7F
:10613000FFFFFFFFFFFFFFFFFFFFFFFFFFFFFFFF6F
:10614000FFFFFFFFFFFFFFFFFFFFFFFFFFFFFFFF5F
:10615000FFFFFFFFFFFFFFFFFFFFFFFFFFFFFFFF4F
:10616000FFFFFFFFFFFFFFFFFFFFFFFFFFFFFFFF3F
:10617000FFFFFFFFFFFFFFFFFFFFFFFFFFFFFFFF2F
:10618000FFFFFFFFFFFFFFFFFFFFFFFFFFFFFFFF1F
:10619000FFFFFFFFFFFF27F703EF6FF7FFFFFFFF93
:1061A000FFFFFFFFFFFFFFFFFFFFFFFFFFFFFFFFFF
:1061B000FFFFFFFFFFFFFFFFFFFFFFFFFFFFFFFFEF
:1061C000FFFFFFFFFFFFFFFFFFFFFFFFFFFFFFFFDF
:1061D000FFFFFFFFFFFFFFFFFFFFFFFFFFFFFFFFCF
:1061E000FFFFFFFFFFFFFFFFFFFFFFFFFFFFFFFFBF
:1061F000FFFFFFFFFFFFFFFFFFFFFFFFFFFFFFFFAF
:10620000FFFFFFFFFFFFFFFFFFFFFFFFFFFFFFFF9E
:10621000FFFFFFFFB8FFDBFFFFFFFFFFFFFFFFFFF9
:10622000FFFFFFFFFFFFFFFFFFFFFFFFFFFFFFFF7E
:10623000FFFFFFFFFFFF27F703EF6FF7FFFFFFFFF2
:10624000FFFFFFFFFFFFFFFFFFFFFFFFFFFFFFFF5E
:10625000FFFFFFFFFFFFFFFFFFFFD8FFDAFFFFFF9A
:10626000FFFFFFFFFFFFFFFFFFFFFFFFFFFFFFFF3E
:10627000FFFFFFFFFFFFFFFFFFFFFFFFFFFFFFFF2E
:10628000FFFFFFFFFFFFFFFFFFFFFFFFFFFFFFFF1E
:10629000FFFFFFFFFFFFFFFFFFFFFFFFFFFFFFFF0E
:1062A000FFFFFFFFFFFFFFFFFFFFFFFFFFFFFFFFFE
:1062B000FFFF93F703EF04EFFEFFFFFFFFFFFFFF7A
:1062C000FFFFFFFFFFFFFFFFFFFFFFFFFFFFFFFFDE
:1062D000FFFFFFFFFFFF27F703EF6FF7FFFFFFFF52
:1062E000FFFFFFFFFFFFFFFFFFFFFFFFFFFFFFFFBE
:1062F000FFFFFFFFFFFFFFFFB8FF03EF03EFDBFF31
:10630000FFFFFFFFFFFFFFFFFFFFFFFFFFFFFFFF9D
:10631000FFFFFFFFFFFFFFFFFFFFFFFFFFFFFFFF8D
:10632000FFFFFFFFFFFFFFFFFFFFFFFFFFFFFFFF7D
:10633000FFFFFFFFFFFFFFFFFFFFFFFFFFFFFFFF6D
:10634000FFFFFFFFFFFFFFFFFFFFFFFFFFFFFFFF5D
:10635000FFFFB5FF03EF03EF6EF7FFFFFFFFFFFF48
:10636000FFFFFFFFFFFFFFFFFFFFFFFFFFFFFFFF3D
:10637000FFFFFFFFFFFF27F703EF6FF7FFFFFFFFB1
:10638000FFFFFFFFFFFFFFFFFFFFFFFFFFFFFFFF1D
:10639000FFFFFFFFFFFFFFFF26EF03EF03EFFCFF11
:1063A000FFFFFFFFFFFFFFFFFFFFFFFFFFFFFFFFFD
:1063B000FFFFFFFFFFFFFFFFFFFFFFFFFFFFFFFFED
:1063C000FFFFFFFFFFFFFFFFFFFFFFFFFFFFFFFFDD
:1063D000FFFFFFFFFFFFFFFFFFFFFFFFFFFFFFFFCD
:1063E000FFFFFFFFFFFFFFFFFFFFFFFFFFFFFFFFBD
:1063F000FFFFFFFF28F703EF03EFFCFFFFFFFFFFA7
:10640000FFFFFFFFFFFFFFFFFFFFFFFFFFFFFFFF9C
:10641000FFFFFFFFFFFF26EF03EF6EF7FFFFFFFF1A
:10642000FFFFFFFFFFFFFFFFFFFFFFFFFFFFFFFF7C
:10643000FFFFFFFFFFFF93F703EF03EF92F7FFFF6D
:10644000FFFFFFFFFFFFFFFFFFFFFFFFFFFFFFFF5C
:10645000FFFFFFFFFFFFFFFFFFFFFFFFFFFFFFFF4C
:10646000FFFFFFFFFFFFFFFFFFFFFFFFFFFFFFFF3C
:10647000FFFFFFFFFFFFFFFFFFFFFFFFFFFFFFFF2C
:10648000FFFFFFFFFFFFFFFFFFFFFFFFFFFFFFFF1C
:10649000FFFFFFFFDAFF03EF03EF4BF7FFFFFFFF05
:1064A000FFFFFFFFFFFFFFFFFFFFFFFFFFFFFFFFFC
:1064B000FFFFFFFFFFFF26EF03EF70F7FFFFFFFF78
:1064C000FFFFFFFFFFFFFFFFFFFFFFFFFFFFFFFFDC
:1064D000FFFFFFFFFFFF04EF03EF25EFFFFFFFFFCD
:1064E000FFFFFFFFFFFFFFFFFFFFFFFFFFFFFFFFBC
:1064F000FFFFFFFFFFFFFFFFFFFFFFFFFFFFFFFFAC
:10650000FFFFFFFFFFFFFFFFFFFFFFFFFFFFFFFF9B
:10651000FFFFFFFFFFFFFFFFFFFFFFFFFFFFFFFF8B
:10652000FFFFFFFFFFFFFFFFFFFFFFFFFFFFFFFF7B
:10653000FFFFFFFFFFFF6FF703EF03EFD8FFFFFF42
:10654000FFFFFFFFFFFFFFFFFFFFFFFFFFFFFFFF5B
:10655000FFFFFFFFFFFFD9FF92F7FDFFFFFFFFFFE8
:10656000FFFFFFFFFFFFFFFFFFFFFFFFFFFFFFFF3B
:10657000FFFFFFFF6EF703EF03EFB7FFFFFFFFFF24
:10658000FFFFFFFFFFFFFFFFFFFFFFFFFFFFFFFF1B
:10659000FFFFFFFFFFFFFFFFFFFFFFFFFFFFFFFF0B
:1065A000FFFFFFFFFFFFFFFFFFFFFFFFFFFFFFFFFB
:1065B000FFFFFFFFFFFFFFFFFFFFFFFFFFFFFFFFEB
:1065C000FFFFFFFFFFFFFFFFFFFFFFFFFFFFFFFFDB
:1065D000FFFFFFFFFFFFFFFF04EF03EF25EFFFFFCC
:1065E000FFFFFFFFFFFFFFFFFFFFFFFFFFFFFFFFBB
:1065F000FFFFFFFFFFFFFFFFFFFFFFFFFFFFFFFFAB
:10660000FFFFFFFFFFFFFFFFFFFFFFFFFFFFFFFF9A
:10661000FFFFDBFF03EF03EF4BF7FFFFFFFFFFFF82
:10662000FFFFFFFFFFFFFFFFFFFFFFFFFFFFFFFF7A
:10663000FFFFFFFFFFFFFFFFFFFFFFFFFFFFFFFF6A
:10664000FFFFFFFFFFFFFFFFFFFFFFFFFFFFFFFF5A
:10665000FFFFFFFFFFFFFFFFFFFFFFFFFFFFFFFF4A
:10666000FFFFFFFFFFFFFFFFFFFFFFFFFFFFFFFF3A
:10667000FFFFFFFFFFFFFFFF93F703EF03EF90F72D
:10668000FFFFFFFFFFFFFFFFFFFFFFFFFFFFFFFF1A
:10669000FFFFFFFFFFFFFFFFFFFFFFFFFFFFFFFF0A
:1066A000FFFFFFFFFFFFFFFFFFFFFFFFFFFFFFFFFA
:1066B000FFFF28F703EF03EFDCFFFFFFFFFFFFFF04
:1066C000FFFFFFFFFFFFFFFFFFFFFFFFFFFFFFFFDA
:1066D000FFFFFFFFFFFFFFFFFFFFFFFFFFFFFFFFCA
:1066E000FFFFFFFFFFFFFFFFFFFFFFFFFFFFFFFFBA
:1066F000FFFFFFFFFFFFFFFFFFFFFFFFFFFFFFFFAA
:10670000FFFFFFFFFFFFFFFFFFFFFFFFFFFFFFFF99
:10671000FFFFFFFFFFFFFFFFFFFF27EF03EF91F7F3
:10672000FFFFFFFFFFFFFFFFFFFFFFFFFFFFFFFF79
:10673000FFFFFFFFFFFFFFFFFFFFFFFFFFFFFFFF69
:10674000FFFFFFFFFFFFFFFFFFFFFFFFFFFFFFFF59
:10675000FFFF28F703EF6FF7FFFFFFFFFFFFFFFFCC
:10676000FFFFFFFFFFFFFFFFFFFFFFFFFFFFFFFF39
:10677000FFFFFFFFFFFFFFFFFFFFFFFFFFFFFFFF29
:10678000FFFFFFFFFFFFFFFFFFFFFFFFFFFFFFFF19
:10679000FFFFFFFFFFFFFFFFFFFFFFFFFFFFFFFF09
:1067A000FFFFFFFFFFFFFFFFFFFFFFFFFFFFFFFFF9
:1067B000FFFFFFFFFFFFFFFFFFFFFDFFB8FFFFFF32
:1067C000FFFFFFFFFFFFFFFFFFFFFFFFFFFFFFFFD9
:1067D000DCFFB8FF96FF94F793F794FFB6FFB9FF7D
:1067E000FDFFFFFFFFFFFFFFFFFFFFFFFFFFFFFFBB
:1067F000FFFFFEFFB8FFFFFFFFFFFFFFFFFFFFFFF1
:10680000FFFFFFFFFFFFFFFFFFFFFFFFFFFFFFFF98
:10681000FFFFFFFFFFFFFFFFFFFFFFFFFFFFFFFF88
:10682000FFFFFFFFFFFFFFFFFFFFFFFFFFFFFFFF78
:10683000FFFFFFFFFFFFFFFFFFFFFFFFFFFFFFFF68
:10684000FFFFFFFFFFFFFFFFFFFFFFFFFFFFFFFF58
:10685000FFFFFFFFFFFFFFFFFFFFFFFFFFFFFFFF48
:10686000FFFFFFFFFFFFFFFFDDFF55F7ADF6A7EED0
:1068700003EF23EF23EF03EF03EF23EF03EF03EF28
:1068800004EF29F76FF7B7FFFFFFFFFFFFFFFFFFE1
:10689000FFFFFFFFFFFFFFFFFFFFFFFFFFFFFFFF08
:1068A000FFFFFFFFFFFFFFFFFFFFFFFFFFFFFFFFF8
:1068B000FFFFFFFFFFFFFFFFFFFFFFFFFFFFFFFFE8
:1068C000FFFFFFFFFFFFFFFFFFFFFFFFFFFFFFFFD8
:1068D000FFFFFFFFFFFFFFFFFFFFFFFFFFFFFFFFC8
:1068E000FFFFFFFFFFFFFFFFFFFFFFFFFFFFFFFFB8
:1068F000FFFFFFFFFFFFFFFFFFFFFFFFFFFFFFFFA8
:10690000FFFFFFFFBBFF10F745EE03EE43EE23EF63
:1069100023EF03EF03EF03EF03EF03EF03EF03EFC7
:1069200003EF03EF23EF23EF27F773F7FEFFFFFFDC
:10693000FFFFFFFFFFFFFFFFFFFFFFFFFFFFFFFF67
:10694000FFFFFFFFFFFFFFFFFFFFFFFFFFFFFFFF57
:10695000FFFFFFFFFFFFFFFFFFFFFFFFFFFFFFFF47
:10696000FFFFFFFFFFFFFFFFFFFFFFFFFFFFFFFF37
:10697000FFFFFFFFFFFFFFFFFFFFFFFFFFFFFFFF27
:10698000FFFFFFFFFFFFFFFFFFFFFFFFFFFFFFFF17
:10699000FFFFFFFFFFFFFFFFFFFFFFFFFFFFFFFF07
:1069A000DCFFEEF623EE43EE03EE43EE03EF23EFC0
:1069B00003EF03EF03EF03EF03EF03EF03EF03EF47
:1069C00003EF03EF03EF03EF23EF23EF05EF72F77E
:1069D000FFFFFFFFFFFFFFFFFFFFFFFFFFFFFFFFC7
:1069E000FFFFFFFFFFFFFFFFFFFFFFFFFFFFFFFFB7
:1069F000FFFFFFFFFFFFFFFFFFFFFFFFFFFFFFFFA7
:106A0000FFFFFFFFFFFFFFFFFFFFFFFFFFFFFFFF96
:106A1000FFFFFFFFFFFFFFFFFFFF94FFB5FFFFFF3B
:106A2000FFFFFFFFFFFFFFFFFFFFFFFFFFFFFFFF76
:106A3000FFFFFFFFFFFFFFFFFFFFFFFFFFFF54F719
:106A400044EE23EE23EE23EE03EEE3EE23EF03EF1B
:106A500003EF03EF03EF23EF23EF23EF03EF03EF46
:106A600003EF03EF03EF03EF03EF03EF03EF23EF76
:106A700028F7B8FFFFFFFFFFFFFFFFFFFFFFFFFF4C
:106A8000FFFFFFFFFFFFFFFFFFFFFFFFFFFFFFFF16
:106A9000FFFFFFFF93F7B8FFFFFFFFFFFFFFFFFFC1
:106AA000FFFFFFFFFFFFFFFFFFFFFFFFFFFFFFFFF6
:106AB000FFFFFFFFFFFFFFFFB7FF03EF03EF4AF703
:106AC000D9FFFFFFFFFFFFFFFFFFFFFFFFFFFFFFFC
:106AD000FFFFFFFFFFFFFFFFFFFFFFFFCCF623EEEF
:106AE00023EE23EE23EE03EEA3EE43EF03EF43EF9B
:106AF00063EF63EF43EF43EF23EF43EF43EF63EFC6
:106B000063EF43EF03EF03EF03EF03EF03EF03EF55
:106B100023EF23EF71F7FFFFFFFFFFFFFFFFFFFFF3
:106B2000FFFFFFFFFFFFFFFFFFFFFFFFFFFFFFFF75
:106B3000B4FF26EF03EF03EFFFFFFFFFFFFFFFFFB1
:106B4000FFFFFFFFFFFFFFFFFFFFFFFFFFFFFFFF55
:106B5000FFFFFFFFFFFFFFFFDAFF25EF03EF03EF6C
:106B600003EF6FF7FEFFFFFFFFFFFFFFFFFFFFFFDA
:106B7000FFFFFFFFFFFFFFFFFEFF89EE23EE23EE87
:106B800023EE23EE03EE43EE43EF83EF43EFC3EE3A
:106B900023EEC4F584F564F564F564F5A4F5E4F535
:106BA00063EEE3EE63EF63EF23EF03EF03EF03EF37
:106BB00003EF03EF23EF4FF7FFFFFFFFFFFFFFFFA1
:106BC000FFFFFFFFFFFFFFFFFFFFFFFFDAFF4BF7B6
:106BD00003EF03EF03EF4AF7FFFFFFFFFFFFFFFFA6
:106BE000FFFFFFFFFFFFFFFFFFFFFFFFFFFFFFFFB5
:106BF000FFFFFFFFFFFFFFFFFFFFFDFF6FF703EF4B
:106C000003EF03EF25EF92F7FFFFFFFFFFFFFFFF0B
:106C1000FFFFFFFFFFFFFEFF87EE23EE23EE23EED5
:106C200023EE23EE23EE43EF43EF23EE64F5E4F48B
:106C300085F485F4A5F4A5F4A5F4A5F4A5F485F4EC
:106C4000A5F4E4F484F563EE43EF63EF03EF03EFA1
:106C500003EF03EF03EF23EF4EF7FFFFFFFFFFFF0D
:106C6000FFFFFFFFFFFFFFFFFCFF6FF703EF03EFE7
:106C700003EF25EF93F7FFFFFFFFFFFFFFFFFFFF8E
:106C8000FFFFFFFFFFFFFFFFFFFFFFFFFFFFFFFF14
:106C9000FFFFFFFFFFFFFFFFFFFFFFFFFFFFDBFF28
:106CA0004CF703EF03EF03EF28F7DCFFFFFFFFFFD5
:106CB000FFFFFFFFFFFF89EE23EE23EE23EE23EE1F
:106CC00023EE43EEC3EE63EE04F585F4A5F4E4F49D
:106CD000E4F4E4F4E4F4E4F4E4F4E4F4E4F4E4F4F4
:106CE000E4F4C4F485F485F464F5A3EE63EF23EFD4
:106CF00003EF03EF03EF03EF23EF4EF7FFFFFFFF79
:106D0000FFFFFFFFFFFFB6FF04EF03EF03EF03EF0B
:106D100070F7FEFFFFFFFFFFFFFFFFFFFFFFFFFF1B
:106D2000FFFFFFFFFFFFFFFFFFFFFFFFFFFFFFFF73
:106D3000FFFFFFFFFFFFFFFFFFFFFFFFFFFFFFFF63
:106D4000FFFFB7FF27EF03EF03EFB7FFFFFFFFFFE3
:106D5000FFFFFFFFABF623EE23EE23EE23EE23EE41
:106D600083EE23EE44F5A5F4A4F404F5E4F4E4F48E
:106D7000E4F4E4F4E4F4E4F4E4F4E4F4E4F4E4F453
:106D8000E4F4E4F404F5E4F485F485F4E4ED63EF6D
:106D900043EF03EF03EF03EF03EF23EF94FFFFFF56
:106DA000FFFFFFFFFFFF6CF703EF03EF4BF7DBFF86
:106DB000FFFFFFFFFFFFFFFFFFFFFFFFFFFFFFFFE3
:106DC000FFFFFFFFFFFFFFFFFFFFFFFFFFFFFFFFD3
:106DD000FFFFFFFFFFFFFFFFFFFFFFFFFFFFFFFFC3
:106DE000FFFFFFFFFFFF91F791F7FFFFFFFFFFFF9F
:106DF000FFFF55F723EE23EE23EE23EE23EEA3EE63
:106E000003EE45EC85F4E4F404F5E4F4E4F4E4F48E
:106E1000E4F4E4F4E4F4E4F4E4F4E4F4E4F4E4F4B2
:106E2000E4F4E4F4E4F4E4F404F5C4F465F484F57F
:106E300043EF43EF03EF03EF03EF03EF03EFDCFF59
:106E4000FFFFFFFFFFFFFCFF70F7B5FFFFFFFFFF36
:106E5000FFFFFFFFFFFFFFFFFFFFFFFFFFFFFFFF42
:106E6000FFFFFFFFFFFFFFFFFFFFFFFFFFFFFFFF32
:106E7000FFFFFFFFFFFFFFFFFFFFFFFFFFFFFFFF22
:106E8000FFFFFFFFFFFFFFFFFFFFFFFFFFFFFFFF12
:106E9000DEFF23EE23EE23EE23EE23EE83EE23EE3E
:106EA000C5EB05F424F5E4F4E4F4E4F4E4F4E4F4E8
:106EB000E4F4E4F4E4F4E4F4E4F4E4F4E4F4E4F412
:106EC000E4F4E4F4E4F4E4F4E4F404F5E4F465F460
:106ED00064F543EF43EF03EF03EF03EF23EF29F7ED
:106EE000FFFFFFFFFFFFFFFFFFFFFFFFFFFFFFFFB2
:106EF000FFFFFFFFFFFFFFFFFFFFFFFFFFFFFFFFA2
:106F0000FFFFFFFFFFFFFFFFFFFFFFFFFFFFFFFF91
:106F1000FFFFFFFFFFFFFFFFFFFFFFFFFFFFFFFF81
:106F2000FFFFFFFFFFFFFFFFFFFFFFFFFFFFFFFF71
:106F3000CDF623EE23EE23EE23EE63EE43EE05ECD7
:106F400085EBC4F404F5E4F4E4F4E4F4E4F4E4F4E8
:106F5000E4F4E4F4E4F4E4F4E4F4E4F4E4F4E4F471
:106F6000E4F4E4F4E4F4E4F4E4F4E4F4E4F4E4F461
:106F700065F484F563EF23EF03EF03EF03EF23EFF3
:106F8000B7FFFFFFFFFFFFFFFFFFFFFFFFFFFFFF59
:106F9000FFFFFFFFFFFFFFFFFFFFFFFFFFFFFFFF01
:106FA000FFFFFFFFFFFFFFFFFFFFFFFFFFFFFFFFF1
:106FB000FFFFFFFFFFFFFFFFFFFFFFFFFFFFFFFFE1
:106FC000FFFFFFFFFFFFFFFFFFFFFFFFFFFFDDFFF3
:106FD00023EE23EE23EE23EE43EE83EE84EC65F303
:106FE00025ECE4F404F5E4F4E4F4E4F4E4F4E4F487
:106FF000E4F4E4F4E4F4E4F4E4F4E4F4E4F4E4F4D1
:10700000E4F4E4F4E4F4E4F4E4F4E4F4E4F4E4F4C0
:10701000E4F465F423EE83EF03EF03EF03EF23EFD4
:1070200026EFFFFFFFFFFFFFFFFFFFFFFFFFFFFF59
:10703000FFFFFFFFFFFFFFFFFFFFFFFFFFFFFFFF60
:10704000FFFFFFFFFFFFFFFFFFFFFFFFFFFFFFFF50
:10705000FFFFFFFFFFFFFFFFFFFFFFFFFFFFFFFF40
:10706000FFFFFFFFFFFFFFFFFFFFFFFFFFFFEFF649
:1070700023EE23EE23EE23EEA3EE64ED85F3E5EBA2
:1070800045F404F5E4F4E4F4E4F4E4F4E4F4E4F4BE
:10709000E4F4E4F4E4F4E4F4E4F4E4F4E4F4E4F430
:1070A000E4F4E4F4E4F4E4F4E4F4E4F4E4F4E4F420
:1070B00004F5C4F4C4F4E3EE43EF03EF03EF03EF8E
:1070C00023EF96FFFFFFFFFFFFFFFFFFFFFFFFFF25
:1070D000FFFFFFFFFFFFFFFFFFFFFFFFFFFFFFFFC0
:1070E000FFFFFFFFFFFFFFFFFFFFFFFFFFFFFFFFB0
:1070F000FFFFFFFFFFFFFFFFFFFFFFFFFFFFFFFFA0
:10710000FFFFFFFFFFFFFFFFFFFFFFFFFEFF44EE5C
:1071100023EE23EE23EE43EE43EE25ECC5F3E5EB41
:1071200085F424F5E4F4E4F4E4F4E4F4E4F4E4F4BD
:10713000E4F4E4F4E4F4E4F4E4F4E4F4E4F4E4F48F
:10714000E4F4E4F4E4F4E4F4E4F4E4F4E4F4E4F47F
:10715000E4F404F585F4A4F563EF03EF03EF03EF24
:1071600023EF2AF7FFFFFFFFFFFFFFFFFFFFFFFFF8
:10717000FFFFFFFFFFFFFFFFFFFFFFFFFFFFFFFF1F
:10718000FFFFFFFFFFFFFFFFFFFFFFFFFFFFFFFF0F
:10719000FFFFFFFFFFFFFFFFFFFFFFFFFFFFFFFFFF
:1071A000FFFFFFFFFFFFFFFFFFFFFFFF55F723EE8E
:1071B00023EE23EE23EEA3EE44ED85F305ECE5EBA1
:1071C00084F424F5E4F4E4F4E4F4E4F4E4F4E4F41E
:1071D000E4F4E4F4E4F4E4F4E4F4E4F4E4F4E4F4EF
:1071E000E4F4E4F4E4F4E4F4E4F4E4F4E4F4E4F4DF
:1071F000E4F4E4F4C4F4C4F4C3EE43EF03EF03EFA8
:1072000003EF03EFDDFFFFFFFFFFFFFFFFFFFFFFC8
:10721000FFFFFFFFFFFFFFFFFFFFFFFFFFFFFFFF7E
:10722000FFFFFFFFFFFFFFFFFFFFFFFFFFFFFFFF6E
:10723000FFFFFFFFFFFFFFFFFFFFFFFFFFFFFFFF5E
:10724000FFFFFFFFFFFFFFFFFFFFFFFFCDF623EE76
:1072500023EE23EE43EE63EE84ECA5F305ECE5EBC1
:10726000A4F424F5E4F4E4F4E4F4E4F4E4F4E4F45D
:10727000E4F4E4F4E4F4E4F4E4F4E4F4E4F4E4F44E
:10728000E4F4E4F4E4F4E4F4E4F4E4F4E4F4E4F43E
:10729000E4F4E4F404F585F404F683EF03EF03EF7C
:1072A00003EF23EF95FFFFFFFFFFFFFFFFFFFFFF50
:1072B000FFFFFFFFFFFFFFFFFFFFFFFFFFFFFFFFDE
:1072C000FFFFFFFFFFFFFFFFFFFFFFFFFFFFFFFFCE
:1072D000FFFFFFFFFFFFFFFFFFFFFFFFFFFFFFFFBE
:1072E000FFFFFFFFFFFFFFFFFFFFFFFF67EE23EE44
:1072F00023EE23EE63EEE3EDE5EBE5EB05ECE5EBEA
:10730000C4F404F5E4F4E4F4E4F4E4F4E4F4E4F4BC
:10731000E4F4E4F4E4F4E4F4E4F4E4F4E4F4E4F4AD
:10732000E4F4E4F4E4F4E4F4E4F4E4F4E4F4E4F49D
:10733000E4F4E4F4E4F4A5F464F543EF03EF03EFBD
:1073400003EF23EF4FF7FFFFFFFFFFFFFFFFFFFFFD
:10735000FFFFFFFFFFFFFFFFFFFFFFFFFFFFFFFF3D
:10736000FFFFFFFFFFFFFFFFFFFFFFFFFFFFFFFF2D
:10737000FFFFFFFFFFFFFFFFFFFFFFFFFFFFFFFF1D
:10738000FFFFFFFFFFFFFFFFFFFFDCFF23EE23EE0A
:1073900023EE23EEA3EE64EDA5F305EC05ECE5EB9F
:1073A000C4F404F5E4F4E4F4E4F4E4F4E4F4E4F41C
:1073B000E4F4E4F4E4F4E4F4E4F4E4F4E4F4E4F40D
:1073C000E4F4E4F4E4F4E4F4E4F4E4F4E4F4E4F4FD
:1073D000E4F4E4F4E4F4E4F4E4F4C3EE43EF03EFA0
:1073E00003EF23EF29F7FFFFFFFFFFFFFFFFFFFF83
:1073F000FFFFFFFFFFFFFFFFFFFFFFFFFFFFFFFF9D
:10740000FFFFFFFFFFFFFFFFFFFFFFFFFFFFFFFF8C
:10741000FFFFFFFFFFFFFFFFFFFFFFFFFFFFFFFF7C
:10742000FFFFFFFFFFFFFFFFFFFF98FF23EE23EEAD
:1074300023EE23EE83EE04EDA5F305EC05ECE5EB7E
:10744000A4F424F5E4F4E4F4E4F4E4F4E4F4E4F47B
:10745000E4F4E4F4E4F4E4F4E4F4E4F4E4F4E4F46C
:10746000E4F4E4F4E4F4E4F4E4F4E4F4E4F4E4F45C
:10747000E4F4E4F4E4F4E4F4A5F443EE63EF03EF9E
:1074800003EF03EF06EFFFFFFFFFFFFFFFFFFFFF2D
:10749000FFFFFFFFFFFFFFFFFFFFFFFFFFFFFFFFFC
:1074A000FFFFFFFFFFFFFFFFFFFFFFFFFFFFFFFFEC
:1074B000FFFFFFFFFFFFFFFFFFFFFFFFFFFFFFFFDC
:1074C000FFFFFFFFFFFFFFFFFFFF76FF23EE23EE2F
:1074D00023EE43EE83EEA4ECA5F305EC05ECE5EB1F
:1074E000A4F424F5E4F4E4F4E4F4E4F4E4F4E4F4DB
:1074F000E4F4E4F4E4F4E4F4E4F4E4F4E4F4E4F4CC
:10750000E4F4E4F4E4F4E4F4E4F4E4F4E4F4E4F4BB
:10751000E4F4E4F4E4F4E4F485F404EE63EF03EF5C
:1075200003EF03EF04EFFDFFFFFFFFFFFFFFFFFF90
:10753000FFFFFFFFFFFFFFFFFFFFFFFFFFFFFFFF5B
:10754000FFFFFFFFFFFFFFFFFFFFFFFFFFFFFFFF4B
:107550006FF727F727F727F727F727F727F727EFFB
:1075600049F7D9FFFFFFFFFFFFFF54F723EE23EE9C
:1075700023EE43EE63EE84ECC5F305EC05ECE5EB9E
:1075800084F424F5E4F4E4F4E4F4E4F4E4F4E4F45A
:10759000E4F4E4F4E4F4E4F4E4F4E4F4E4F4E4F42B
:1075A000E4F4E4F4E4F4E4F4E4F4E4F4E4F4E4F41B
:1075B000E4F4E4F4E4F4E4F485F4C4F563EF03EFF5
:1075C00003EF03EF03EFDCFFFFFFFFFFFFFF92F787
:1075D00027F727EF27F727F727F727F727EF49F7A9
:1075E000FFFFFFFFFFFFFFFFFFFFFFFFFFFFFFFFAB
:1075F00003EF03EF03EF03EF03EF03EF03EF03EFFB
:1076000003EF6FF7FFFFFFFFFFFF54F723EE23EEBB
:1076100023EE43EE63EE84ECC5F305EC05ECE5EBFD
:1076200065F424F5E4F4E4F4E4F4E4F4E4F4E4F4D8
:10763000E4F4E4F4E4F4E4F4E4F4E4F4E4F4E4F48A
:10764000E4F4E4F4E4F4E4F4E4F4E4F4E4F4E4F47A
:10765000E4F4E4F4E4F4E4F485F4C4F563EF03EF54
:1076600003EF03EF03EFDCFFFFFFFFFFFFFF04EF7C
:1076700003EF03EF03EF03EF03EF03EF03EF03EF7A
:10768000FFFFFFFFFFFFFFFFFFFFFFFFFFFFFFFF0A
:10769000B7FF6FF76FF76FF76FF76FF76FF76FF76A
:1076A00091F7FDFFFFFFFFFFFFFF55F723EE23EEEE
:1076B00023EE43EE63EE84ECA5F305EC05ECE5EB7D
:1076C00045F404F5E4F4E4F4E4F4E4F4E4F4E4F478
:1076D000E4F4E4F4E4F4E4F4E4F4E4F4E4F4E4F4EA
:1076E000E4F4E4F4E4F4E4F4E4F4E4F4E4F4E4F4DA
:1076F000E4F4E4F4E4F4E4F485F4E4F563EF03EF94
:1077000003EF03EF03EFDCFFFFFFFFFFFFFFD9FFF6
:107710006FF76FF76FF76FF76FF76FF76FF790F718
:10772000FFFFFFFFFFFFFFFFFFFFFFFFFFFFFFFF69
:10773000FFFFFFFFFFFFFFFFFFFFFFFFFFFFFFFF59
:10774000FFFFFFFFFFFFFFFFFFFF76FF23EE23EEAC
:1077500023EE43EE83EEC4ECA5F305EC05ECE5EB7C
:1077600025ECE4F404F5E4F4E4F4E4F4E4F4E4F4FF
:10777000E4F4E4F4E4F4E4F4E4F4E4F4E4F4E4F449
:10778000E4F4E4F4E4F4E4F4E4F4E4F4E4F4E4F439
:10779000E4F4E4F4E4F4E4F485F404EE63EF03EFDA
:1077A00003EF03EF04EFFEFFFFFFFFFFFFFFFFFF0D
:1077B000FFFFFFFFFFFFFFFFFFFFFFFFFFFFFFFFD9
:1077C000FFFFFFFFFFFFFFFFFFFFFFFFFFFFFFFFC9
:1077D000FFFFFFFFFFFFFFFFFFFFFFFFFFFFFFFFB9
:1077E000FFFFFFFFFFFFFFFFFFFF99FF23EE23EEE9
:1077F00023EE23EEA3EE04EDA5F305EC05EC05EC7A
:10780000E5EBC4F424F5E4F4E4F4E4F4E4F4E4F49F
:10781000E4F4E4F4E4F4E4F4E4F4E4F4E4F4E4F4A8
:10782000E4F4E4F4E4F4E4F4E4F4E4F4E4F4E4F498
:10783000E4F4E4F4E4F4E4F4A4F463EE63EF03EFBB
:1078400003EF03EF27EFFFFFFFFFFFFFFFFFFFFF48
:10785000FFFFFFFFFFFFFFFFFFFFFFFFFFFFFFFF38
:10786000FFFFFFFFFFFFFFFFFFFFFFFFFFFFFFFF28
:10787000FFFFFFFFFFFFFFFFFFFFFFFFFFFFFFFF18
:10788000FFFFFFFFFFFFFFFFFFFFFEFF44EE23EEC2
:1078900023EE23EE83EE84EDC5F305EC05EC05EC59
:1078A000E5EB65F424F5E4F4E4F4E4F4E4F4E4F45E
:1078B000E4F4E4F4E4F4E4F4E4F4E4F4E4F4E4F408
:1078C000E4F4E4F4E4F4E4F4E4F4E4F4E4F4E4F4F8
:1078D000E4F4E4F4E4F4C4F404F5E3EE23EF03EF9A
:1078E00003EF23EF2BF7FFFFFFFFFFFFFFFFFFFF7C
:1078F000FFFFFFFFFFFFFFFFFFFFFFFFFFFFFFFF98
:10790000FFFFFFFFFFFFFFFFFFFFFFFFFFFFFFFF87
:10791000FFFFFFFFFFFFFFFFFFFFFFFFFFFFFFFF77
:10792000FFFFFFFFFFFFFFFFFFFFFFFF88EE23EEDC
:1079300023EE23EE63EE03EE05ECE5EB05EC05EC40
:10794000E5EB25EC04F504F5E4F4E4F4E4F4E4F404
:10795000E4F4E4F4E4F4E4F4E4F4E4F4E4F4E4F467
:10796000E4F4E4F4E4F4E4F4E4F4E4F4E4F4E4F457
:10797000E4F4E4F404F585F484F563EF03EF03EF36
:1079800003EF23EF70F7FFFFFFFFFFFFFFFFFFFF96
:10799000FFFFFFFFFFFFFFFFFFFFFFFFFFFFFFFFF7
:1079A000FFFFFFFFFFFFFFFFFFFFFFFFFFFFFFFFE7
:1079B000FFFFFFFFFFFFFFFFFFFFFFFFFFFFFFFFD7
:1079C000FFFFFFFFFFFFFFFFFFFFFFFFEFF623EECD
:1079D00023EE23EE23EE83EEA4ECA5F305EC05ECF9
:1079E00005ECE5EBA4F424F5E4F4E4F4E4F4E4F4C5
:1079F000E4F4E4F4E4F4E4F4E4F4E4F4E4F4E4F4C7
:107A0000E4F4E4F4E4F4E4F4E4F4E4F4E4F4E4F4B6
:107A1000E4F4E4F4E4F485F423EE63EF03EF03EF1E
:107A200003EF23EFB7FFFFFFFFFFFFFFFFFFFFFFA6
:107A3000FFFFFFFFFFFFFFFFFFFFFFFFFFFFFFFF56
:107A4000FFFFFFFFFFFFFFFFFFFFFFFFFFFFFFFF46
:107A5000FFFFFFFFFFFFFFFFFFFFFFFFFFFFFFFF36
:107A6000FFFFFFFFFFFFFFFFFFFFFFFF98FF23EE7A
:107A700023EE23EE23EE83EEA3EDA5F305EC05EC58
:107A800005ECE5EB25EC04F504F5E4F4E4F4E4F4AA
:107A9000E4F4E4F4E4F4E4F4E4F4E4F4E4F4E4F426
:107AA000E4F4E4F4E4F4E4F4E4F4E4F4E4F4E4F416
:107AB000E4F404F5A4F404F503EF23EF03EF03EF7C
:107AC00003EF04EFFFFFFFFFFFFFFFFFFFFFFFFFDD
:107AD000FFFFFFFFFFFFFFFFFFFFFFFFFFFFFFFFB6
:107AE000FFFFFFFFFFFFFFFFFFFFFFFFFFFFFFFFA6
:107AF000FFFFFFFFFFFFFFFFFFFFFFFFFFFFFFFF96
:107B0000FFFFFFFFFFFFFFFFFFFFFFFFFFFF66EE2F
:107B100023EE23EE23EE43EE83EE84ECA5F305EC97
:107B200005EC05ECE5EBA4F424F5E4F4E4F4E4F46A
:107B3000E4F4E4F4E4F4E4F4E4F4E4F4E4F4E4F485
:107B4000E4F4E4F4E4F4E4F4E4F4E4F4E4F4E4F475
:107B5000E4F4E4F465F404EE83EF03EF03EF03EFE2
:107B600023EF4DF7FFFFFFFFFFFFFFFFFFFFFFFFCB
:107B7000FFFFFFFFFFFFFFFFFFFFFFFFFFFFFFFF15
:107B8000FFFFFFFFFFFFFFFFFFFFFFFFFFFFFFFF05
:107B9000FFFFFFFFFFFFFFFFFFFFFFFFFFFFFFFFF5
:107BA000FFFFFFFFFFFFFFFFFFFFFFFFFFFF54F798
:107BB00023EE23EE23EE23EE83EEC3EDA5F3E5EBF8
:107BC00005EC05ECE5EB05EC04F504F5E4F4E4F470
:107BD000E4F4E4F4E4F4E4F4E4F4E4F4E4F4E4F4E5
:107BE000E4F4E4F4E4F4E4F4E4F4E4F4E4F4E4F4D5
:107BF00004F5A5F404F523EF23EF03EF03EF03EF00
:107C000023EFBAFFFFFFFFFFFFFFFFFFFFFFFFFFB5
:107C1000FFFFFFFFFFFFFFFFFFFFFFFFFFFFFFFF74
:107C2000FFFFFFFFFFFFFFFFFFFFFFFFFFFFFFFF64
:107C3000FFFFFFFFFFFFFFFFFFFFFFFFFFFFFFFF54
:107C4000FFFFFFFFFFFFFFFFFFFFFFFFFFFFFFFF44
:107C500044EE23EE23EE23EE23EEA3EE04ED85F3B4
:107C600005EC05EC05ECE5EB65F424F5E4F4E4F44F
:107C7000E4F4E4F4E4F4E4F4E4F4E4F4E4F4E4F444
:107C8000E4F4E4F4E4F4E4F4E4F4E4F4E4F404F513
:107C9000C4F485F483EE63EF03EF03EF03EF23EF08
:107CA0002AF7FFFFFFFFFFFFFFFFFFFFFFFFFFFFC1
:107CB000FFFFFFFFFFFFFFFFFFFFFFFFFFFFFFFFD4
:107CC000FFFFFFFFFFFFFFFFFFFFFFFFFFFFFFFFC4
:107CD000FFFFFFFFFFFFFFFFFFFFFFFFFFFFFFFFB4
:107CE000FFFFFFFFFFFFFFFFFFFFFFFFFFFFFFFFA4
:107CF00033F723EE23EE23EE23EE43EEA3EEA4ECC4
:107D000085F305EC05EC05ECE5EBA4F424F5E4F4CF
:107D1000E4F4E4F4E4F4E4F4E4F4E4F4E4F4E4F4A3
:107D2000E4F4E4F4E4F4E4F4E4F4E4F404F5C4F492
:107D300065F423EE63EF03EF03EF03EF03EF03EFCD
:107D4000DCFFFFFFFFFFFFFFFFFFFFFFFFFFFFFF66
:107D5000FFFFFFFFFFFFFFFFFFFFFFFFFFFFFFFF33
:107D6000FFFFFFFFFFFFFFFFFFFFFFFFFFFFFFFF23
:107D7000FFFFFFFFFFFFFFFFFFFFFFFFFFFFFFFF13
:107D8000FFFFFFFFFFFFFFFFFFFFFFFFFFFFFFFF03
:107D9000FFFF67EE23EE23EE23EE23EE63EE83EE8A
:107DA00084EC85F305EC05ECE5EBE5EBE4F424F578
:107DB000E4F4E4F4E4F4E4F4E4F4E4F4E4F4E4F403
:107DC000E4F4E4F4E4F4E4F4E4F404F5C4F485F451
:107DD00004EE83EF23EF03EF03EF03EF23EF4FF7FF
:107DE000FFFFFFFFFFFFFFFFFFFFFFFFFFFFFFFFA3
:107DF000FFFFFFFFFFFFFFFFFFFFFFFFFFFFFFFF93
:107E0000FFFFFFFFFFFFFFFFFFFFFFFFFFFFFFFF82
:107E1000FFFFFFFFFFFFFFFFFFFFFFFFFFFFFFFF72
:107E2000FFFFFFFFDAFF4AF749F7FDFFFFFFFFFF04
:107E3000FFFFBAFF23EE23EE23EE23EE23EE63EEE5
:107E400083EEA4EC85F3C5EB25ECE5EB05ECE4F45F
:107E500024F5E4F4E4F4E4F4E4F4E4F4E4F4E4F421
:107E6000E4F4E4F4E4F404F504F5A5F485F424EE74
:107E700083EF23EF03EF03EF03EF23EF05EFFFFFA4
:107E8000FFFFFFFFFFFFB8FF28F76EF7FEFFFFFFC2
:107E9000FFFFFFFFFFFFFFFFFFFFFFFFFFFFFFFFF2
:107EA000FFFFFFFFFFFFFFFFFFFFFFFFFFFFFFFFE2
:107EB000FFFFFFFFFFFFFFFFFFFFFFFFFFFFFFFFD2
:107EC000FDFF6FF703EF03EF03EFB7FFFFFFFFFFC8
:107ED000FFFFFFFF32F723EE23EE23EE23EE23EE28
:107EE00063EE83EE44EDE5EB85F3E5EBE5EB05ECC6
:107EF000E4F424F5E4F4E4F4E4F4E4F4E4F4E4F481
:107F0000E4F4E4F4E4F4A4F465F404F583EE83EF1C
:107F100023EF03EF03EF03EF03EF23EFBAFFFFFFBE
:107F2000FFFFFFFFFFFF6CF703EF03EF25EF94FF69
:107F3000FFFFFFFFFFFFFFFFFFFFFFFFFFFFFFFF51
:107F4000FFFFFFFFFFFFFFFFFFFFFFFFFFFFFFFF41
:107F5000FFFFFFFFFFFFFFFFFFFFFFFFFFFF93F7A5
:107F600025EF03EF03EF03EF6FF7FEFFFFFFFFFFC8
:107F7000FFFFFFFFFFFFEFF623EE23EE23EE23EEDE
:107F800023EE43EEA3EE03EEC4ECE5EB85F385EBC5
:107F9000E5EBC4F424F504F5E4F4E4F4E4F4E4F4E7
:107FA000C4F485F485F404F504EE23EF63EF03EFE6
:107FB00003EF03EF03EF03EF23EF95FFFFFFFFFF57
:107FC000FFFFFFFFFFFFDBFF4BF703EF03EF03EFC5
:107FD00028F7B6FFFFFFFFFFFFFFFFFFFFFFFFFFD9
:107FE000FFFFFFFFFFFFFFFFFFFFFFFFFFFFFFFFA1
:107FF000FFFFFFFFFFFFFFFFFFFFB6FF27F703EFC6
:1080000003EF03EF4CF7DAFFFFFFFFFFFFFFFFFF78
:10801000FFFFFFFFFFFFFFFFEEF623EE23EE23EE51
:1080200023EE23EE23EE63EEA3EEE3ED24ED84ECEA
:10803000E5EB85EB25F4A5F4C5F485F485F4A4F40B
:1080400004F584F523EE03EF83EF23EF03EF03EF53
:1080500003EF03EF03EF23EF95FFFFFFFFFFFFFFAA
:10806000FFFFFFFFFFFFFFFFFFFFB7FF28F703EF53
:1080700003EF03EF4BF7DBFFFFFFFFFFFFFFFFFF08
:10808000FFFFFFFFFFFFFFFFFFFFFFFFFFFFFFFF00
:10809000FFFFFFFFFFFFFFFFD8FF03EF03EF03EF3B
:1080A00027EFB5FFFFFFFFFFFFFFFFFFFFFFFFFF12
:1080B000FFFFFFFFFFFFFFFFFFFFEEF623EE23EEC4
:1080C00023EE23EE23EE23EE23EE63EEA3EE63EE28
:1080D000E3ED44EDE4EC44EDC4ED04F624F663EE88
:1080E000E3EE63EF63EF23EF03EF03EF03EF03EF41
:1080F00003EF23EF03EF95FFFFFFFFFFFFFFFFFFFE
:10810000FFFFFFFFFFFFFFFFFFFFFFFFFFFF90F7F6
:1081100003EF03EF03EF03EFFFFFFFFFFFFFFFFF9F
:10812000FFFFFFFFFFFFFFFFFFFFFFFFFFFFFFFF5F
:10813000FFFFFFFFFFFFFFFFD9FF03EF03EF92F702
:10814000FFFFFFFFFFFFFFFFFFFFFFFFFFFFFFFF3F
:10815000FFFFFFFFFFFFFFFFFFFFFFFF54F743EEAF
:1081600023EE23EE23EE23EE23EE23EE23EE43EE67
:1081700063EEA3EEA3EE63EE63EEE3EE63EF83EF55
:1081800063EF23EF03EF03EF03EF03EF03EF03EFDF
:1081900023EF27EFB9FFFFFFFFFFFFFFFFFFFFFF09
:1081A000FFFFFFFFFFFFFFFFFFFFFFFFFFFFFFFFDF
:1081B000DCFF6EF703EF27EFFFFFFFFFFFFFFFFF7F
:1081C000FFFFFFFFFFFFFFFFFFFFFFFFFFFFFFFFBF
:1081D000FFFFFFFFFFFFFFFFFFFFDBFFFCFFFFFFD6
:1081E000FFFFFFFFFFFFFFFFFFFFFFFFFFFFFFFF9F
:1081F000FFFFFFFFFFFFFFFFFFFFFFFFFFFFBBFFD3
:10820000ABF623EE23EE23EE23EE23EE23EE23EE56
:1082100023EE23EE23EE43EE23EE03EE23EE83EE76
:10822000E3EE03EF23EF23EF23EF03EF23EF03EF5F
:108230004FF7FFFFFFFFFFFFFFFFFFFFFFFFFFFF06
:10824000FFFFFFFFFFFFFFFFFFFFFFFFFFFFFFFF3E
:10825000FFFFFFFFDBFFFEFFFFFFFFFFFFFFFFFF53
:10826000FFFFFFFFFFFFFFFFFFFFFFFFFFFFFFFF1E
:10827000FFFFFFFFFFFFFFFFFFFFFFFFFFFFFFFF0E
:10828000FFFFFFFFFFFFFFFFFFFFFFFFFFFFFFFFFE
:10829000FFFFFFFFFFFFFFFFFFFFFFFFFFFFFFFFEE
:1082A000FFFF76FF89EE23EE23EE23EE23EE23EE8F
:1082B00023EE23EE23EE23EE23EE23EE23EE03EE56
:1082C00023EE43EE83EEC3EE03EF03EF4CF7BAFF6A
:1082D000FFFFFFFFFFFFFFFFFFFFFFFFFFFFFFFFAE
:1082E000FFFFFFFFFFFFFFFFFFFFFFFFFFFFFFFF9E
:1082F000FFFFFFFFFFFFFFFFFFFFFFFFFFFFFFFF8E
:10830000FFFFFFFFFFFFFFFFFFFFFFFFFFFFFFFF7D
:10831000FFFFFFFFFFFFFFFFFFFFFFFFFFFFFFFF6D
:10832000FFFFFFFFFFFFFFFFFFFFFFFFFFFFFFFF5D
:10833000FFFFFFFFFFFFFFFFFFFFFFFFFFFFFFFF4D
:10834000FFFFFFFFFFFF76FFABF643EE23EE23EECA
:1083500023EE23EE23EE23EE23EE23EE23EE23EE95
:1083600023EE23EE03EE46EEEEF6B9FFFFFFFFFF2E
:10837000FFFFFFFFFFFFFFFFFFFFFFFFFFFFFFFF0D
:10838000FFFFFFFFFFFFFFFFFFFFFFFFFFFFFFFFFD
:10839000FFFFFFFFFFFFFFFFFFFFFFFFFFFFFFFFED
:1083A000FFFFFFFFFFFFFFFFFFFFFFFFFFFFFFFFDD
:1083B000FFFFFFFFFFFFFFFFFFFFFFFFFFFFFFFFCD
:1083C000FFFFFFFFFFFFFFFFFFFFFFFFFFFFFFFFBD
:1083D000FFFFFFFFFFFFFFFFFFFFFFFFFFFFFFFFAD
:1083E000FFFFFFFFFFFFFFFFFFFFDCFF55FFEFF683
:1083F000AAEE67EE44EE23EE23EE23EE45EE88EE82
:10840000CCF611F777FFFEFFFFFFFFFFFFFFFFFF37
:10841000FFFFFFFFFFFFFFFFFFFFFFFFFFFFFFFF6C
:10842000FFFFFFFFFFFFFFFFFFFFFFFFFFFFFFFF5C
:10843000FFFFFFFFFFFFFFFFFFFFFFFFFFFFFFFF4C
:10844000FFFFFFFFFFFFFFFFFFFFFFFFFFFFFFFF3C
:10845000FFFFFFFFFFFFFFFFFFFFFFFFFFFFFFFF2C
:10846000FFFFFFFFFFFFFFFFFFFFFFFFFFFFFFFF1C
:10847000FFFFFFFFFFFFFFFFFFFFB7FF70F7FCFFEE
:10848000FFFFFFFFFFFFFFFFFFFFFFFFFFFFFFFFFC
:10849000FFFFFFFFDEFFDCFFDCFFDCFFFEFFFFFF77
:1084A000FFFFFFFFFFFFFFFFFFFFFFFFFFFFFFFFDC
:1084B000FFFFD8FF70F7FDFFFFFFFFFFFFFFFFFF8C
:1084C000FFFFFFFFFFFFFFFFFFFFFFFFFFFFFFFFBC
:1084D000FFFFFFFFFFFFFFFFFFFFFFFFFFFFFFFFAC
:1084E000FFFFFFFFFFFFFFFFFFFFFFFFFFFFFFFF9C
:1084F000FFFFFFFFFFFFFFFFFFFFFFFFFFFFFFFF8C
:10850000FFFFFFFFFFFFFFFFFFFFFFFFFFFFFFFF7B
:10851000FFFFFFFFFFFFFFFFFEFF03EF03EF6DF71E
:10852000FFFFFFFFFFFFFFFFFFFFFFFFFFFFFFFF5B
:10853000FFFFFFFFFFFFFFFFFFFFFFFFFFFFFFFF4B
:10854000FFFFFFFFFFFFFFFFFFFFFFFFFFFFFFFF3B
:10855000FFFF03EF03EF49F7FFFFFFFFFFFFFFFF01
:10856000FFFFFFFFFFFFFFFFFFFFFFFFFFFFFFFF1B
:10857000FFFFFFFFFFFFFFFFFFFFFFFFFFFFFFFF0B
:10858000FFFFFFFFFFFFFFFFFFFFFFFFFFFFFFFFFB
:10859000FFFFFFFFFFFFFFFFFFFFFFFFFFFFFFFFEB
:1085A000FFFFFFFFFFFFFFFFFFFFFFFFFFFFFFFFDB
:1085B000FFFFFFFFFFFFFFFF6EF703EF03EFB5FFC6
:1085C000FFFFFFFFFFFFFFFFFFFFFFFFFFFFFFFFBB
:1085D000FFFFFFFFFFFFFFFFFFFFFFFFFFFFFFFFAB
:1085E000FFFFFFFFFFFFFFFFFFFFFFFFFFFFFFFF9B
:1085F000FFFF6DF703EF03EFB8FFFFFFFFFFFFFF84
:10860000FFFFFFFFFFFFFFFFFFFFFFFFFFFFFFFF7A
:10861000FFFFFFFFFFFFFFFFFFFFFFFFFFFFFFFF6A
:10862000FFFFFFFFFFFFFFFFFFFFFFFFFFFFFFFF5A
:10863000FFFFFFFFFFFFFFFFFFFFFFFFFFFFFFFF4A
:10864000FFFFFFFFFFFFFFFFFFFFFFFFFFFFFFFF3A
:10865000FFFFFFFFFFFFDBFF03EF03EF4AF7FFFF23
:10866000FFFFFFFFFFFFFFFFFFFFFFFFFFFFFFFF1A
:10867000FFFFFFFFFFFFFFFFFFFFFFFFFFFFFFFF0A
:10868000FFFFFFFFFFFFFFFFFFFFFFFFFFFFFFFFFA
:10869000FFFFFFFF04EF03EF26EFFFFFFFFFFFFFEA
:1086A000FFFFFFFFFFFFFFFFFFFFFFFFFFFFFFFFDA
:1086B000FFFFFFFFFFFFFFFFFFFFFFFFFFFFFFFFCA
:1086C000FFFFFFFFFFFFFFFFFFFFFFFFFFFFFFFFBA
:1086D000FFFFFFFFFFFFFFFFFFFFFFFFFFFFFFFFAA
:1086E000FFFFFFFFFFFFFFFFFFFFFFFFFFFFFFFF9A
:1086F000FFFFFFFFFFFF49F703EF03EFFDFFFFFF62
:10870000FFFFFFFFFFFFFFFFFFFFFFFFFFFFFFFF79
:10871000FFFFFFFFFFFF92F74AF7D9FFFFFFFFFFC1
:10872000FFFFFFFFFFFFFFFFFFFFFFFFFFFFFFFF59
:10873000FFFFFFFFB4FF03EF03EF90F7FFFFFFFF23
:10874000FFFFFFFFFFFFFFFFFFFFFFFFFFFFFFFF39
:10875000FFFFFFFFFFFFFFFFFFFFFFFFFFFFFFFF29
:10876000FFFFFFFFFFFFFFFFFFFFFFFFFFFFFFFF19
:10877000FFFFFFFFFFFFFFFFFFFFFFFFFFFFFFFF09
:10878000FFFFFFFFFFFFFFFFFFFFFFFFFFFFFFFFF9
:10879000FFFFFFFFB5FF03EF03EF70F7FFFFFFFFE2
:1087A000FFFFFFFFFFFFFFFFFFFFFFFFFFFFFFFFD9
:1087B000FFFFFFFFFFFF04EF03EF6DF7FFFFFFFF7A
:1087C000FFFFFFFFFFFFFFFFFFFFFFFFFFFFFFFFB9
:1087D000FFFFFFFFFFFF27EF03EF03EFFDFFFFFFAB
:1087E000FFFFFFFFFFFFFFFFFFFFFFFFFFFFFFFF99
:1087F000FFFFFFFFFFFFFFFFFFFFFFFFFFFFFFFF89
:10880000FFFFFFFFFFFFFFFFFFFFFFFFFFFFFFFF78
:10881000FFFFFFFFFFFFFFFFFFFFFFFFFFFFFFFF68
:10882000FFFFFFFFFFFFFFFFFFFFFFFFFFFFFFFF58
:10883000FFFFFEFF25EF03EF04EFFFFFFFFFFFFF4A
:10884000FFFFFFFFFFFFFFFFFFFFFFFFFFFFFFFF38
:10885000FFFFFFFFFFFF27EF03EF6EF7FFFFFFFFB5
:10886000FFFFFFFFFFFFFFFFFFFFFFFFFFFFFFFF18
:10887000FFFFFFFFFFFFB8FF03EF03EF6DF7FFFF01
:10888000FFFFFFFFFFFFFFFFFFFFFFFFFFFFFFFFF8
:10889000FFFFFFFFFFFFFFFFFFFFFFFFFFFFFFFFE8
:1088A000FFFFFFFFFFFFFFFFFFFFFFFFFFFFFFFFD8
:1088B000FFFFFFFFFFFFFFFFFFFFFFFFFFFFFFFFC8
:1088C000FFFFFFFFFFFFFFFFFFFFFFFFFFFFFFFFB8
:1088D000FFFF91F703EF03EFB4FFFFFFFFFFFFFF81
:1088E000FFFFFFFFFFFFFFFFFFFFFFFFFFFFFFFF98
:1088F000FFFFFFFFFFFF27F703EF6FF7FFFFFFFF0C
:10890000FFFFFFFFFFFFFFFFFFFFFFFFFFFFFFFF77
:10891000FFFFFFFFFFFFFFFF4AF703EF03EFDBFF60
:10892000FFFFFFFFFFFFFFFFFFFFFFFFFFFFFFFF57
:10893000FFFFFFFFFFFFFFFFFFFFFFFFFFFFFFFF47
:10894000FFFFFFFFFFFFFFFFFFFFFFFFFFFFFFFF37
:10895000FFFFFFFFFFFFFFFFFFFFFFFFFFFFFFFF27
:10896000FFFFFFFFFFFFFFFFFFFFFFFFFFFFFFFF17
:10897000FFFFB8FF25EF4AF7FFFFFFFFFFFFFFFFF5
:10898000FFFFFFFFFFFFFFFFFFFFFFFFFFFFFFFFF7
:10899000FFFFFFFFFFFF27F703EF6FF7FFFFFFFF6B
:1089A000FFFFFFFFFFFFFFFFFFFFFFFFFFFFFFFFD7
:1089B000FFFFFFFFFFFFFFFFFCFF26EF27F7FDFF95
:1089C000FFFFFFFFFFFFFFFFFFFFFFFFFFFFFFFFB7
:1089D000FFFFFFFFFFFFFFFFFFFFFFFFFFFFFFFFA7
:1089E000FFFFFFFFFFFFFFFFFFFFFFFFFFFFFFFF97
:1089F000FFFFFFFFFFFFFFFFFFFFFFFFFFFFFFFF87
:108A0000FFFFFFFFFFFFFFFFFFFFFFFFFFFFFFFF76
:108A1000FFFFFFFFFFFFFFFFFFFFFFFFFFFFFFFF66
:108A2000FFFFFFFFFFFFFFFFFFFFFFFFFFFFFFFF56
:108A3000FFFFFFFFFFFF27F703EF6FF7FFFFFFFFCA
:108A4000FFFFFFFFFFFFFFFFFFFFFFFFFFFFFFFF36
:108A5000FFFFFFFFFFFFFFFFFFFFFFFFFFFFFFFF26
:108A6000FFFFFFFFFFFFFFFFFFFFFFFFFFFFFFFF16
:108A7000FFFFFFFFFFFFFFFFFFFFFFFFFFFFFFFF06
:108A8000FFFFFFFFFFFFFFFFFFFFFFFFFFFFFFFFF6
:108A9000FFFFFFFFFFFFFFFFFFFFFFFFFFFFFFFFE6
:108AA000FFFFFFFFFFFFFFFFFFFFFFFFFFFFFFFFD6
:108AB000FFFFFFFFFFFFFFFFFFFFFFFFFFFFFFFFC6
:108AC000FFFFFFFFFFFFFFFFFFFFFFFFFFFFFFFFB6
:108AD000FFFFFFFFFFFF27F703EF6FF7FFFFFFFF2A
:108AE000FFFFFFFFFFFFFFFFFFFFFFFFFFFFFFFF96
:108AF000FFFFFFFFFFFFFFFFFFFFFFFFFFFFFFFF86
:108B0000FFFFFFFFFFFFFFFFFFFFFFFFFFFFFFFF75
:108B1000FFFFFFFFFFFFFFFFFFFFFFFFFFFFFFFF65
:108B2000FFFFFFFFFFFFFFFFFFFFFFFFFFFFFFFF55
:108B3000FFFFFFFFFFFFFFFFFFFFFFFFFFFFFFFF45
:108B4000FFFFFFFFFFFFFFFFFFFFFFFFFFFFFFFF35
:108B5000FFFFFFFFFFFFFFFFFFFFFFFFFFFFFFFF25
:108B6000FFFFFFFFFFFFFFFFFFFFFFFFFFFFFFFF15
:108B7000FFFFFFFFFFFF25EF03EF6DF7FFFFFFFF95
:108B8000FFFFFFFFFFFFFFFFFFFFFFFFFFFFFFFFF5
:108B9000FFFFFFFFFFFFFFFFFFFFFFFFFFFFFFFFE5
:108BA000FFFFFFFFFFFFFFFFFFFFFFFFFFFFFFFFD5
:108BB000FFFFFFFFFFFFFFFFFFFFFFFFFFFFFFFFC5
:108BC000FFFFFFFFFFFFFFFFFFFFFFFFFFFFFFFFB5
:108BD000FFFFFFFFFFFFFFFFFFFFFFFFFFFFFFFFA5
:108BE000FFFFFFFFFFFFFFFFFFFFFFFFFFFFFFFF95
:108BF000FFFFFFFFFFFFFFFFFFFFFFFFFFFFFFFF85
:108C0000FFFFFFFFFFFFFFFFFFFFFFFFFFFFFFFF74
:108C1000FFFFFFFFFFFF49F704EF90F7FFFFFFFFA4
:108C2000FFFFFFFFFFFFFFFFFFFFFFFFFFFFFFFF54
:108C3000FFFFFFFFFFFFFFFFFFFFFFFFFFFFFFFF44
:108C4000FFFFFFFFFFFFFFFFFFFFFFFFFFFFFFFF34
:108C5000FFFFFFFFFFFFFFFFFFFFFFFFFFFFFFFF24
:1094D000FFFFFFFFFFFFFFFFFFFFFFFFDFEFBFDF2C
:1094E0009FD77FCF7FCF9FD7BFE7FFF7FFFFFFFF5C
:1094F000FFFFFFFFFFFFFFFFFFFFFFFFFFFFFFFF7C
:10950000FFFFFFFFFFFFFFFFFFFFFFFFFFFFFFFF6B
:10951000FFFFFFFFFFFFFFFFFFFFFFFFFFFFFFFF5B
:10952000FFFFFFFFFFFFFFFFFFFFFFFFFFFFFFFF4B
:10953000FFFFFFFFFFFFFFFFFFFFFFFFFFFFFFFF3B
:10954000FFFFFFFFFFFFFFFFFFFFFFFFFFFFFFFF2B
:10955000FFFFFFFFFFFFFFFFFFFFFFFFFFFFFFFF1B
:10956000FFFFFFFFFFFFFFFFFFFFFFFFFFFFFFFF0B
:10957000FFFFFFFFFFFFDFEF9FD75FBF1FAFFEA61D
:10958000FE9EFE9EFE9EFE9E1FA73FB77FCFBFE7BB
:10959000FFFFFFFFFFFFFFFFFFFFFFFFFFFFFFFFDB
:1095A000FFFFFFFFFFFFFFFFFFFFFFFFFFFFFFFFCB
:1095B000FFFFFFFFFFFFFFFFFFFFFFFFFFFFFFFFBB
:1095C000FFFFFFFFFFFFFFFFFFFFFFFFFFFFFFFFAB
:1095D000FFFFFFFFFFFFFFFFFFFFFFFFFFFFFFFF9B
:1095E000FFFFFFFFFFFFFFFFFFFFFFFFFFFFFFFF8B
:1095F000FFFFFFFFFFFFFFFFFFFFFFFFFFFFFFFF7B
:10960000FFFFFFFFFFFFFFFFFFFFFFFFFFFFFFFF6A
:10961000FFFFDFF75FC71FAFFE9EFE9EFE9EFE9E12
:10962000FE9EFE9EFE9EFE9EFE9EFE9EFE9EFEA652
:109630003FBF9FDFFFFFFFFFFFFFFFFFFFFFFFFFBA
:10964000FFFFFFFFFFFFFFFFFFFFFFFFFFFFFFFF2A
:10965000FFFFFFFFFFFFFFFFFFFFFFFFFFFFFFFF1A
:10966000FFFFFFFFFFFFFFFFFFFFFFFFFFFFFFFF0A
:10967000FFFFFFFFFFFFFFFFFFFFFFFFFFFFFFFFFA
:10968000FFFFFFFFFFFFFFFFFFFFFFFFFFFFFFFFEA
:10969000FFFFFFFFFFFFFFFFFFFFFFFFFFFFFFFFDA
:1096A000FFFFFFFFFFFFFFFFFFFFFFFFFFFFFFFFCA
:1096B0009FD71FAFFE9EFE9EFE9EFE9EFE9EFE9EBE
:1096C000FE9EFE9EFE9EFE9EFE9EFE9EFE9EFE9EBA
:1096D000FE9EFEA65FBFDFF7FFFFFFFFFFFFFFFF5E
:1096E000FFFFFFFFFFFFFFFFFFFFFFFFFFFFFFFF8A
:1096F000FFFFFFFFFFFFFFFFFFFFFFFFFFFFFFFF7A
:10970000FFFFFFFFFFFFFFFFFFFFFFFFFFFFFFFF69
:10971000FFFFFFFFFFFFFFFFFFFFFFFFFFFFFFFF59
:10972000FFFFFFFFFFFFFFFFFFFFFFFFFFFFFFFF49
:10973000FFFFFFFFFFFFFFFFFFFFFFFFFFFFFFFF39
:10974000FFFFFFFFFFFFFFFFFFFFFFFFFFFF5FC701
:10975000FEA6FE9EFE9EFE9EFE9EFE9EFE9EFE9E21
:10976000FE9EFE9EFE9EFE9EFE9EFE9EFE9EFE9E19
:10977000FE9EFE9EFE9E1FAFBFE7FFFFFFFFFFFFA7
:10978000FFFFFFFFFFFFFFFFFFFFFFFFFFFFFFFFE9
:10979000FFFFFFFFFFFFFFFFFFFFFFFFFFFFFFFFD9
:1097A000FFFFFFFFFFFFFFFFFFFFFFFFFFFFFFFFC9
:1097B000FFFFFFFFFFFFFFFFFFFFFFFFFFFFFFFFB9
:1097C000FFFFFFFFFFFFFFFFFFFFFFFFFFFFFFFFA9
:1097D000FFFFFFFFFFFFFFFFFFFFFFFFFFFFFFFF99
:1097E000FFFFFFFFFFFFFFFFFFFFFFFF5FBFFE9ECB
:1097F000FE9EFE9EFE9EFE9EFE9EFE9EFE9EFE9E89
:10980000FE9EFE9EFE9EFE9EFE9EFE9EFE9EFE9E78
:10981000FE9EFE9EFE9EFE9E1EA7BFE7FFFFFFFF71
:10982000FFFFFFFFFFFFFFFFFFFFFFFFFFFFFFFF48
:10983000FFFFFFFFFFFFFFFFFFFFFFFFFFFFFFFF38
:10984000FFFFFFFFFFFFFFFFFFFFFFFFFFFFFFFF28
:10985000FFFFFFFFFFFFFFFFFFFFFFFFFFFFFFFF18
:10986000FFFFFFFFFFFFFFFFFFFFFFFFFFFFFFFF08
:10987000FFFFFFFFFFFFFFFFFFFFFFFFFFFFFFFFF8
:10988000FFFFFFFFFFFFFFFFFFFF5FC7FE9EFE9E84
:10989000FE9EFE9EFE9EFE9EFE9EFE9EFE9EFE9EE8
:1098A000FE9EFE9EFE9EFE9EFE9EFE9EFE9EFE9ED8
:1098B000FE9EFE9EFE9EFE9EFE9E1FA7BFEFFFFF2A
:1098C000FFFFFFFFFFFFFFFFFFFFFFFFFFFFFFFFA8
:1098D000FFFFFFFFFFFFFFFFFFFFFFFFFFFFFFFF98
:1098E000FFFFFFFFFFFFFFFFFFFFFFFFFFFFFFFF88
:1098F000FFFFFFFFFFFFFFFFFFFFFFFFFFFFFFFF78
:10990000FFFFFFFFFFFFFFFFFFFFFFFFFFFFFFFF67
:10991000FFFFFFFFFFFFFFFFFFFFFFFFFFFFFFFF57
:10992000FFFFFFFFFFFFFFFF7FD7FE9EFE9EFE9E15
:10993000FE9EFE9EFE9EFE9EFE9EFE9EFE9EFE9E47
:10994000FE9EFE9EFE9EFE9EFE9EFE9EFE9EFE9E37
:10995000FE9EFE9EFE9EFE9EFE9EFE9E1FAFFFF79B
:10996000FFFFFFFFFFFFFFFFFFFFFFFFFFFFFFFF07
:10997000FFFFFFFFFFFFFFFFFFFFFFFFFFFFFFFFF7
:10998000FFFFFFFFFFFFFFFFFFFFFFFFFFFFFFFFE7
:10999000FFFFFFFFFFFFFFFFFFFFFFFFFFFFFFFFD7
:1099A000FFFFFFFFFFFFFFFFFFFFFFFFFFFFFFFFC7
:1099B000FFFFFFFFFFFFFFFFFFFFFFFFFFFFFFFFB7
:1099C000FFFFFFFFFFFFBFEF1EA7FE9EFE9EFE9E56
:1099D000FE9EFE9EFE9EFE9EFE9EFE9EFE9EFE9EA7
:1099E000FE9EFE9EFE9EFE9EFE9EFE9EFE9EFE9E97
:1099F000FE9EFE9EFE9EFE9EFE9EFE9EFE9E7FC7DD
:109A0000FFFFFFFFFFFFFFFFFFFFFFFFFFFFFFFF66
:109A1000FFFFFFFFFFFFFFFFFFFFFFFFFFFFFFFF56
:109A2000FFFFFFFFFFFFFFFFFFFFFFFFFFFFFFFF46
:109A3000FFFFFFFFFFFFFFFFFFFFFFFFFFFFFFFF36
:109A4000FFFFFFFFFFFFFFFFFFFFFFFFFFFFFFFF26
:109A5000FFFFFFFFFFFFFFFFFFFFFFFFFFFFFFFF16
:109A6000FFFFFFFFFFFF5FC7FE9EFE9EFE9EFE9E66
:109A7000FE9EFE9EFE9EFE9EFE9EFE9EFE9EFE9E06
:109A8000FE9EFE9EFE9EFE9EFE9EFE9EFE9EFE9EF6
:109A9000FE9EFE9EFE9EFE9EFE9EFE9EFE9EFE9EE6
:109AA000DFEFFFFFFFFFFFFFFFFFFFFFFFFFFFFFF6
:109AB000FFFFFFFFFFFFFFFFFFFFFFFFFFFFFFFFB6
:109AC000FFFFFFFFFFFFFFFFFFFFFFFFFFFFFFFFA6
:109AD000FFFFFFFFFFFFFFFFFFFFFFFFFFFFFFFF96
:109AE000FFFFFFFFFFFFFFFFFFFFFFFFFFFFFFFF86
:109AF000FFFFFFFFFFFFFFFFFFFFFFFFFFFFFFFF76
:109B0000FFFFFFFFDFEF1EA7FE9EFE9EFE9EFE9E56
:109B1000FE9EFE9EFE9EFE9EFE9EFE9EFE9EFE9E65
:109B2000FE9EFE9EFE9EFE9EFE9EFE9EFE9EFE9E55
:109B3000FE9EFE9EFE9EFE9EFE9EFE9EFE9EFE9E45
:109B40005FC7FFFFFFFFFFFFFFFFFFFFFFFFFFFFFD
:109B5000FFFFFFFFFFFFFFFFFFFFFFFFFFFFFFFF15
:109B6000FFFFFFFFFFFFFFFFFFFFFFFFFFFFFFFF05
:109B7000FFFFFFFFFFFFFFFFFFFFFFFFFFFFFFFFF5
:109B8000FFFFFFFFFFFFFFFFFFFFFFFFFFFFFFFFE5
:109B9000FFFFFFFFFFFFFFFFFFFFFFFFFFFFFFFFD5
:109BA000FFFFFFFF7FCFFE9EFE9EFE9EFE9EFE9E5F
:109BB000FE9EFE9EFE9EFE9EFE9EFE9EFE9EFE9EC5
:109BC000FE9EFE9EFE9EFE9EFE9EFE9EFE9EFE9EB5
:109BD000FE9EFE9EFE9EFE9EFE9EFE9EFE9EFE9EA5
:109BE0001EA7DFF7FFFFFFFFFFFFFFFFFFFFFFFFE6
:109BF000FFFFFFFFFFFFFFFFFFFFFFFFFFFFFFFF75
:109C0000FFFFFFFFFFFFFFFFFFFFFFFFFFFFFFFF64
:109C1000FFFFFFFFFFFFFFFFFFFFFFFFFFFFFFFF54
:109C2000FFFFFFFFFFFFFFFFFFFFFFFFFFFFFFFF44
:109C3000FFFFFFFFFFFFFFFFFFFFDFF7DFEFDFEFBC
:109C4000FFFFFFFF3FB7FE9EFE9EFE9EFE9EFE9E16
:109C5000FE9EFE9EFE9EFE9EFE9EFE9EFE9EFE9E24
:109C6000FE9EFE9EFE9EFE9EFE9EFE9EFE9EFE9E14
:109C7000FE9EFE9EFE9EFE9EFE9EFE9EFE9EFE9E04
:109C8000FEA69FD7FFFFFFFFFFFFFFFFFFFFFFFFC6
:109C9000FFFFFFFFFFFFFFFFFFFFFFFFFFFFFFFFD4
:109CA000FFFFFFFFFFFFFFFFFFFFFFFFFFFFFFFFC4
:109CB000FFFFFFFFFFFFFFFFFFFFFFFFFFFFFFFFB4
:109CC000FFFFFFFFFFFFFFFFFFFFFFFFFFFFFFFFA4
:109CD000FFFFFFFFDFEF5EC7FE9EBD8EBD8EBD8E18
:109CE000BD8E1EA71FA7FE9EFE9EFE9EFE9EFE9E92
:109CF000FE9EFE9EFE9EFE9EFE9EFE9EFE9EFE9E84
:109D0000FE9EFE9EFE9EFE9EFE9EFE9EFE9EFE9E73
:109D1000FE9EFE9EFE9EFE9EFE9EFE9EFE9EFE9E63
:109D2000FE9E5FC7FFFFFFFFFFFFFFFFFFFFFFFF7D
:109D3000FFFFFFFFFFFFFFFFFFFFFFFFFFFFFFFF33
:109D4000FFFFFFFFFFFFFFFFFFFFFFFFFFFFFFFF23
:109D5000FFFFFFFFFFFFFFFFFFFFFFFFFFFFFFFF13
:109D6000FFFFFFFFFFFFFFFFFFFFFFFFFFFFFFFF03
:109D7000FFFF5EC7BD8E9D86BD86BD86BD86BD8646
:109D80009D7EBE8EFFA6FE9EFE9EFE9EFE9EFE9EBB
:109D9000FE9EFE9EFE9EFE9EFE9EFE9EFE9EFE9EE3
:109DA000FE9EFE9EFE9EFE9EFE9EFE9EFE9EFE9ED3
:109DB000FE9EFE9EFE9EFE9EFE9EFE9EFE9EFE9EC3
:109DC000FE9E3FB7FFFFFFFFFFFFFFFFFFFFFFFF0D
:109DD000FFFFFFFFFFFFFFFFFFFFFFFFFFFFFFFF93
:109DE000FFFFFFFFFFFFFFFFFFFFFFFFFFFFFFFF83
:109DF000FFFFFFFFFFFFFFFFFFFFFFFFFFFFFFFF73
:109E0000FFFFFFFFFFFFFFFFFFFFFFFFFFFFFFF76A
:109E10001EAF9D7E9D86BD86BD86BD86BD86BD86E8
:109E20009D7EDE8E1FA7FE9EFE9EFE9EFE9EFE9ED9
:109E3000FE9EFE9EFE9EFE9EFE9EFE9EFE9EFE9E42
:109E4000FE9EFE9EFE9EFE9EFE9EFE9EFE9EFE9E32
:109E5000FE9EFE9EFE9EFE9EFE9EFE9EFE9EFE9E22
:109E6000FE9E3FAFFFF7FFFFFFFFFFFFFFFFFFFF7C
:109E7000FFFFFFFFFFFFFFFFFFFFFFFFFFFFFFFFF2
:109E8000FFFFFFFFFFFFFFFFFFFFFFFFFFFFFFFFE2
:109E9000FFFFFFFFFFFFFFFFFFFFFFFFFFFFFFFFD2
:109EA000FFFFDFEFBFE79FD79FDFDFEFDFF71EAFDB
:109EB0009D86BD86BD86BD86BD86BD86BD86BD86AA
:109EC0009D7EDE8EFFA6FE9EFE9EFE9EFE9EFE9E5A
:109ED000FE9EFE9EFE9EFE9EFE9EFE9EFE9EFE9EA2
:109EE000FE9EFE9EFE9EFE9EFE9EFE9EFE9EFE9E92
:109EF000FE9EFE9EFE9EFE9EFE9EFE9EFE9EFE9E82
:109F0000FE9E1FAFFFF7FFFFFFFFFFF7FFFFFFFF03
:109F1000FFFFFFFFFFFFFFFFFFFFFFFFFFFFFFFF51
:109F2000FFFFFFFFFFFFFFFFFFFFFFFFFFFFFFFF41
:109F3000FFFFFFFFFFFFFFFFFFFFFFFFDFEF5EC73A
:109F4000FE9EBD8EBD8EBD86BD86BD8EDD8E9D8680
:109F5000BD86BD86BD86BD86BD86BD86BD86BD86E9
:109F60009D7EBE8EFFA6FE9EFE9EFE9EFE9EFE9ED9
:109F7000FE9EFE9EFE9EFE9EFE9EFE9EFE9EFE9E01
:109F8000FE9EFE9EFE9EFE9EFE9EFE9EFE9EFE9EF1
:109F9000FE9EFE9EFE9EFE9EFE9EFE9EFE9EFE9EE1
:109FA000FE9E1FA75FC73FB71FAF1FAF1FAF3FB7D3
:109FB0005FC7BFDFFFFFFFFFFFFFFFFFFFFFFFFFE9
:109FC000FFFFFFFFFFFFFFFFFFFFFFFFFFFFFFFFA1
:109FD000FFFFFFFFFFFFFFFFDFF75EC7BD869D8628
:109FE000BD86BD86BD86BD86BD86BD86BD86BD8659
:109FF000BD86BD86BD86BD86BD86BD86BD86BD8649
:10A000009D7EBE8EFFA6FE9EFE9EFE9EFE9EFE9E38
:10A01000FE9EFE9EFE9EFE9EFE9EFE9EFE9EFE9E60
:10A02000FE9EFE9EFE9EFEA6FE9EFE9EFE9EFE9E48
:10A03000FE9EFE9EFE9EFE9EFE9EFE9EFE9EFE9E40
:10A04000FE9EFE9EFE9EFE9EFE9EFE9EFE9EFE9E30
:10A05000FE9EFE9E1FAF9FDFFFFFFFFFFFFFFFFF84
:10A06000FFFFFFFFFFFFFFFFFFFFFFFFFFFFFFFF00
:10A07000FFFFFFFFFFFFBFEFFEA69D86BD86BD86EB
:10A08000BD86BD86BD86BD86BD86BD86BD86BD86B8
:10A09000BD86BD86BD86BD86BD86BD86BD86BD86A8
:10A0A0009D86BD8EFEA6FEA6FE9EFE9EFE9EFE9E8A
:10A0B000FE9EFE9EFE9EFE9EFE9EFE9EFE9EFE9EC0
:10A0C000FE9EFEA61F9F5F97FF9EFEA6FE9EFE9E23
:10A0D000FE9EFE9EFE9EFE9EFE9EFE9EFE9EFE9EA0
:10A0E000FE9EFE9EFE9EFE9EFE9EFE9EFE9EFE9E90
:10A0F000FE9EFE9EFE9EFE9E3FBFDFF7FFFFFFFF20
:10A10000FFFFFFFFFFFFFFFFFFFFFFFFFFFFFFFF5F
:10A11000FFFFFFFFBFE7DD969D86BD86BD86BD863E
:10A12000BD86BD86BD86BD86BD86BD86BD86BD8617
:10A13000BD86BD86BD86BD86BD86BD86BD86BD8607
:10A14000BD86BD86FE9EFFA6FE9EFE9EFE9EFE9ED8
:10A15000FE9EFE9EFE9EFE9EFE9EFE9EFE9EFE9E1F
:10A16000FEA61F9F1F9F99AEFF9EFF9EFE9EFE9E16
:10A17000FE9EFE9EFE9EFE9EFE9EFE9EFE9EFE9EFF
:10A18000FE9EFE9EFE9EFE9EFE9EFE9EFE9EFE9EEF
:10A19000FE9EFE9EFE9EFE9EFE9E1FAFDFEFFFFF19
:10A1A000FFFFFFFFFFFFFFFFFFFFFFFFFFFFFFFFBF
:10A1B000FFFFDFF7FE9EBD86BD86BD86BD86BD86E0
:10A1C000BD86BD86BD86BD86BD86BD86BD86BD8677
:10A1D000BD86BD86BD86BD86BD86BD86BD86BD8667
:10A1E000BD86BD86FE9EFFA6FE9EFE9EFE9EFE9E38
:10A1F000FE9EFE9EFE9EFE9EFE9EFE9EFE9EFEA677
:10A200001F9F7F97EDD445F41DA71F9FFEA6FE9EBE
:10A21000FE9EFE9EFE9EFE9EFE9EFE9EFE9EFE9E5E
:10A22000FE9EFE9EFE9EFE9EFE9EFE9EFE9EFE9E4E
:10A23000FE9EFE9EFE9EFE9EFE9EFE9E3FB7DFF7AA
:10A24000FFFFFFFFFFFFFFFFFFFFFFFFFFFFFFFF1E
:10A25000FFFF3EB79D86BD86BD86BD86BD86BD8699
:10A26000BD86BD86BD86BD86BD86BD86BD86BD86D6
:10A27000BD86BD86BD86BD86BD86BD86BD86BD86C6
:10A28000BD869D7EDE961FA7FE9EFE9EFE9EFE9EC6
:10A29000FE9EFE9EFE9EFE9EFE9EFE9EFE9EFF9EDD
:10A2A0009F8FB3BD60FB48E51F9F1F9FFEA6FE9ECC
:10A2B000FE9EFE9EFE9EFE9EFE9EFE9EFE9EFE9EBE
:10A2C000FE9EFE9EFE9EFE9EFE9EFE9EFE9EFE9EAE
:10A2D000FE9EFE9EFE9EFE9EFE9EFE9EFE9E5FC714
:10A2E000FFFFFFFFFFFFFFFFFFFFFFFFFFFFFFFF7E
:10A2F000BFE7BD8E9D86BD86BD86BD86BD86BD86FB
:10A30000BD86BD86BD86BD86BD86BD86BD86BD8635
:10A31000BD86BD86BD86BD86BD86BD86BD86BD8625
:10A32000BD869D7EDE96FFA6FE9EFE9EFE9EFE9E46
:10A33000FE9EFE9EFE9EFE9EFE9EFE9EFEA67F97BB
:10A3400079AEA3F360FC33C65F97FEA6FE9EFE9E29
:10A35000FE9EFE9EFE9EFE9EFE9EFE9EFE9EFE9E1D
:10A36000FE9EFE9EFE9EFE9EFE9EFE9EFE9EFE9E0D
:10A37000FE9EFE9EFE9EFE9EFE9EFE9EFE9EFEA6F5
:10A38000BFE7FFFFFFFFFFFFFFFFFFFFFFFFFFFF35
:10A390003EBF9D86BD86BD86BD86BD86BD86BD860B
:10A3A000BD86BD86BD86BD86BD86BD86BD86BD8695
:10A3B000BD86BD86BD86BD86BD86BD86BD86BD8685
:10A3C000BD869D86BD86FFA6FFA6FE9EFE9EFE9EC6
:10A3D000FE9EFE9EFE9EFE9EFE9EFEA63F9F3E9F12
:10A3E00027EC00FC04F5BCA61F97FE9EFE9EFE9E79
:10A3F000FE9EFE9EFE9EFE9EFE9EFE9EFE9EFE9E7D
:10A40000FE9EFE9EFE9EFE9EFE9EFE9EFE9EFE9E6C
:10A41000FE9EFE9EFE9EFE9EFE9EFE9EFE9EFE9E5C
:10A420005FBFFFFFFFFFFFFFFFFFFFFFFFFFDFF744
:10A43000DD969D86BD86BD86BD86BD86BD86BD86F4
:10A44000BD86BD86BD86BD86BD86BD86BD86BD86F4
:10A45000BD86BD86BD86BD86BD86BD86BD86BD86E4
:10A46000BD86BD869D86FE9EFFA6FE9EFE9EFE9E2E
:10A47000FE9EFE9EFE9EFE9EFE9EFF9E7F97EED45B
:10A48000A0FBC1FC8BDD3F97FF9EFE9EFE9EFE9EC5
:10A49000FE9EFE9EFE9EFE9EFE9EFE9EFE9EFE9EDC
:10A4A000FE9EFE9EFE9EFE9EFE9EFE9EFE9EFE9ECC
:10A4B000FE9EFE9EFE9EFE9EFE9EFE9EFE9EFE9EBC
:10A4C000FEA6DFEFFFFFFFFFFFFFFFFFFFFF9FDFA6
:10A4D000BD86BD86BD86BD86BD86BD86BD86BD8664
:10A4E000BD86BD86BD86BD86BD86BD86BD86BD8654
:10A4F000BD86BD86BD86BD86BD86BD86BD86BD8644
:10A50000BD86BD869D7EDE961FA7FE9EFE9EFE9E9C
:10A51000FE9EFE9EFE9EFE9EFEA67F97F5BD61FB03
:10A52000C4F4E1FC35BE3F97FE9EFE9EFE9EFE9E5D
:10A53000FE9EFE9EFE9EFE9EFE9EFE9EFE9EFE9E3B
:10A54000FE9EFE9EFE9EFE9EFE9EFE9EFE9EFE9E2B
:10A55000FE9EFE9EFE9EFE9EFE9EFE9EFE9EFE9E1B
:10A56000FE9E7FD7FFFFFFFFFFFFFFFFFFFF5EC7DE
:10A570009D86BD86BD86BD86BD86BD86BD86BD86E3
:10A58000BD86BD86BD86BD86BD86BD86BD86BD86B3
:10A59000BD86BD86BD86BD86BD86BD86BD86BD86A3
:10A5A000BD86BD869D86BD86FFA6FFA6FE9EFE9E3D
:10A5B000FE9EFE9EFE9EFEA67F97DBA6A3F343F4BF
:10A5C000E2FC05F5FCA61F9FFE9EFE9EFE9EFE9EE3
:10A5D000FE9EFE9EFE9EFE9EFE9EFE9EFE9EFE9E9B
:10A5E000FE9EFE9EFE9EFE9EFE9EFE9EFE9EFE9E8B
:10A5F000FE9EFE9EFE9EFE9EFE9EFE9EFE9EFE9E7B
:10A60000FE9E5FC7FFFFFFFFFFFFFFFFFFFF3EB79D
:10A61000BD86BD86BD86BD86BD86BD86BD86BD8622
:10A62000BD86BD86BD86BD86BD86BD86BD86BD8612
:10A63000BD86BD86BD86BD86BD86BD86BD86BD8602
:10A64000BD86BD869D869D86DE961FA7FE9EFE9ECC
:10A65000FE9EFE9EFEA63F9F5E9769E4A1FB05ED70
:10A66000C0FC6CDD3F971F9FFE9EFE9EFE9EFE9EE1
:10A67000FE9EFE9EFE9EFE9EFE9EFE9EFE9EFE9EFA
:10A68000FE9EFE9EFE9EFE9EFE9EFE9EFE9EFE9EEA
:10A69000FE9EFE9EFE9EFE9EFE9EFE9EFE9EFE9EDA
:10A6A000FE9E5FC7FFFFFFFFFFFFFFFFFFFF3EB7FD
:10A6B000BD86BD86BD86BD86BD86BD86BD86BD8682
:10A6C000BD86BD86BD86BD86BD86BD86BD86BD8672
:10A6D000BD86BD86BD86BD86BD86BD86BD86BD8662
:10A6E000BD86BD86BD869D7EBD86FFA6FEA6FE9E5E
:10A6F000FE9EFE9E1F9F9F8F4FCD40FBA5F403F54E
:10A70000A1FC55BE3F97FE9EFE9EFE9EFE9EFE9EB7
:10A71000FE9EFE9EFE9EFE9EFE9EFE9EFE9EFE9E59
:10A72000FE9EFE9EFE9EFE9EFE9EFE9EFE9EFE9E49
:10A73000FE9EFE9EFE9EFE9EFE9EFE9EFE9EFE9E39
:10A74000FE9E5FC7FFFFFFFFFFFFFFFFFFFF5EC72C
:10A75000BD86BD86BD86BD86BD86BD86BD86BD86E1
:10A76000BD86BD86BD86BD86BD86BD86BD86BD86D1
:10A77000BD86BD86BD86BD86BD86BD86BD86BD86C1
:10A78000BD86BD86BD86BD869D7EDE961FA7FE9ECC
:10A79000FE9EFE9E7F9736B661FB23F425F5C2FC34
:10A7A00005ED1C9F1F9FFEA6FE9EFE9EFE9EFE9E2A
:10A7B000FE9EFE9EFE9EFE9EFE9EFE9EFE9EFE9EB9
:10A7C000FE9EFE9EFE9EFE9EFE9EFE9EFE9EFE9EA9
:10A7D000FE9EFE9EFE9EFE9EFE9EFE9EFE9EFE9E99
:10A7E000FE9E5FC7FFFFFFFFFFFFFFFFFFFF9FD73B
:10A7F000BD86BD86BD86BD86BD86BD86BD86BD8641
:10A80000BD86BD86BD86BD86BD86BD86BD86BD8630
:10A81000BD86BD86BD86BD86BD86BD86BD86BD8620
:10A82000BD86BD86BD86BD869D86BD86FFA6FFA66C
:10A83000FEA63F97FC9EE4F3A2F3E5EC04F5A1FC31
:10A84000AED53F971F9FFE9EFE9EFE9EFE9EFE9EE5
:10A85000FE9EFE9EFE9EFE9EFE9EFE9EFE9EFE9E18
:10A86000FE9EFE9EFE9EFE9EFE9EFE9EFE9EFE9E08
:10A87000FE9EFE9EFE9EFE9EFE9EFE9EFE9EFE9EF8
:10A88000FE9E7FCFFFFFFFFFFFFFFFFFFFFFDFEF1A
:10A89000BD8E9D86BD86BD86BD86BD86BD86BD86B8
:10A8A000BD86BD86BD86BD86BD86BD86BD86BD8690
:10A8B000BD86BD86BD86BD86BD86BD86BD86BD8680
:10A8C000BD86BD86BD86BD86BD869D7EDE8EFEA60E
:10A8D0001F9F5F97AADC61FB85EC24F5E4F4A1FCE3
:10A8E00076B63F97FEA6FE9EFE9EFE9EFE9EFE9EB6
:10A8F000FE9EFE9EFE9EFE9EFE9EFE9EFE9EFE9E78
:10A90000FE9EFE9EFE9EFE9EFE9EFE9EFE9EFE9E67
:10A91000FE9EFE9EFE9EFE9EFE9EFE9EFE9EFE9E57
:10A92000FE9EBFE7FFFFFFFFFFFFFFFFFFFFFFFFF1
:10A930003EB79D7EBD86BD86BD86BD86BD86BD8675
:10A94000BD86BD86BD86BD86BD86BD86BD86BD86EF
:10A95000BD86BD86BD86BD86BD86BD86BD86BD86DF
:10A96000BD86BD86BD86BD86BD86BD869D7EFE9E9E
:10A970009F9791C560FB25EC04F504F5C3FC06ED3B
:10A98000FD9E1F9FFEA6FE9EFE9EFE9EFE9EFE9EBE
:10A99000FE9EFE9EFE9EFE9EFE9EFE9EFE9EFE9ED7
:10A9A000FE9EFE9EFE9EFE9EFE9EFE9EFE9EFE9EC7
:10A9B000FE9EFE9EFE9EFE9EFE9EFE9EFE9EFE9EB7
:10A9C0003FB7FFF7FFFFFFFFFFFFFFFFFFFFFFFFA7
:10A9D000BFDFBD86BD86BD86BD86BD86BD86BD8604
:10A9E000BD86BD86BD86BD86BD86BD86BD86BD864F
:10A9F000BD86BD86BD86BD86BD86BD86BD86BD863F
:10AA0000BD86BD86BD86BD86BD86BD869D861F77FB
:10AA100057AEA1FBC3F3C5F424F5E4F4A0FCCFCDFD
:10AA20003F97FFA6FE9EFE9EFE9EFE9EFE9EFE9E03
:10AA3000FE9EFE9EFE9EFE9EFE9EFE9EFE9EFE9E36
:10AA4000FE9EFE9EFE9EFE9EFE9EFE9EFE9EFE9E26
:10AA5000FE9EFE9EFE9EFE9EFE9EFE9EFE9EFE9E16
:10AA60009FD7FFFFFFFFFFFFFFFFFFFFFFFFFFFF7E
:10AA7000FFFF3EB79D86BD86BD86BD86BD86BD8671
:10AA8000BD86BD86BD86BD86BD86BD86BD86BD86AE
:10AA9000BD86BD86BD86BD86BD86BD86BD86BD869E
:10AAA000BD86BD86BD86BD86BD869D86FF7EBC7E7D
:10AAB00026E482FB65EC24F5E4F4E4F4A1FC98AE12
:10AAC0005F971F9F1F9F1F9F1F9F3F97FF9EFEA681
:10AAD000FE9EFE9EFE9EFE9EFE9EFE9EFE9EFE9E96
:10AAE000FE9EFE9EFE9EFE9EFE9EFE9EFE9EFE9E86
:10AAF000FE9EFE9EFE9EFE9EFE9EFE9EFE9E3FB71C
:10AB0000FFF7FFFFFFFFFFFFFFFFFFFFFFFFFFFF5D
:10AB1000FFFFDFEFDE96BD86BD86BD86BD86BD86A6
:10AB2000BD86BD86BD86BD86BD86BD86BD86BD860D
:10AB3000BD86BD86BD86BD86BD86BD86BD86BD86FD
:10AB4000BD86BD86BD86BD86BD86BE7E1F77CBD445
:10AB500060FB05EC04F504F5E5F4C2FC49E55F97FC
:10AB60005F973F971E9F1C9FBAAE99B6FEA6FF9EA9
:10AB7000FE9EFE9EFE9EFE9EFE9EFE9EFE9EFE9EF5
:10AB8000FE9EFE9EFE9EFE9EFE9EFE9EFE9EFE9EE5
:10AB9000FE9EFE9EFE9EFE9EFE9EFE9EFEA6BFE7C3
:10ABA000FFFFFFFFFFFFFFFFFFFFFFFFFFFFFFFFB5
:10ABB000FFFFFFFFBFE7DD8E9D86BD86BD86BD869C
:10ABC000BD86BD86BD86BD86BD86BD86BD86BD866D
:10ABD000BD86BD86BD86BD86BD86BD86BD86BD865D
:10ABE000BD86BD86BD86BD869D861F6F93AD80FBED
:10ABF000C4F3A5EC04F5E4F405F5C2FC8BDD34BE2A
:10AC0000AED58BDD48E506EDE4F480FC34BE3F971D
:10AC1000FF9EFE9EFE9EFE9EFE9EFE9EFE9EFE9E53
:10AC2000FE9EFE9EFE9EFE9EFE9EFE9EFE9EFE9E44
:10AC3000FE9EFE9EFE9EFE9EFE9EFE9E9FD7FFFFF8
:10AC4000FFFFFFFFFFFFFFFFFFFFFFFFFFFFFFFF14
:10AC5000FFFFFFFFFFFFBFE7DD9E9D86BD86BD8630
:10AC6000BD86BD86BD86BD86BD86BD86BD86BD86CC
:10AC7000BD86BD86BD86BD86BD86BD86BD86BD86BC
:10AC8000BD86BD86BD869D86FF765996C2F3C3F309
:10AC900045EC04F5E4F4E4F4E4F405F5E4F4A1FC93
:10ACA000A1FCC1FCA1FCC2FC80FCE6ECDBA61F9F62
:10ACB000FE9EFE9EFE9EFE9EFE9EFE9EFE9EFE9EB4
:10ACC000FE9EFE9EFE9EFE9EFE9EFE9EFE9EFE9EA4
:10ACD000FE9EFE9EFE9EFE9E1EA79FDFFFFFFFFFC5
:10ACE000FFFFFFFFFFFFFFFFFFFFFFFFFFFFFFFF74
:10ACF000FFFFFFFFFFFFFFFFDFF73EB7BD869D862B
:10AD0000BD86BD86BD86BD86BD86BD86BD86BD862B
:10AD1000BD86BD86BD86BD86BD86BD86BD86BD861B
:10AD2000BD86BD869D86FF7EDE7E26E4A2FB25ECE9
:10AD3000E4F404F504F504F504F504F5E4F4E4F4AE
:10AD4000E4F404F505F5C3F4C3F4B8AE5F97FEA6CA
:10AD5000FE9EFE9EFE9EFE9EFE9EFE9EFE9EFE9E13
:10AD6000FE9EFE9EFE9EFE9EFE9EFE9EFE9EFE9E03
:10AD7000FE9EFE9EFEA63FB7DFEFFFFFFFFFFFFF39
:10AD8000FFFFFFFFFFFFFFFFFFFFFFFFFFFFFFFFD3
:10AD9000FFFFFFFFFFFFFFFFFFFFFFFFBFE73EB724
:10ADA000DE96BD8EBD86BD86BD86BD86BD86BD8652
:10ADB000BD86BD86BD86BD86BD86BD86BD86BD867B
:10ADC0009D86BD861F773F77EDCC80FBE5EB85F454
:10ADD00044F524F504F504F504F5E4F4E4F404F58D
:10ADE000E4F4E4F4E4F4C2FC34BE5F8FFF9EFEA6FC
:10ADF000FE9EFE9EFE9EFE9EFE9EFE9EFE9EFE9E73
:10AE0000FE9EFE9EFE9EFE9EFE9EFE9EFEA61EA731
:10AE10001FAF5FBFBFDFFFFFFFFFFFFFFFFFFFFFB2
:10AE2000FFFFFFFFFFFFFFFFFFFFFFFFFFFFFFFF32
:10AE3000FFFFFFFFFFFFFFFFFFFFFFFFFFFFFFFF22
:10AE4000FFFFBFE77FCF7FCF7FCF7FCF7FCF7FCF8A
:10AE50007FCF7FCF7FCF7FCF7FCF7FCF7FCF7FCF82
:10AE60007FC77FC75BDF55D6A1FB04F405EC45F433
:10AE700084F485F465F445F425F405ECA4F404F5B4
:10AE8000E4F4E4F4C2FC30EEBFD79FD79FD79FD73E
:10AE90009FD79FD79FD79FD79FD79FD79FD79FD702
:10AEA0009FD79FD79FD79FD79FD79FD79FD7BFE7C2
:10AEB000DFF7FFFFFFFFFFFFFFFFFFFFFFFFFFFFCA
:10AEC000FFFFFFFFFFFFFFFFFFFFFFFFFFFFFFFF92
:10AED000FFFFFFFFFFFFFFFFFFFFFFFFFFFFFFFF82
:10AEE000FFFFFFFFFFFFFFFFFFFFFFFFFFFFFFFF72
:10AEF000FFFFFFFFFFFFFFFFFFFFFFFFFFFFFFFF62
:10AF0000FFFFFFFF9DFF87FC04F405EC05EC05EC5B
:10AF1000E5EBE5EBE5EBE5EBC5EB05EC04F504F55E
:10AF2000E4F4E4F4AAFDFFFFFFFFFFFFFFFFFFFFD4
:10AF3000FFFFFFFFFFFFFFFFFFFFFFFFFFFFFFFF21
:10AF4000FFFFFFFFFFFFFFFFFFFFFFFFFFFFFFFF11
:10AF5000FFFFFFFFFFFFFFFFFFFFFFFFFFFFFFFF01
:10AF6000FFFFFFFFFFFFFFFFFFFFFFFFFFFFFFFFF1
:10AF7000FFFFFFFFFFFFFFFFFFFFFFFFFFFFFFFFE1
:10AF8000FFFFFFFFFFFFFFFFFFFFFFFFFFFFFFFFD1
:10AF9000FFFFFFFFFFFFFFFFFFFFFFFFFFFFFFFFC1
:10AFA000FFFFBDFFC9F4E4F305EC05EC05EC05EC8F
:10AFB00005EC05EC05EC05ECE5EBC4F404F5E4F474
:10AFC000E4F448F57BFFFFFFFFFFFFFFFFFFFFFFFC
:10AFD000FFFFFFFFFFFFFFFFFFFFFFFFFFFFFFFF81
:10AFE000FFFFFFFFFFFFFFFFFFFFFFFFFFFFFFFF71
:10AFF000FFFFFFFFFFFFFFFFFFFFFFFFFFFFFFFF61
:10B00000FFFFFFFFFFFFFFFFFFFFFFFFFFFFFFFF50
:10B01000FFFFFFFFFFFFFFFFFFFFFFFFFFFFFFFF40
:10B02000FFFFFFFFFFFFFFFFFFFFFFFFFFFFFFFF30
:10B03000FFFFFFFFFFFFFFFFFFFFFFFFFFFFFFFF20
:10B04000FFFF53FEE5EB05EC05EC26F426F467F470
:10B0500046F405EC05ECE5EB45EC04F504F5E4F409
:10B0600005F517FFFFFFFFFFFFFFFFFFFFFFFFFFDC
:10B07000FFFFFFFFFFFFFFFFFFFFFFFFFFFFFFFFE0
:10B08000FFFFFFFFFFFFFFFFFFFFFFFFFFFFFFFFD0
:10B09000FFFFFFFFFFFFFFFFFFFFFFFFFFFFFFFFC0
:10B0A000FFFFFFFFFFFFFFFFFFFFFFFFFFFFFFFFB0
:10B0B000FFFFFFFFFFFFFFFFFFFFFFFFFFFFFFFFA0
:10B0C000FFFFFFFFFFFFFFFFFFFFFFFFFFFFFFFF90
:10B0D000FFFFFFFFFFFFFFFFFFFFFFFFFFFFFFFF80
:10B0E000FFFF5AFFB0F512F675FEB7FE18FF9DFF81
:10B0F000F0F505EC05ECE5EBC4F404F5E4F4E4F458
:10B1000092FEFFFFFFFFFFFFFFFFFFFFFFFFFFFFBD
:10B11000FFFFFFFFFFFFFFFFFFFFFFFFFFFFFFFF3F
:10B12000FFFFFFFFFFFFFFFFFFFFFFFFFFFFFFFF2F
:10B13000FFFFFFFFFFFFFFFFFFFFFFFFFFFFFFFF1F
:10B14000FFFFFFFFFFFFFFFFFFFFFFFFFFFFFFFF0F
:10B15000FFFFFFFFFFFFFFFFFFFFFFFFFFFFFFFFFF
:10B16000FFFFFFFFFFFFFFFFFFFFFFFFFFFFFFFFEF
:10B17000FFFFFFFFFFFFFFFFFFFFFFFFFFFFFFFFDF
:10B18000FFFFFFFFFFFFFFFFFFFFFFFFFFFFBDFF11
:10B190000BF505ECE5EB65F424F5E4F4E4F4EDF5EA
:10B1A000FFFFFFFFFFFFFFFFFFFFFFFFFFFFFFFFAF
:10B1B000FFFFFFFFFFFFFFFFFFFFFFFFFFFFFFFF9F
:10B1C000FFFFFFFFFFFFFFFFFFFFFFFFFFFFFFFF8F
:10B1D000FFFFFFFFFFFFFFFFFFFFFFFFFFFFFFFF7F
:10B1E000FFFFFFFFFFFFFFFFFFFFFFFFFFFFFFFF6F
:10B1F000FFFFFFFFFFFFFFFFFFFFFFFFFFFFFFFF5F
:10B20000FFFFFFFFFFFFFFFFFFFFFFFFFFFFFFFF4E
:10B21000FFFFFFFFFFFFFFFFFFFFFFFFFFFFFFFF3E
:10B22000FFFFFFFFFFFFFFFFFFFFFFFFFFFFB6FE78
:10B2300005EC05EC05ECE4F404F5E4F469F5BDFF78
:10B24000FFFFFFFFFFFFFFFFFFFFFFFFFFFFFFFF0E
:10B25000FFFFFFFFFFFFFFFFFFFFFFFFFFFFFFFFFE
:10B26000FFFFFFFFFFFFFFFFFFFFFFFFFFFFFFFFEE
:10B27000FFFFFFFFFFFFFFFFFFFFFFFFFFFFFFFFDE
:10B28000FFFFFFFFFFFFFFFFFFFFFFFFFFFFFFFFCE
:10B29000FFFFFFFFFFFFFFFFFFFFFFFFFFFFFFFFBE
:10B2A000FFFFFFFFFFFFFFFFFFFFFFFFFFFFFFFFAE
:10B2B000FFFFFFFFFFFFFFFFFFFFFFFFFFFFFFFF9E
:10B2C000FFFFFFFFFFFFFFFFFFFFFFFFDFFF8EF529
:10B2D00005ECE5EB84F424F5E4F426F57BFFFFFFB1
:10B2E000FFFFFFFFFFFFFFFFFFFFFFFFFFFFFFFF6E
:10B2F000FFFFFFFFFFFFFFFFFFFFFFFFFFFFFFFF5E
:10B30000FFFFFFFFFFFFFFFFFFFFFFFFFFFFFFFF4D
:10B31000FFFFFFFFFFFFFFFFFFFFFFFFFFFFFFFF3D
:10B32000FFFFFFFFFFFFFFFFFFFFFFFFFFFFFFFF2D
:10B33000FFFFFFFFFFFFFFFFFFFFFFFFFFFFFFFF1D
:10B34000FFFFFFFFFFFFFFFFFFFFFFFFFFFFFFFF0D
:10B35000FFFFFFFFFFFFFFFFFFFFFFFFFFFFFFFFFD
:10B36000FFFFFFFFFFFFFFFFFFFFFFFF7BFF46F435
:10B37000E5EB25EC04F504F505F5F6FEFFFFFFFF10
:10B38000FFFFFFFFFFFFFFFFFFFFFFFFFFFFFFFFCD
:10B39000FFFFFFFFFFFFFFFFFFFFFFFFFFFFFFFFBD
:10B3A000FFFFFFFFFFFFFFFFFFFFFFFFFFFFFFFFAD
:10B3B000FFFFFFFFFFFFFFFFFFFFFFFFFFFFFFFF9D
:10B3C000FFFFFFFFFFFFFFFFFFFFFFFFFFFFFFFF8D
:10B3D000FFFFFFFFFFFFFFFFFFFFFFFFFFFFFFFF7D
:10B3E000FFFFFFFFFFFFFFFFFFFFFFFFFFFFFFFF6D
:10B3F000FFFFFFFFFFFFFFFFFFFFFFFFFFFFFFFF5D
:10B40000FFFFFFFFFFFFFFFFFFFFFFFF53FEE5EB27
:10B41000E5EBA4F404F5E4F451FEFFFFFFFFFFFFAA
:10B42000FFFFFFFFFFFFFFFFFFFFFFFFFFFFFFFF2C
:10B43000FFFFFFFFFFFFFFFFFFFFFFFFFFFFFFFF1C
:10B44000FFFFFFFFFFFFFFFFFFFFFFFFFFFFFFFF0C
:10B45000FFFFFFFFFFFFFFFFFFFFFFFFFFFFFFFFFC
:10B46000FFFFFFFFFFFFFFFFFFFFFFFFFFFFFFFFEC
:10B47000FFFFFFFFFFFFFFFFFFFFFFFFFFFFFFFFDC
:10B48000FFFFFFFFFFFFFFFFFFFFFFFFFFFFFFFFCC
:10B49000FFFFFFFFFFFFFFFFFFFFFFFFFFFFFFFFBC
:10B4A000FFFFFFFFFFFFFFFFFFFFFFFF88F4E5EB5C
:10B4B00045F424F504F5CCF5DEFFFFFFFFFFFFFFA9
:10B4C000FFFFFFFFFFFFFFFFFFFFFFFFFFFFFFFF8C
:10B4D000FFFFFFFFFFFFFFFFFFFFFFFFFFFFFFFF7C
:10B4E000FFFFFFFFFFFFFFFFFFFFFFFFFFFFFFFF6C
:10B4F000FFFFFFFFFFFFFFFFFFFFFFFFFFFFFFFF5C
:10B50000FFFFFFFFFFFFFFFFFFFFFFFFFFFFFFFF4B
:10B51000FFFFFFFFFFFFFFFFFFFFFFFFFFFFFFFF3B
:10B52000FFFFFFFFFFFFFFFFFFFFFFFFFFFFFFFF2B
:10B53000FFFFFFFFFFFFFFFFFFFFFFFFFFFFFFFF1B
:10B54000FFFFFFFFFFFFFFFFFFFF19FFE5EBE5EB4D
:10B55000C4F404F547F5BDFFFFFFFFFFFFFFFFFF4A
:10B56000FFFFFFFFFFFFFFFFFFFFFFFFFFFFFFFFEB
:10B57000FFFFFFFFFFFFFFFFFFFFFFFFFFFFFFFFDB
:10B58000FFFFFFFFFFFFFFFFFFFFFFFFFFFFFFFFCB
:10B59000FFFFFFFFFFFFFFFFFFFFFFFFFFFFFFFFBB
:10B5A000FFFFFFFFFFFFFFFFFFFFFFFFFFFFFFFFAB
:10B5B000FFFFFFFFFFFFFFFFFFFFFFFFFFFFFFFF9B
:10B5C000FFFFFFFFFFFFFFFFFFFFFFFFFFFFFFFF8B
:10B5D000FFFFFFFFFFFFFFFFFFFFFFFFFFFFFFFF7B
:10B5E000FFFFFFFFFFFFFFFFFFFF6DF5C5EB65F4FA
:10B5F00024F505F539FFFFFFFFFFFFFFFFFFFFFF0A
:10B60000FFFFFFFFFFFFFFFFFFFFFFFFFFFFFFFF4A
:10B61000FFFFFFFFFFFFFFFFFFFFFFFFFFFFFFFF3A
:10B62000FFFFFFFFFFFFFFFFFFFFFFFFFFFFFFFF2A
:10B63000FFFFFFFFFFFFFFFFFFFFFFFFFFFFFFFF1A
:10B64000FFFFFFFFFFFFFFFFFFFFFFFFFFFFFFFF0A
:10B65000FFFFFFFFFFFFFFFFFFFFFFFFFFFFFFFFFA
:10B66000FFFFFFFFFFFFFFFFFFFFFFFFFFFFFFFFEA
:10B67000FFFFFFFFFFFFFFFFFFFFFFFFFFFFFFFFDA
:10B68000FFFFFFFFFFFFFFFF9CFF47F4E5EBE4F444
:10B6900004F5B4FEFFFFFFFFFFFFFFFFFFFFFFFF0B
:10B6A000FFFFFFFFFFFFFFFFFFFFFFFFFFFFFFFFAA
:10B6B000FFFFFFFFFFFFFFFFFFFFFFFFFFFFFFFF9A
:10B6C000FFFFFFFFFFFFFFFFFFFFFFFFFFFFFFFF8A
:10B6D000FFFFFFFFFFFFFFFFFFFFFFFFFFFFFFFF7A
:10B6E000FFFFFFFFFFFFFFFFFFFFFFFFFFFFFFFF6A
:10B6F000FFFFFFFFFFFFFFFFFFFFFFFFFFFFFFFF5A
:10B70000FFFFFFFFFFFFFFFFFFFFFFFFFFFFFFFF49
:10B71000FFFFFFFFFFFFFFFFFFFFFFFFFFFFFFFF39
:10B72000FFFFFFFFFFFFFFFF32F6E5EB85F424F597
:10B730002FF6FFFFFFFFFFFFFFFFFFFFFFFFFFFFF2
:10B74000FFFFFFFFFFFFFFFFFFFFFFFFFFFFFFFF09
:10B75000FFFFFFFFFFFFFFFFFFFFFFFFFFFFFFFFF9
:10B76000FFFFFFFFFFFFFFFFFFFFFFFFFFFFFFFFE9
:10B77000FFFFFFFFFFFFFFFFFFFFFFFFFFFFFFFFD9
:10B78000FFFFFFFFFFFFFFFFFFFFFFFFFFFFFFFFC9
:10B79000FFFFFFFFFFFFFFFFFFFFFFFFFFFFFFFFB9
:10B7A000FFFFFFFFFFFFFFFFFFFFFFFFFFFFFFFFA9
:10B7B000FFFFFFFFFFFFFFFFFFFFFFFFFFFFFFFF99
:10B7C000FFFFFFFFFFFFDEFF0BF505EC04F5AAF519
:10B7D000DEFFFFFFFFFFFFFFFFFFFFFFFFFFFFFF9A
:10B7E000FFFFFFFFFFFFFFFFFFFFFFFFFFFFFFFF69
:10B7F000FFFFFFFFFFFFFFFFFFFFFFFFFFFFFFFF59
:10B80000FFFFFFFFFFFFFFFFFFFFFFFFFFFFFFFF48
:10B81000FFFFFFFFFFFFFFFFFFFFFFFFFFFFFFFF38
:10B82000FFFFFFFFFFFFFFFFFFFFFFFFFFFFFFFF28
:10B83000FFFFFFFFFFFFFFFFFFFFFFFFFFFFFFFF18
:10B84000FFFFFFFFFFFFFFFFFFFFFFFFFFFFFFFF08
:10B85000FFFFFFFFFFFFFFFFFFFFFFFFFFFFFFFFF8
:10B86000FFFFFFFFFFFFF7FE05EC84F467F57AFFAB
:10B87000FFFFFFFFFFFFFFFFFFFFFFFFFFFFFFFFD8
:10B88000FFFFFFFFFFFFFFFFFFFFFFFFFFFFFFFFC8
:10B89000FFFFFFFFFFFFFFFFFFFFFFFFFFFFFFFFB8
:10B8A000FFFFFFFFFFFFFFFFFFFFFFFFFFFFFFFFA8
:10B8B000FFFFFFFFFFFFFFFFFFFFFFFFFFFFFFFF98
:10B8C000FFFFFFFFFFFFFFFFFFFFFFFFFFFFFFFF88
:10B8D000FFFFFFFFFFFFFFFFFFFFFFFFFFFFFFFF78
:10B8E000FFFFFFFFFFFFFFFFFFFFFFFFFFFFFFFF68
:10B8F000FFFFFFFFFFFFFFFFFFFFFFFFFFFFFFFF58
:10B90000FFFFFFFFFFFFD1F525EC25F517FFFFFF38
:10B91000FFFFFFFFFFFFFFFFFFFFFFFFFFFFFFFF37
:10B92000FFFFFFFFFFFFFFFFFFFFFFFFFFFFFFFF27
:10B93000FFFFFFFFFFFFFFFFFFFFFFFFFFFFFFFF17
:10B94000FFFFFFFFFFFFFFFFFFFFFFFFFFFFFFFF07
:10B95000FFFFFFFFFFFFFFFFFFFFFFFFFFFFFFFFF7
:10B96000FFFFFFFFFFFFFFFFFFFFFFFFFFFFFFFFE7
:10B97000FFFFFFFFFFFFFFFFFFFFFFFFFFFFFFFFD7
:10B98000FFFFFFFFFFFFFFFFFFFFFFFFFFFFFFFFC7
:10B99000FFFFFFFFFFFFFFFFFFFFFFFFFFFFFFFFB7
:10B9A000FFFFFFFF7BFF88F4A4F492FEFFFFFFFF81
:10B9B000FFFFFFFFFFFFFFFFFFFFFFFFFFFFFFFF97
:10B9C000FFFFFFFFFFFFFFFFFFFFFFFFFFFFFFFF87
:10B9D000FFFFFFFFFFFFFFFFFFFFFFFFFFFFFFFF77
:10B9E000FFFFFFFFFFFFFFFFFFFFFFFFFFFFFFFF67
:10B9F000FFFFFFFFFFFFFFFFFFFFFFFFFFFFFFFF57
:10BA0000FFFFFFFFFFFFFFFFFFFFFFFFFFFFFFFF46
:10BA1000FFFFFFFFFFFFFFFFFFFFFFFFFFFFFFFF36
:10BA2000FFFFFFFFFFFFFFFFFFFFFFFFFFFFFFFF26
:10BA3000FFFFFFFFFFFFFFFFFFFFFFFFFFFFFFFF16
:10BA4000FFFFFFFFF7FE44F40DF6FFFFFFFFFFFFD0
:10BA5000FFFFFFFFFFFFFFFFFFFFFFFFFFFFFFFFF6
:10BA6000FFFFFFFFFFFFFFFFFFFFFFFFFFFFFFFFE6
:10BA7000FFFFFFFFFFFFFFFFFFFFFFFFFFFFFFFFD6
:10BA8000FFFFFFFFFFFFFFFFFFFFFFFFFFFFFFFFC6
:10BA9000FFFFFFFFFFFFFFFFFFFFFFFFFFFFFFFFB6
:10BAA000FFFFFFFFFFFFFFFFFFFFFFFFFFFFFFFFA6
:10BAB000FFFFFFFFFFFFFFFFFFFFFFFFFFFFFFFF96
:10BAC000FFFFFFFFFFFFFFFFFFFFFFFFFFFFFFFF86
:10BAD000FFFFFFFFFFFFFFFFFFFFFFFFFFFFFFFF76
:10BAE000FFFFFFFF9CFF30F69BFFFFFFFFFFFFFF05
:10BAF000FFFFFFFFFFFFFFFFFFFFFFFFFFFFFFFF56
:10BB0000FFFFFFFFFFFFFFFFFFFFFFFFFFFFFFFF45
:10BB1000FFFFFFFFFFFFFFFFFFFFFFFFFFFFFFFF35
:10BB2000FFFFFFFFFFFFFFFFFFFFFFFFFFFFFFFF25
:10C94000FFFFFFFFFFFFFFFFFFFF9EFF6CF3D2F42F
:10C95000FFFFFFFFFFFFFFFFFFFFFFFFFFFFFFFFE7
:10C96000FFFFFFFFFFFFFFFFFFFFFFFFFFFFFFFFD7
:10C97000FFFFFFFFFFFFFFFFFFFFFFFFFFFFFFFFC7
:10C98000FFFFFFFFFFFFFFFFFFFFFFFFFFFFFFFFB7
:10C99000FFFFFFFFFFFFFFFFFFFFFFFFFFFFFFFFA7
:10C9A000FFFFFFFFFFFFFFFFFFFFFFFFFFFFFFFF97
:10C9B000FFFFFFFFFFFFFFFFFFFFFFFFFFFFFFFF87
:10C9C000FFFFFFFFFFFFFFFFFFFFFFFFFFFFFFFF77
:10C9D000FFFFFFFFFFFFFFFFFFFFFFFFFFFFFFFF67
:10C9E000FFFFFFFFFFFFFFFFFFFFB6F588EA88EAC2
:10C9F00070F47DFFFFFFFFFFFFFFFFFFFFFFFFFF63
:10CA0000FFFFFFFFFFFFFFFFFFFFFFFFFFFFFFFF36
:10CA1000FFFFFFFFFFFFFFFFFFFFFFFFFFFFFFFF26
:10CA2000FFFFFFFFFFFFFFFFFFFFFFFFFFFFFFFF16
:10CA3000FFFFFFFFFFFFFFFFFFFFFFFFFFFFFFFF06
:10CA4000FFFFFFFFFFFFFFFFFFFFFFFFFFFFFFFFF6
:10CA5000FFFFFFFFFFFFFFFFFFFFFFFFFFFFFFFFE6
:10CA6000FFFFFFFFFFFFFFFFFFFFFFFFFFFFFFFFD6
:10CA7000FFFFFFFFFFFFFFFFFFFFFFFFFFFFFFFFC6
:10CA8000FFFFFFFFFFFFFFFFFFFF70F488EA88EA68
:10CA900088EAC9EA13F5FBFEDFFFFFFFFFFF3CFF5B
:10CAA00038FEDEFFFFFFFFFFFFFFFFFFFFFFFFFF7F
:10CAB000FFFFFFFFFFFFFFFFFFFFFFFFFFFFFFFF86
:10CAC000FFFFFFFFFFFFFFFFFFFFFFFFFFFFFFFF76
:10CAD000FFFFFFFFFFFFFFFFFFFFFFFFFFFFFFFF66
:10CAE000FFFFFFFFFFFFFFFFFFFFFFFFFFFFFFFF56
:10CAF000FFFFFFFFFFFFFFFFFFFFFFFFFFFFFFFF46
:10CB0000FFFFFFFFFFFFFFFFFFFFFFFFFFFFFFFF35
:10CB1000FFFFFFFFFFFFFFFFFFFFFFFFFFFFFFFF25
:10CB2000FFFFFFFFFFFFFFFFFFFF6CF388EA88EACC
:10CB300088EA88EA88EA88EAEAEA4CF32BEB08EA12
:10CB400068F372FEFFFFFFFFFFFFFFFFFFFFFFFF26
:10CB5000FFFFFFFFFFFFFFFFFFFFFFFFFFFFFFFFE5
:10CB6000FFFFFFFFFFFFFFFFFFFFFFFFFFFFFFFFD5
:10CB7000FFFFFFFFFFFFFFFFFFFFFFFFFFFFFFFFC5
:10CB8000FFFFFFFFFFFFFFFFFFFFFFFFFFFFFFFFB5
:10CB9000FFFFFFFFFFFFFFFFFFFFFFFFFFFFFFFFA5
:10CBA000FFFFFFFFFFFFFFFFFFFFFFFFFFFFFFFF95
:10CBB000FFFFFFFFFFFFFFFFFFFFFFFFFFFFFFFF85
:10CBC000FFFFFFFFFFFFFFFF9EFFA9EA88EA88EA59
:10CBD00088EA88EA88EA88EA88EA88EA88EA08EA45
:10CBE00068F4E9FDFFFFFFFFFFFFFFFFFFFFFFFF0F
:10CBF000FFFFFFFFFFFFFFFFFFFFFFFFFFFFFFFF45
:10CC0000FFFFFFFFFFFFFFFFFFFFFFFFFFFFFFFF34
:10CC1000FFFFFFFFFFFFFFFFFFFFFFFFFFFFFFFF24
:10CC2000FFFFFFFFFFFFFFFFFFFFFFFFFFFFFFFF14
:10CC3000FFFFFFFFFFFFFFFFFFFFFFFFFFFFFFFF04
:10CC4000FFFFFFFFFFFFFFFFFFFFFFFFFFFFFFFFF4
:10CC5000FFFFFFFFFFFFFFFFFFFFFFFFFFFFFFFFE4
:10CC6000FFFFFFFFFFFFFFFFFBFE88EA88EA88EA7D
:10CC700088EA88EA88EA88EA88EA88EA48EAA8EA44
:10CC800027FDA7FDF8FEFFFFFFFFFFFFFFFFFFFFF0
:10CC9000FFFFFFFFFFFFFFFFFFFFFFFFFFFFFFFFA4
:10CCA000FFFFFFFFFFFFFFFFFFFFFFFFFFFFFFFF94
:10CCB000FFFFFFFFFFFFFFFFFFFFFFFFFFFFFFFF84
:10CCC000FFFFFFFFFFFFFFFFFFFFFFFFFFFFFFFF74
:10CCD000FFFFFFFFFFFFFFFFFFFFFFFFFFFFFFFF64
:10CCE000FFFFFFFFFFFFFFFFFFFFFFFFFFFFFFFF54
:10CCF000FFFFFFFFFFFFFFFFFFFFFFFFFFFFFFFF44
:10CD0000FFFFFFFFFFFFFFFF99FE88EA88EA88EA3E
:10CD100088EA88EA88EA88EA88EA88EA09EA67F31A
:10CD2000A7FD67FD6AFDFFFFFFFFFFFFFFFFFFFF9E
:10CD3000FFFFFFFFFFFFFFFFFFFFFFFFFFFFFFFF03
:10CD4000FFFFFFFFFFFFFFFFFFFFFFFFFFFFFFFFF3
:10CD5000FFFFFFFFFFFFFFFFFFFFFFFFFFFFFFFFE3
:10CD6000FFFFFFFFFFFFFFFFFFFFFFFFFFFFFFFFD3
:10CD7000FFFFFFFFFFFFFFFFFFFFFFFFFFFFFFFFC3
:10CD8000FFFFFFFFFFFFFFFFFFFFFFFFFFFFFFFFB3
:10CD9000FFFFFFFFFFFFFFFFFFFFFFFFFFFFFFFFA3
:10CDA000FFFFFFFFFFFFFFFF58FE88EA88EA88EADF
:10CDB00088EA88EA88EA88EA88EA88EA08EA47F49A
:10CDC000C7FD27FD67FDEEFDFFFFFFFFFFFFFFFF34
:10CDD000FFFFFFFFFFFFFFFFFFFFFFFFFFFFFFFF63
:10CDE000FFFFFFFFFFFFFFFFFFFFFFFFFFFFFFFF53
:10CDF000FFFFFFFFFFFFFFFFFFFFFFFFFFFFFFFF43
:10CE0000FFFFFFFFFFFFFFFFFFFFFFFFFFFFFFFF32
:10CE1000FFFFFFFFFFFFFFFFFFFFFFFFFFFFFFFF22
:10CE2000FFFFFFFFFFFFFFFFFFFFFFFFFFFFFFFF12
:10CE3000FFFFFFFFFFFFFFFFFFFFFFFFFFFFFFFF02
:10CE4000FFFFFFFFFFFFFFFF58FE88EA88EA88EA3E
:10CE500088EA88EA88EA88EA88EA49EA88EA06F5F8
:10CE600087FD47FD47FD67FDEDFD7CFFFFFFFFFFF1
:10CE7000FFFFFFFFFFFFFFFFFFFFFFFFFFFFFFFFC2
:10CE8000FFFFFFFFFFFFFFFFFFFFFFFFFFFFFFFFB2
:10CE9000FFFFFFFFFFFFFFFFFFFFFFFFFFFFFFFFA2
:10CEA000FFFFFFFFFFFFFFFFFFFFFFFFFFFFFFFF92
:10CEB000FFFFFFFFFFFFFFFFFFFFFFFFFFFFFFFF82
:10CEC000FFFFFFFFFFFFFFFFFFFFFFFFFFFFFFFF72
:10CED000FFFFFFFFFFFFFFFFFFFFFFFFFFFFFFFF62
:10CEE000FFFFFFFFFFFFFFFF79FE88EA88EA88EA7D
:10CEF00088EA88EA88EA88EA88EA09EA47EB86FD50
:10CF000048FD47FD47FD47FD67FD47FD31FE19FF21
:10CF1000BDFFFFFFDFFF7BFFD6FE9CFFFFFFFFFF94
:10CF2000FFFFFFFFFFFFFFFFFFFFFFFFFFFFFFFF11
:10CF3000FFFFFFFFFFFFFFFFFFFFFFFFFFFFFFFF01
:10CF4000FFFFFFFFFFFFFFFFFFFFFFFFFFFFFFFFF1
:10CF5000FFFFFFFFFFFFFFFFFFFFFFFFFFFFFFFFE1
:10CF6000FFFFFFFFFFFFFFFFFFFFFFFFFFFFFFFFD1
:10CF7000FFFFFFFFFFFFFFFFFFFFFFFFFFFFFFFFC1
:10CF8000FFFFFFFFFFFFFFFFDAFE88EA88EA88EA7B
:10CF900088EA88EA88EA88EA88EA09EA06F4A6FDC7
:10CFA00048FD47FD47FD47FD27FD67FD67FD47FD40
:10CFB00048FD8AFD69FDA7FDA9FCB0FCFFFFFFFF4E
:10CFC000FFFFFFFFFFFFFFFFFFFFFFFFFFFFFFFF71
:10CFD000FFFFFFFFFFFFFFFFFFFFFFFFFFFFFFFF61
:10CFE000FFFFFFFFFFFFFFFFFFFFFFFFFFFFFFFF51
:10CFF000FFFFFFFFFFFFFFFFFFFFFFFFFFFFFFFF41
:10D00000FFFFFFFFFFFFFFFFFFFFFFFFFFFFFFFF30
:10D01000FFFFFFFFFFFFFFFFFFFFFFFFFFFFFFFF20
:10D02000FFFFFFFFFFFFFFFF5DFF88EA88EA88EA56
:10D0300088EA88EA88EA88EA68EA48EA85F486FDA8
:10D0400047FD47FD47FD47FD47FD47FD47FD47FDC0
:10D0500047FD47FD67FD87FD4AFBCCF2FFFFFFFF61
:10D06000FFFFFFFFFFFFFFFFFFFFFFFFFFFFFFFFD0
:10D07000FFFFFFFFFFFFFFFFFFFFFFFFFFFFFFFFC0
:10D08000FFFFFFFFFFFFFFFFFFFFFFFFFFFFFFFFB0
:10D09000FFFFFFFFFFFFFFFFFFFFFFFFFFFFFFFFA0
:10D0A000FFFFFFFFFFFFFFFFFFFFFFFFFFFFFFFF90
:10D0B000FFFFFFFFFFFFFFFFFFFFFFFFFFFFFFFF80
:10D0C000FFFFFFFFFFFFFFFFFFFF0AEB88EA88EA91
:10D0D00088EA88EA88EA88EA49EAC8EA04F547FD66
:10D0E00047FD47FD47FD47FD47FD47FD47FD47FD20
:10D0F00047FD27FDC6FD68FC8BF2CBFA57FEFFFF0C
:10D10000FFFFFFFFFFFFFFFFFFFFFFFFFFFFFFFF2F
:10D11000FFFFFFFFFFFFFFFFFFFFFFFFFFFFFFFF1F
:10D12000FFFFFFFFFFFFFFFFFFFFFFFFFFFFFFFF0F
:10D13000FFFFFFFFFFFFFFFFFFFFFFFFFFFFFFFFFF
:10D14000FFFFFFFFFFFFFFFFFFFFFFFFFFFFFFFFEF
:10D15000FFFFFFFFFFFFFFFFFFFFFFFFFFFFFFFFDF
:10D16000FFFFFFFFFFFFFFFFFFFFEEF388EA88EA04
:10D1700088EA88EA88EA88EA29EA47EB44F547FD25
:10D1800048FD47FD47FD47FD47FD47FD47FD47FD7E
:10D1900027FD87FD47FD0AF3ABF2CBF24BF3DFFF30
:10D1A000FFFFFFFFFFFFFFFFFFFFFFFFFFFFFFFF8F
:10D1B000FFFFFFFFFFFFFFFFFFFFFFFFFFFFFFFF7F
:10D1C000FFFFFFFFFFFFFFFFFFFFFFFFFFFFFFFF6F
:10D1D000FFFFFFFFFFFFFFFFFFFFFFFFFFFFFFFF5F
:10D1E000FFFFFFFFFFFFFFFFFFFFFFFFFFFFFFFF4F
:10D1F000FFFFFFFFFFFFFFFFFFFFFFFFFFFFFFFF3F
:10D20000FFFFFFFFFFFFFFFFFFFF13F588EA88EA3C
:10D2100088EA88EA88EA88EA09EAA6EB63F527FD46
:10D2200048FD47FD47FD47FD47FD47FD47FD47FDDD
:10D2300047FDC6FD09FC6BF20AF30AF3CBFA2FFC9B
:10D24000FFFFFFFFFFFFFFFFFFFFFFFFFFFFFFFFEE
:10D25000FFFFFFFFFFFFFFFFFFFFFFFFFFFFFFFFDE
:10D26000FFFFFFFFFFFFFFFFFFFFFFFFFFFFFFFFCE
:10D27000FFFFFFFFFFFFFFFFFFFFFFFFFFFFFFFFBE
:10D28000FFFFFFFFFFFFFFFFFFFFFFFFFFFFFFFFAE
:10D29000FFFFFFFFFFFFFFFFFFFFFFFFFFFFFFFF9E
:10D2A000FFFFFFFFFFFFFFFFFFFFBAFE88EA88EAEC
:10D2B00088EA88EA88EA88EA29EAE6F363F526F547
:10D2C00048FD47FD47FD47FD47FD47FD47FD27FD5D
:10D2D000A7FDE8FCABF2CBF2EAF2EAF2EAF2CBFA13
:10D2E000CEFB1AFFFFFFFFFFFFFFFFFFFFFFFFFF68
:10D2F000FFFFFFFFFFFFFFFFFFFFFFFFFFFFFFFF3E
:10D30000FFFFFFFFFFFFFFFFFFFFFFFFFFFFFFFF2D
:10D31000FFFFFFFFFFFFFFFFFFFFFFFFFFFFFFFF1D
:10D32000FFFFFFFFFFFFFFFFFFFFFFFFFFFFFFFF0D
:10D33000FFFFFFFFFFFFDFF7BFE79FE7BFE7FFFF4D
:10D34000FFFFFFFFFFFFFFFFFFFFFFFFEAEA88EAA3
:10D3500088EA88EA88EA88EA29EA26F443F526F585
:10D3600048FD47FD47FD47FD47FD47FD47FD47FD9C
:10D37000A7FD8AF38BF20AF3EAF2EAF2EAF2EAF2A2
:10D38000CBF2EBFAF1FC78FE5CFFDFFFBEFF1BFF88
:10D39000F6FD5BFFFFFFFFFFFFFFFFFFFFFFFFFF4C
:10D3A000FFFFFFFFFFFFFFFFFFFFFFFFFFFFFFFF8D
:10D3B000FFFFFFFFFFFFFFFFFFFFFFFFFFFFFFFF7D
:10D3C000FFFFFFFFFFFFFFFFFFFFFFFFFFFFFFFF6D
:10D3D000FFFFFFFF9FE73FC73FC73FC73FC73FC7AD
:10D3E0009FE7FFFFFFFFFFFFFFFFFFFF13F588EA47
:10D3F00088EA88EA88EA68EA49EA65F443F505F5C7
:10D4000048FD47FD47FD47FD47FD47FD27FDA7FDBB
:10D41000A8FC8BF2EAF2EAF2EAF2EAF2EAF2EAF2C3
:10D42000EAF2EBF2CBFACBF20AF36CFB4BF36BF2C2
:10D430008AFBECFDFFFFFFFFFFFFFFFFFFFFFFFF8A
:10D44000FFFFFFFFFFFFFFFFFFFFFFFFFFFFFFFFEC
:10D45000FFFFFFFFFFFFFFFFFFFFFFFFFFFFFFFFDC
:10D46000FFFFFFFFFFFFFFFFFFFFFFFFFFFFFFFFCC
:10D47000FFFF7FDF3FC73FC73FC73FC73FC73FC72C
:10D480003FC79FE7FFFFFFFFFFFFFFFF7DFF88EA2A
:10D4900088EA88EA88EA68EA68EA85F424F505F506
:10D4A00047FD47FD47FD47FD47FD47FD67FD87FDFC
:10D4B0004AF3ABF20AF3EAF2EAF2EAF2EAF2EAF249
:10D4C000EAF2EAF2EAF2EAF2EBF2EBF26BF24AF398
:10D4D00087FD87FDDEFFFFFFFFFFFFFFFFFFFFFF71
:10D4E000FFFFFFFFFFFFFFFFFFFFFFFFFFFFFFFF4C
:10D4F000FFFFFFFFFFFFFFFFFFFFFFFFFFFFFFFF3C
:10D50000FFFFFFFFFFFFFFFFFFFFFFFFFFFFFFFF2B
:10D51000DFF73FC73FC75FCFDFF7FFFFBFEF5FCF4B
:10D520003FC73FC7DFF7FFFFFFFFFFFFFFFF50F4DD
:10D5300088EA88EA88EA68EA88EAA5F424F5E4F447
:10D5400027F548FD47FD47FD47FD27FDC6FD49FC82
:10D550006BF2EAF2EAF2EAF2EAF2EAF2EAF2EAF26A
:10D56000EAF2EAF2EAF2EAF20AF38BF2EBF247FDB0
:10D5700087FD48FDB3FEFFFFFFFFFFFFFFFFFFFF3B
:10D58000FFFFFFFFFFFFFFFFFFFFFFFFFFFFFFFFAB
:10D59000FFFFFFFFFFFFFFFFFFFFFFFFFFFFFFFF9B
:10D5A000FFFFFFFFFFFFFFFFFFFFFFFFFFFFFFFF8B
:10D5B0007FDF3FC73FC7DFF7FFFFFFFFFFFFDFF75B
:10D5C0003FC73FC79FE7FFFFFFFFFFFFFFFF5CFF76
:10D5D00088EA88EA88EA68EA88EAA5F424F5E4F4A7
:10D5E00026F548FD47FD47FD27FD87FD27FDEAF2AB
:10D5F000CBF20AF3EAF2EAF2EAF2EAF2EAF2EAF249
:10D60000EAF2EAF2EAF20AF3ABF2ABF2E8FCA7FDC7
:10D6100027FD47FD48FDBDFFFFFFFFFFFFFFFFFFA9
:10D62000FFFFFFFFFFFFFFFFFFFFFFFFFFFFFFFF0A
:10D63000FFFFFFFFFFFFFFFFFFFFFFFFFFFFFFFFFA
:10D64000FFFFFFFFFFFFFFFFFFFFFFFFFFFFFFFFEA
:10D650005FD73FC75FCFFFFFFFFFFFFFFFFFFFFF6A
:10D660003FCF3FC77FDFFFFFFFFFFFFFFFFFFFFF52
:10D67000D2F488EA88EA68EA68EA85F444F5E4F4D2
:10D6800005F547FD47FD47FD47FDC6FDC9FB6BF2AC
:10D690000AF3EAF2EAF2EAF2EAF2EAF2EAF2EAF289
:10D6A000EAF2EAF20AF3ABF2ABF2E8FCC7FD27FDBF
:10D6B00047FD47FD47FD8AFDBDFFFFFFFFFFFFFF61
:10D6C000FFFFFFFFFFFFFFFFFFFFFFFFFFFFFFFF6A
:10D6D000FFFFFFFFFFFFFFFFFFFFFFFFFFFFFFFF5A
:10D6E000FFFFFFFFFFFFFFFFFFFFFFFFFFFFFFFF4A
:10D6F000BFEF5FCFBFEFFFFFFFFFFFFFFFFFFFFFAA
:10D700003FCF3FC79FDFFFFFFFFFFFFFFFFFFFFF91
:10D71000FFFF0AEB88EA68EA49EA65F444F5E4F4B5
:10D72000E4F426F548FD27FDA7FDE8FCABF2CBF2BB
:10D73000EAF2EAF2EAF2EAF2EAF2EAF2EAF2EAF209
:10D74000EAF20AF3ABF28BF2C8FCC6FD47FD47FDD7
:10D7500047FD47FD47FD47FD89FD59FFFFFFFFFFDF
:10D76000FFFFFFFFFFFFFFFFFFFFFFFFFFFFFFFFC9
:10D77000FFFFFFFFFFFFFFFFFFFFFFFFFFFFFFFFB9
:10D78000FFFFFFFFFFFFFFFFFFFFFFFFFFFFFFFFA9
:10D79000FFFFFFFFFFFFFFFFFFFFFFFFFFFF7FD741
:10D7A0003FC73FC7DFF7FFFFFFFFFFFFFFFFFFFFA1
:10D7B000FFFFFBFE88EA88EA29EA26F464F5E4F430
:10D7C000E4F404F547FD47FDA7FD8AF38BF20AF365
:10D7D000EAF2EAF2EAF2EAF2EAF2EAF2EAF2EAF269
:10D7E0000AF3ABF2ABF2A8FCC7FD47FD47FD47FDCE
:10D7F00047FD47FD47FD47FD47FD47FD2FFE17FF4E
:10D80000FFFFFFFFFFFFFFFFFFFFFFFFFFFFFFFF28
:10D81000FFFFFFFFFFFFFFFFFFFFFFFFFFFFFFFF18
:10D82000FFFFFFFFFFFFBFEF7FD77FD77FD77FD7F8
:10D830007FDF7FDF7FDF7FD77FDF7FD75FCF3FC790
:10D840003FC77FD7FFFFFFFFFFFFFFFFFFFFFFFF88
:10D85000FFFFFFFFD6FD88EA09EAA6EB64F5E4F4D2
:10D86000E4F4E4F406F5C7FD88FC8BF2EBF2EAF28F
:10D87000EAF2EAF2EAF2EAF2EAF2EAF2EAF20AF3A7
:10D880008BF2CBF2E8FCC6FD47FD27FD47FD47FDC7
:10D8900047FD47FD47FD47FD47FD47FD47FD47FD68
:10D8A000FFFFFFFFFFFFFFFFFFFFFFFFFFFFFFFF88
:10D8B000FFFFFFFFFFFFFFFFFFFFFFFFFFFFFFFF78
:10D8C000FFFFFFFFFFFF3FC73FC73FC73FC73FC740
:10D8D0003FC73FC73FC73FC73FC73FC73FC73FC718
:10D8E0005FD7FFFFFFFFFFFFFFFFFFFFFFFFFFFF10
:10D8F000FFFFFFFFFFFFF3F429EA07EB24F504F530
:10D90000E4F4E4F424F566FD2BFBABF20AF3EAF24F
:10D91000EAF2EAF2EAF2EAF2EAF20AF3EBF26BF284
:10D920000AF327FDC7FD27FD47FD47FD47FD47FDDE
:10D9300047FD47FD47FD47FD47FD47FD47FD47FDC7
:10D94000FFFFFFFFFFFFFFFFFFFFFFFFFFFFFFFFE7
:10D95000FFFFFFFFFFFFFFFFFFFFFFFFFFFFFFFFD7
:10D96000FFFFFFFFFFFF9FE75FD75FD75FD75FD75F
:10D970005FD75FD75FD75FD75FD75FD77FD7BFEF5F
:10D98000FFFFFFFFFFFFFFFFFFFFFFFFFFFFFFFFA7
:10D99000FFFFFFFFFFFFFFFFF2F449EA85F464F5A4
:10D9A000E4F4E4F463F5C6F38CF20BFBEAF2EAF27A
:10D9B000EAF2EAF2EAF2EAF20AF3ABF26BF2A9FB5C
:10D9C00067FDA7FD27FD47FD47FD47FD47FD47FDD7
:10D9D00047FD47FD47FD47FD47FD47FD48FD71FEFB
:10D9E000FFFFFFFFFFFFFFFFFFFFFFFFFFFFFFFF47
:10D9F000FFFFFFFFFFFFFFFFFFFFFFFFFFFFFFFF37
:10DA0000FFFFFFFFFFFFFFFFFFFFFFFFFFFFFFFF26
:10DA1000FFFFFFFFFFFFFFFFFFFFFFFFFFFFFFFF16
:10DA2000FFFFFFFFFFFFFFFFFFFFFFFFFFFFFFFF06
:10DA3000FFFFFFFFFFFFFFFFFFFF35F507EB43F59C
:10DA400004F544F5C5F448EA69EA0BFB0BFBEAF27E
:10DA5000EAF2EAF20AF3EBF26BF2CBF288FCA7FDF2
:10DA600087FD27FD47FD47FD47FD47FD47FD47FD76
:10DA700047FD47FD47FD47FD47FD47FDB4FEFFFF5E
:10DA8000FFFFFFFFFFFFFFFFFFFFFFFFFFFFFFFFA6
:10DA9000FFFFDFF7DFF7DFF7DFF7DFF7DFF7DFF7AE
:10DAA000DFF7DFF7DFF7FFF7FFFFFFFFFFFFFFFF06
:10DAB000FFFFFFFFFFFFFFFFFFFFFFFFFFFFDFF79E
:10DAC000DFF7FFF7FFFFFFFFFFFFDFF7FFF7FFFFC6
:10DAD000FFFFFFFFFFFFFFFFFFFFFFFFF7FD29F441
:10DAE00021FD83F567EBE9E968EAA9F20BFB0BFB83
:10DAF000EAF2EBF28BF28BF28AFB27FDC6FD47FDC3
:10DB000027FD47FD47FD47FD47FD47FD47FD47FD15
:10DB100047FD47FD47FD48FD68FD38FFFFFFFFFF5C
:10DB2000FFFFFFFFFFFFFFFFFFFFFFFFFFFFFFFF05
:10DB30007FDF3FC73FC73FC73FC73FC73FC73FC75D
:10DB40003FC73FC73FC73FC73FC73FC73FC73FC7A5
:10DB50003FC73FC73FC73FC73FC73FC73FC73FC795
:10DB60003FC73FC77FDFFFFF9FDF3FC73FC79FE73D
:10DB7000FFFFFFFFFFFFFFFFFFFFFFFFFFFF7AE653
:10DB8000ABE5E1FB86F129EA69EA48EA89F2ABFAFA
:10DB90008CFACBF28AFBA8FCA7FD87FD27FD47FD89
:10DBA00047FD47FD47FD47FD47FD47FD47FD47FD55
:10DBB00047FD48FD47FD2FFEBDFFFFFFFFFFFFFFB5
:10DBC000FFFFFFFFFFFFFFFFFFFFFFFFFFFFFFFF65
:10DBD0005FCF3FC73FC73FC73FC73FC73FC73FC7ED
:10DBE0003FC73FC73FC73FC73FC73FC73FC73FC705
:10DBF0003FC73FC73FC73FC73FC73FC73FC73FC7F5
:10DC00003FC73FC75FCFFFFF5FD73FC73FC77FD744
:10DC1000FFFFFFFFFFFFFFFFFFFFFFFFDFF7FDC677
:10DC2000DCC654D54AEB86F268EA68EA87EA28F34C
:10DC300009FCE8FC87FDA7FD47FD27FD47FD47FDE3
:10DC400047FD47FD47FD47FD47FD47FD47FD47FDB4
:10DC500047FDCDFD38FFFFFFFFFFFFFFFFFFFFFF89
:10DC6000FFFFFFFFFFFFFFFFFFFFFFFFFFFFFFFFC4
:10DC7000FFFFBFEFBFE79FE79FE7BFE7BFEFBFEF44
:10DC8000BFEFBFEFBFEFBFEFBFEFBFEFBFEFBFEF24
:10DC9000BFEFBFE7BFE79FE79FE79FE79FE79FE7EC
:10DCA0009FE7BFE7FFFFFFFFFFFFBFE7BFE7FFFF04
:10DCB000FFFFFFFFFFFFFFFFFFFFFFFFBAD659CEB9
:10DCC0005ACEFDC61CCFD6F66AFDA5F4E4F423F5C2
:10DCD00064F586FD48FD48FD47FD47FD47FD47FDCE
:10DCE00047FD47FD47FD47FD47FD47FD47FD0EFE4C
:10DCF00038FFFFFFFFFFFFFFFFFFFFFFFFFFFFFFFB
:10DD0000FFFFFFFFFFFFFFFFFFFFFFFFFFFFFFFF23
:10DD1000FFFFFFFFFFFFFFFFFFFFFFFFFFFFFFFF13
:10DD2000FFFFFFFFFFFFFFFFFFFFFFFFFFFFFFFF03
:10DD3000FFFFFFFFFFFFFFFFFFFFFFFFFFFFFFFFF3
:10DD4000FFFFFFFFFFFFFFFFFFFFFFFFFFFFFFFFE3
:10DD5000FFFFFFFFFFFFFFFFFFFF7DEF79CE79CED3
:10DD600079CE59CE5FE7FFFFFFFF9BFFB3FECCF5F7
:10DD700026F5E4F405F547FD48FD47FD47FD47FD61
:10DD800047FD47FD47FD89FD0EFED5FE9CFFFFFFC9
:10DD9000FFFFFFFFFFFFFFFFFFFFFFFFFFFFFFFF93
:10DDA000FFFFFFFFFFFFFFFFFFFFFFFFFFFFFFFF83
:10DDB0009FE75FCF5FD7FFFFFFFF7FD75FCF5FCFCB
:10DDC0005FCF5FCF5FCF5FCF5FCF5FCF5FCF5FCFE3
:10DDD0005FCF5FD79FE7FFFFFFFFFFFFFFFFFFFF63
:10DDE000FFFFFFFFFFFFFFFFFFFFFFFFFFFFFFFF43
:10DDF000FFFFFFFFFFFFFFFFFFFF79CE79CE79CE58
:10DE000079CE9AD6FFFFFFFFFFFFFFFFFFFFFFFF67
:10DE1000DEFF7AFFF6FEB4FE92FE71FE71FE93FE07
:10DE2000D5FE17FF7BFFFFFFFFFFFFFFFFFFFFFF99
:10DE3000FFFFFFFFFFFFFFFFFFFFFFFFFFFFFFFFF2
:10DE4000FFFFFFFFFFFFFFFFFFFFFFFFFFFFFFFFE2
:10DE50003FC73FC73FC7DFF7FFFF3FC73FC73FC7CA
:10DE60003FC73FC73FC73FC73FC73FC73FC73FC782
:10DE70003FC73FC73FC75FCFFFFFFFFFFFFFFFFF6A
:10DE8000FFFFFFFFFFFFFFFFFFFFFFFFFFFFFFFFA2
:10DE9000FFFFFFFFFFFFFFFF3CE779CE79CE79CE92
:10DEA00079CE9EF7FFFFFFFFFFFFFFFFFFFFFFFFA2
:10DEB000FFFFFFFFFFFFFFFFFFFFFFFFFFFFFFFF72
:10DEC000FFFFFFFFFFFFFFFFFFFFFFFFFFFFFFFF62
:10DED000FFFFFFFFFFFFFFFFFFFFFFFFFFFFFFFF52
:10DEE000FFFFFFFFFFFFFFFFFFFFFFFFFFFFFFFF42
:10DEF000DFEF7FDF9FE7FFFFFFFF9FE77FDF7FDF32
:10DF00007FDF7FDF7FDF7FDF9FE79FDF7FDF7FDFD9
:10DF10007FDF5FD73FC73FC75FCFFFFFFFFFFFFF39
:10DF2000FFFFFFFFFFFFFFFFFFFFFFFFFFFFFFFF01
:10DF3000FFFFFFFFFFFFDFFF79CE79CE79CE79CEED
:10DF4000BAD6FFFFFFFFFFFFFFFFFFFFFFFFFFFF4F
:10DF5000FFFFFFFFFFFFFFFFFFFFFFFFFFFFFFFFD1
:10DF6000FFFFFFFFFFFFFFFFFFFFFFFFFFFFFFFFC1
:10DF7000FFFFFFFFFFFFFFFFFFFFFFFFFFFFFFFFB1
:10DF8000FFFFFFFFFFFFFFFFFFFFFFFFFFFFFFFFA1
:10DF9000FFFFFFFFFFFFFFFFFFFFFFFFFFFFFFFF91
:10DFA000FFFFFFFFFFFFFFFFFFFFFFFFFFFFFFFF81
:10DFB000FFFFFFFF7FDF3FC73FC7BFEFFFFFFFFF51
:10DFC000FFFFFFFFFFFFFFFFFFFFFFFFFFFFFFFF61
:10DFD000FFFFFFFFFFFFDBDE79CE79CE79CE79CE72
:10DFE000DFFFFFFFFFFFFFFFFFFFFFFFFFFFFFFF61
:10DFF000FFFFFFFFFFFFFFFFFFFFFFFFFFFFFFFF31
:10E00000FFFFFFFFFFFFFFFFFFFFFFFFFFFFFFFF20
:10E01000FFFFFFFFFFFFFFFFFFFFFFFFFFFFFFFF10
:10E02000FFFFFFFFFFFFFFFFFFFFFFFFFFFFFFFF00
:10E03000FFFFFFFFFFFFFFFFFFFFFFFFFFFFFFFFF0
:10E04000FFFFFFFFFFFFBFEF3FCF9FDFFFFFFFFFA0
:10E05000FFFFFFFFFFFF5FCF3FC77FDFFFFFFFFF38
:10E06000FFFFFFFFFFFFFFFFFFFFFFFFFFFFFFFFC0
:10E07000FFFFFFFFBEF779CE79CE79CE79CEFBDEFA
:10E08000FFFFFFFFFFFFFFFFFFFFFFFFFFFFFFFFA0
:10E09000FFFFFFFFFFFFFFFFFFFFFFFFFFFFFFFF90
:10E0A000FFFFFFFFFFFFFFFFFFFFFFFFFFFFFFFF80
:10E0B000FFFFFFFFFFFFFFFFFFFFFFFFFFFFFFFF70
:10E0C000FFFFFFFFFFFFFFFFFFFFFFFFFFFFFFFF60
:10E0D000FFFFFFFFFFFFFFFFFFFFFFFFFFFFFFFF50
:10E0E000FFFFFFFFFFFF7FD73FC73FC7FFFFFFFFD8
:10E0F000FFFFFFFFFFFF5FD73FC77FD7FFFFFFFF98
:10E10000FFFFFFFFFFFFFFFFFFFFFFFFFFFFFFFF1F
:10E11000FFFFFFFFBAD679CE79CE79CE79CEFFFF59
:10E12000FFFFFFFFFFFFFFFFFFFFFFFFFFFFFFFFFF
:10E13000FFFFFFFFFFFFFFFFFFFFFFFFFFFFFFFFEF
:10E14000FFFFFFFFFFFFFFFFFFFFFFFFFFFFFFFFDF
:10E15000FFFFFFFFFFFFFFFFFFFFFFFFFFFFFFFFCF
:10E16000FFFFFFFFFFFFFFFFFFFFFFFFFFFFFFFFBF
:10E17000FFFFFFFFFFFFFFFFFFFFFFFFFFFFFFFFAF
:10E18000FFFFFFFFFFFF9FE73FC73FC7DFF7FFFF2F
:10E19000FFFFFFFFDFF73FC73FC79FE7FFFFFFFF1F
:10E1A000FFFFFFFFFFFFFFFFFFFFFFFFFFFFFFFF7F
:10E1B000FFFF7DEF79CE79CE79CE79CE5DEFFFFF8F
:10E1C000FFFFFFFFFFFFFFFFFFFFFFFFFFFFFFFF5F
:10E1D000FFFFFFFFFFFFFFFFFFFFFFFFFFFFFFFF4F
:10E1E000FFFFFFFFFFFFFFFFFFFFFFFFFFFFFFFF3F
:10E1F000FFFFFFFFFFFFFFFFFFFFFFFFFFFFFFFF2F
:10E20000FFFFFFFFFFFFFFFFFFFFFFFFFFFFFFFF1E
:10E21000FFFFFFFFFFFFFFFFFFFFFFFFFFFFFFFF0E
:10E22000FFFFFFFFFFFFDFF73FC73FC73FCFBFEF56
:10E23000DFF7BFEF3FCF3FC73FC7DFF7FFFFFFFF6E
:10E24000FFFFFFFFFFFFFFFFFFFFFFFFFFFFFFFFDE
:10E25000FFFF79CE79CE79CE79CE9AD6FFFFFFFF38
:10E26000FFFFFFFFFFFFFFFFFFFFFFFFFFFFFFFFBE
:10E27000FFFFFFFFFFFFFFFFFFFFFFFFFFFFFFFFAE
:10E28000FFFFFFFFFFFFFFFFFFFFFFFFFFFFFFFF9E
:10E29000FFFFFFFFFFFFFFFFFFFFFFFFFFFFFFFF8E
:10E2A000FFFFFFFFFFFFFFFFFFFFFFFFFFFFFFFF7E
:10E2B000FFFFFFFFFFFFFFFFFFFFFFFFFFFFFFFF6E
:10E2C000FFFFFFFFFFFFFFFF9FE73FC73FC73FC7BE
:10E2D0003FC73FC73FC73FC79FE7FFFFFFFFFFFFA6
:10E2E000FFFFFFFFFFFFFFFFFFFFFFFFFFFFFFFF3E
:10E2F0001CE779CE79CE79CE9AD6DEFFFFFFFFFFFD
:10E30000FFFFFFFFFFFFFFFFFFFFFFFFFFFFFFFF1D
:10E31000FFFFFFFFFFFFFFFFFFFFFFFFFFFFFFFF0D
:10E32000FFFFFFFFFFFFFFFFFFFFFFFFFFFFFFFFFD
:10E33000FFFFFFFFFFFFFFFFFFFFFFFFFFFFFFFFED
:10E34000FFFFFFFFFFFFFFFFFFFFFFFFFFFFFFFFDD
:10E35000FFFFFFFFFFFFFFFFFFFFFFFFFFFFFFFFCD
:10E36000FFFFFFFFFFFFFFFFFFFFBFE73FCF3FC7FD
:10E370003FC73FC73FCF9FE7FFFFFFFFFFFFFFFF05
:10E38000FFFFFFFFFFFFFFFFFFFFFFFFFFFFDFFFBD
:10E3900059CE79CE59CED7B518BEDFFFFFFFFFFFAC
:10E3A000FFFFFFFFFFFFFFFFFFFFFFFFFFFFFFFF7D
:10E3B000FFFFFFFFFFFFFFFFFFFFFFFFFFFFFFFF6D
:10E3C000FFFFFFFFFFFFFFFFFFFFFFFFFFFFFFFF5D
:10E3D000FFFFFFFFFFFFFFFFFFFFFFFFFFFFFFFF4D
:10E3E000FFFFFFFFFFFFFFFFFFFFFFFFFFFFFFFF3D
:10E3F000FFFFFFFFFFFFFFFFFFFFFFFFFFFFFFFF2D
:10E40000FFFFFFFFFFFFFFFFFFFFFFFFFFFFBFEF6C
:10E41000BFE7BFEFFFFFFFFFFFFFFFFFFFFFFFFFB4
:10E42000FFFFFFFFFFFFFFFFFFFFFFFFFFFF5DD7C6
:10E43000DBCE79D618BE76A5B7A5B7AD3CE7FFFF12
:10E44000FFFFFFFFFFFFFFFFFFFFFFFFFFFFFFFFDC
:10E45000FFFFFFFFFFFFFFFFFFFFFFFFFFFFFFFFCC
:10E46000FFFFFFFFFFFFFFFFFFFFFFFFFFFFFFFFBC
:10E47000FFFFFFFFFFFFFFFFFFFFFFFFFFFFFFFFAC
:10E48000FFFFFFFFFFFFFFFFFFFFFFFFFFFFFFFF9C
:10E49000FFFFFFFFFFFFFFFFFFFFFFFFFFFFFFFF8C
:10E4A000FFFFFFFFFFFFFFFFFFFFFFFFFFFFFFFF7C
:10E4B000FFFFFFFFFFFFFFFFFFFFFFFFFFFFFFFF6C
:10E4C000FFFFFFFFFFFFFFFFFFFFFFFF1BF78DE3D6
:10E4D00038CE5DC79ACE18C6B7ADB7AD9ACEFFFF9E
:10E4E000FFFFFFFFFFFFFFFFFFFFFFFFFFFFFFFF3C
:10E4F000FFFFFFFFFFFFFFFFFFFFFFFFFFFFFFFF2C
:10E50000FFFFFFFFFFFFFFFFFFFFFFFFFFFFFFFF1B
:10E51000FFFFFFFFFFFFFFFFFFFFFFFFFFFFFFFF0B
:10E52000FFFFFFFFFFFFFFFFFFFFFFFFFFFFFFFFFB
:10E53000FFFFFFFFFFFFFFFFFFFFFFFFFFFFFFFFEB
:10E54000FFFFFFFFFFFFFFFFFFFFFFFFFFFFFFFFDB
:10E55000FFFFFFFFFFFFFFFFFFFFFFFF7DFF13F543
:10E56000B6F5FFFFFFFFFFFFFFFFFFFF2BEB63F1A0
:10E5700068EA91DC99D6FFFF7EEFFBDEDFFFFFFF4D
:10E58000FFFFFFFFFFFFFFFFFFFFFFFFFFFFFFFF9B
:10E59000FFFFFFFFFFFFFFFFFFFFFFFFFFFFFFFF8B
:10E5A000FFFFFFFFFFFFFFFFFFFFFFFFFFFFFFFF7B
:10E5B000FFFFFFFFFFFFFFFFFFFFFFFFFFFFFFFF6B
:10E5C000FFFFFFFFFFFFFFFFFFFFFFFFFFFFFFFF5B
:10E5D000FFFFFFFFFFFFFFFFFFFFFFFFFFFFFFFF4B
:10E5E000FFFFFFFFFFFFFFFFFFFFFFFFFFFFFFFF3B
:10E5F000FFFFFFFFFFFFFFFFFFFFDEFFEAEA88EA02
:10E6000088EAF3F4FFFFFFFFFFFF75FD68EAA9EA60
:10E6100006F243F91CEFFFFFFFFFFFFFFFFFFFFFC5
:10E62000FFFFFFFFFFFFFFFFFFFFFFFFFFFFFFFFFA
:10E63000FFFFFFFFFFFFFFFFFFFFFFFFFFFFFFFFEA
:10E64000FFFFFFFFFFFFFFFFFFFFFFFFFFFFFFFFDA
:10E65000FFFFFFFFFFFFFFFFFFFFFFFFFFFFFFFFCA
:10E66000FFFFFFFFFFFFFFFFFFFFFFFFFFFFFFFFBA
:10E67000FFFFFFFFFFFFFFFFFFFFFFFFFFFFFFFFAA
:10E68000FFFFFFFFFFFFFFFFFFFFFFFFFFFFFFFF9A
:10E69000FFFFFFFFFFFFFFFFFFFF54F588EA88EA57
:10E6A00088EACAEAFFFFFFFFBEFF88EA88EA88EA35
:10E6B00006F20EECFFFFFFFFFFFFFFFFFFFFFFFF74
:10E6C000FFFFFFFFFFFFFFFFFFFFFFFFFFFFFFFF5A
:10E6D000FFFFFFFFFFFFFFFFFFFFFFFFFFFFFFFF4A
:10E6E000FFFFFFFFFFFFFFFFFFFFFFFFFFFFFFFF3A
:10E6F000FFFFFFFFFFFFFFFFFFFFFFFFFFFFFFFF2A
:10E70000FFFFFFFFFFFFFFFFFFFFFFFFFFFFFFFF19
:10E71000FFFFFFFFFFFFFFFFFFFFFFFFFFFFFFFF09
:10E72000FFFFFFFFFFFFFFFFFFFFFFFFFFFFFFFFF9
:10E73000FFFFFFFFFFFFFFFFFFFFCEF388EA88EA3E
:10E7400088EAD2F4FFFFFFFFD2F488EA88EA88EA79
:10E7500067EAFBFEFFFFFFFFFFFFFFFFFFFFFFFF7B
:10E76000FFFFFFFFFFFFFFFFFFFFFFFFFFFFFFFFB9
:10E77000FFFFFFFFFFFFFFFFFFFFFFFFFFFFFFFFA9
:10E78000FFFFFFFFFFFFFFFFFFFFFFFFFFFFFFFF99
:10E79000FFFFFFFFFFFFFFFFFFFFFFFFFFFFFFFF89
:10E7A000FFFFFFFFFFFFFFFFFFFFFFFFFFFFFFFF79
:10E7B000FFFFFFFFFFFFFFFFFFFFFFFFFFFFFFFF69
:10E7C000FFFFFFFFFFFFFFFFFFFFFFFFFFFFFFFF59
:10E7D000FFFFFFFFFFFFFFFFFFFFCDF388EA88EA9F
:10E7E00088EA74F5FFFF3CFF88EA88EA88EA88EA4D
:10E7F00070F4FFFFFFFFFFFFFFFFFFFFFFFFFFFFC3
:10E80000FFFFFFFFFFFFFFFFFFFFFFFFFFFFFFFF18
:10E81000FFFFFFFFFFFFFFFFFFFFFFFFFFFFFFFF08
:10E82000FFFFFFFFFFFFFFFFFFFFFFFFFFFFFFFFF8
:10E83000FFFFFFFFFFFFFFFFFFFFFFFFFFFFFFFFE8
:10E84000FFFFFFFFFFFFFFFFFFFFFFFFFFFFFFFFD8
:10E85000FFFFFFFFFFFFFFFFFFFFFFFFFFFFFFFFC8
:10E86000FFFFFFFFFFFFFFFFFFFFFFFFFFFFFFFFB8
:10E87000FFFFFFFFFFFFFFFFFFFF91F488EA88EA39
:10E8800088EAA9EA70F40AEB88EA88EA88EA88EA62
:10E89000BEFFFFFFFFFFFFFFFFFFFFFFFFFFFFFFC9
:10E8A000FFFFFFFFFFFFFFFFFFFFFFFFFFFFFFFF78
:10E8B000FFFFFFFFFFFFFFFFFFFFFFFFFFFFFFFF68
:10E8C000FFFFFFFFFFFFFFFFFFFFFFFFFFFFFFFF58
:10E8D000FFFFFFFFFFFFFFFFFFFFFFFFFFFFFFFF48
:10E8E000FFFFFFFFFFFFFFFFFFFFFFFFFFFFFFFF38
:10E8F000FFFFFFFFFFFFFFFFFFFFFFFFFFFFFFFF28
:10E90000FFFFFFFFFFFFFFFFFFFFFFFFFFFFFFFF17
:10E91000FFFFFFFFFFFFFFFFFFFFFBFE88EA88EA24
:10E9200088EA88EA88EA88EA88EA88EA88EA54F580
:10E93000FFFFFFFFFFFFFFFFFFFFFFFFFFFFFFFFE7
:10E94000FFFFFFFFFFFFFFFFFFFFFFFFFFFFFFFFD7
:10E95000FFFFFFFFFFFFFFFFFFFFFFFFFFFFFFFFC7
:10E96000FFFFFFFFFFFFFFFFFFFFFFFFFFFFFFFFB7
:10E97000FFFFFFFFFFFFFFFFFFFFFFFFFFFFFFFFA7
:10E98000FFFFFFFFFFFFFFFFFFFFFFFFFFFFFFFF97
:10E99000FFFFFFFFFFFFFFFFFFFFFFFFFFFFFFFF87
:10E9A000FFFFFFFFFFFFFFFFFFFFFFFFFFFFFFFF77
:10E9B000FFFFFFFFFFFFFFFFFFFFFFFFF2F488EA0B
:10E9C00088EA88EA88EA88EA88EA88EA8CF3FFFF1E
:10E9D000FFFFFFFFFFFFFFFFFFFFFFFFFFFFFFFF47
:10E9E000FFFFFFFFFFFFFFFFFFFFFFFFFFFFFFFF37
:10E9F000FFFFFFFFFFFFFFFFFFFFFFFFFFFFFFFF27
:10EA0000FFFFFFFFFFFFFFFFFFFFFFFFFFFFFFFF16
:10EA1000FFFFFFFFFFFFFFFFFFFFFFFFFFFFFFFF06
:10EA2000FFFFFFFFFFFFFFFFFFFFFFFFFFFFFFFFF6
:10EA3000FFFFFFFFFFFFFFFFFFFFFFFFFFFFFFFFE6
:10EA4000FFFFFFFFFFFFFFFFFFFFFFFFFFFFFFFFD6
:10EA5000FFFFFFFFFFFFFFFFFFFFFFFFFFFF33F59C
:10EA6000EAEAC9EAC9EAC9EAC9EA70F4DFFFFFFFC6
:10EA7000FFFFFFFFFFFFFFFFFFFFFFFFFFFFFFFFA6
:10EA8000FFFFFFFFFFFFFFFFFFFFFFFFFFFFFFFF96
:10EA9000FFFFFFFFFFFFFFFFFFFFFFFFFFFFFFFF86
:10EAA000FFFFFFFFFFFFFFFFFFFFFFFFFFFFFFFF76
:10FC8000FFFFFFFFFFFFFFFFDFF7BFEF9FE79FE7EC
:10FC90009FE79FE79FE79FE7BFEFDFF7FFFFFFFFCC
:10FCA000FFFFFFFFFFFFFFFFFFFFFFFFFFFFFFFF64
:10FCB000FFFFFFFFFFFFFFFFFFFFFFFFFFFFFFFF54
:10FCC000FFFFFFFFFFFFFFFFFFFFFFFFFFFFFFFF44
:10FCD000FFFFFFFFFFFFFFFFFFFFFFFFFFFFFFFF34
:10FCE000FFFFFFFFFFFFFFFFFFFFFFFFFFFFFFFF24
:10FCF000FFFFFFFFFFFFFFFFFFFFFFFFFFFFFFFF14
:10FD0000FFFFFFFFFFFFFFFFFFFFFFFFFFFFFFFF03
:10FD1000FFFFFFFFFFFFFFFFFFFFFFFFFFFFFFFFF3
:10FD2000FFFFFFFFDFF7BFE79FE79FE79FE79FE743
:10FD30009FE79FE79FE79FE79FE79FE7BFEFFFFFF3
:10FD4000FFFFFFFFFFFFFFFFFFFFFFFFFFFFFFFFC3
:10FD5000FFFFFFFFFFFFFFFFFFFFFFFFFFFFFFFFB3
:10FD6000FFFFFFFFFFFFFFFFFFFFFFFFFFFFFFFFA3
:10FD7000FFFFFFFFFFFFFFFFFFFFFFFFFFFFFFFF93
:10FD8000FFFFFFFFFFFFFFFFFFFFFFFFFFFFFFFF83
:10FD9000FFFFFFFFFFFFFFFFFFFFFFFFFFFFFFFF73
:10FDA000FFFFFFFFFFFFFFFFFFFFFFFFFFFFFFFF63
:10FDB000FFFFFFFFFFFFFFFFFFFFFFFFFFFFFFFF53
:10FDC000FFFFDFF79FE79FE79FE79FE79FE79FE73B
:10FDD0009FE79FE79FE79FE79FE79FE79FE79FE7F3
:10FDE000DFFFFFFFFFFFFFFFFFFFFFFFFFFFFFFF43
:10FDF000FFFFFFFFFFFFFFFFFFFFFFFFFFFFFFFF13
:10FE0000FFFFFFFFFFFFFFFFFFFFFFFFFFFFFFFF02
:10FE1000FFFFFFFFFFFFFFFFFFFFFFFFFFFFFFFFF2
:10FE2000FFFFFFFFFFFFFFFFFFFFFFFFFFFFFFFFE2
:10FE3000FFFFFFFFFFFFFFFFFFFFFFFFFFFFFFFFD2
:10FE4000FFFFFFFFFFFFFFFFFFFFFFFFFFFFFFFFC2
:10FE5000FFFFFFFFFFFFFFFFFFFFFFFFFFFFFFFFB2
:10FE6000DFF79FE79FE79FE79FE79FE79FE79FE712
:10FE70009FE79FE79FE79FE79FE79FE79FE79FE752
:10FE80009FE7FFFFFFFFFFFFFFFFFFFFFFFFFFFFFA
:10FE9000BFDF5EBF1EAF1EAF5EC7BFE7FFFFFFFF46
:10FEA000FFFFFFFFFFFFFFFFFFFFFFFFFFFFFFFF62
:10FEB000FFFFFFFFFFFFFFFFFFFFFFFFFFFFFFFF52
:10FEC000FFFFFFFFFFFFFFFFFFFFFFFFFFFFFFFF42
:10FED000FFFFFFFFFFFFFFFFFFFFFFFFFFFFFFFF32
:10FEE000FFFFFFFFFFFFFFFFFFFFFFFFFFFFFFFF22
:10FEF000FFFFFFFFFFFFFFFFFFFFFFFFFFFFFFFF12
:10FF00009FE79FE79FE79FE79FE79FE79FE79FE7C1
:10FF10009FE79FE79FE79FE79FE79FE79FE79FE7B1
:10FF20009FE79FE7FFFFFFFFFFFFFFFFDFEFFEA65B
:10FF3000BD86BD86BD869D7EDE961FA73FB7BFE707
:10FF4000FFFFFFFFFFFFFFFFFFFFFFFFFFFFFFFFC1
:10FF5000FFFFFFFFFFFFFFFFFFFFFFFFFFFFFFFFB1
:10FF6000FFFFFFFFFFFFFFFFFFFFFFFFFFFFFFFFA1
:10FF7000FFFFFFFFFFFFFFFFFFFFFFFFFFFFFFFF91
:10FF8000FFFFFFFFFFFFFFFFFFFFFFFFFFFFFFFF81
:10FF9000FFFFFFFFFFFFFFFFFFFFFFFFFFFFBFEFC1
:10FFA0009FE79FE79FE79FE79FE79FE79FE79FE721
:10FFB0009FE79FE79FE79FE79FE79FE79FE79FE711
:10FFC0009FE79FE7DFF7FFFFFFFFBFE7BD86BD8627
:10FFD000BD86BD86BD869D7EDE961FA7FFA61FA798
:10FFE0009FDFFFFFFFFFFFFFFFFFFFFFFFFFFFFFA1
:10FFF000FFFFFFFFFFFFFFFFFFFFFFFFFFFFFFFF11
:020000040801F1
:10000000FFFFFFFFFFFFFFFFFFFFFFFFFFFFFFFF00
:10001000FFFFFFFFFFFFFFFFFFFFFFFFFFFFFFFFF0
:10002000FFFFFFFFFFFFFFFFFFFFFFFFFFFFFFFFE0
:10003000FFFFFFFFFFFFFFFFFFFFFFFFFFFF9FE748
:100040009FE79FE79FE79FE79FE79FE79FE79FE780
:100050009FE79FE79FE79FE79FE79FE79FE79FE770
:100060009FE79FE7BFEFFFFFFFFFBD86BD86BD8611
:10007000BD86BD86BD869D7EDE961FA7FE9EFFA621
:10008000FFA6DFF7FFFFFFFFFFFFFFFFFFFFFFFF01
:10009000FFFFFFFFFFFFFFFFFFFFFFFFFFFFFFFF70
:1000A000FFFFFFFFFFFFFFFFFFFFFFFFFFFFFFFF60
:1000B000FFFFFFFFFFFFFFFFFFFFFFFFFFFFFFFF50
:1000C000FFFFFFFFFFFFFFFFFFFFFFFFFFFFFFFF40
:1000D000FFFFFFFFFFFFDFF7DFF7FFFFBFEF9FE748
:1000E0009FE79FE79FE79FE79FE79FE79FE79FE7E0
:1000F0009FE79FE79FE79FE79FE79FE79FE79FE7D0
:100100009FE79FE7BFF7FFFF7FCF9D7EBD86BD8640
:10011000BD86BD86BD869D7EDE961FA7FE9EFE9E89
:100120001FA73FBFFFFFFFFFFFFFFFFFFFFFFFFF17
:10013000FFFFFFFFFFFFFFFFFFFFFFFFFFFFFFFFCF
:10014000FFFFFFFFFFFFFFFFFFFFFFFFFFFFFFFFBF
:10015000FFFFFFFFFFFFFFFFFFFFFFFFFFFFFFFFAF
:10016000FFFFFFFFFFFFFFFFFFFFFFFFFFFFFFFF9F
:10017000FFFF9FE77FD77FD77FD77FD79FE79FE797
:100180009FE79FE79FE79FE79FE79FE79FE79FE73F
:100190009FE79FE79FE79FE79FE79FE79FE79FE72F
:1001A0009FE79FE7BFF79FE7FE9E9D86BD86BD86C2
:1001B000BD86BD86BD869D7EBE8EFFA6FE9EFE9E32
:1001C000FEA6FE9EBFE7BFDFBFEFFFFFFFFFFFFF03
:1001D000FFFFFFFFFFFFFFFFFFFFFFFFFFFFFFFF2F
:1001E000FFFFFFFFFFFFFFFFFFFFFFFFFFFFFFFF1F
:1001F000FFFFFFFFFFFFFFFFFFFFFFFFFFFFFFFF0F
:10020000FFFFFFFFFFFFFFFFFFFFFFFFFFFFDFF726
:100210007FD77FD77FD77FD77FD77FD79FE79FE7CE
:100220009FE79FE79FE79FE79FE79FE79FE79FE79E
:100230009FE79FE79FE79FE79FE79FE79FE79FE78E
:100240009FE79FE7BFF75ECF7D6E7D767D767D76FB
:100250009D769D86BD869D86BD86FEA6FEA6FE9EDB
:10026000FE9EFE9EFFA6FFA6FFA63FB7DFEFFFFFA5
:10027000FFFFFFFFFFFFFFFFFFFFFFFFFFFFFFFF8E
:10028000FFFFFFFFFFFFFFFFFFFFFFFFFFFFFFFF7E
:10029000FFFFFFFFFFFFFFFFFFFFFFFFFFFFFFFF6E
:1002A000FFFFFFFFDFEFBFE79FE79FE7BFEF7FD7CE
:1002B0007FD77FD77FD77FD77FD77FD79FE79FE72E
:1002C0009FE79FE79FE79FE79FE79FE79FE79FE7FE
:1002D0009FE79FE79FE79FE79FE79FE79FE79FE7EE
:1002E0009FE79FE7BFEF7ECFFEA63EBF3EBF1EB794
:1002F000DE9E9D7E7D76BD869D86FE9E1FA7FE9E10
:10030000FE9EFE9EFE9EFE9EFE9EFFA6FEA65FC772
:100310005FC77FCFBFE7FFFFFFFFFFFFFFFFFFFFCD
:10032000FFFFFFFFFFFFFFFFFFFFFFFFFFFFFFFFDD
:10033000FFFFFFFFFFFFFFFFFFFFFFFFFFFFFFFFCD
:10034000BFEF7FDF7FD77FD77FD77FD77FD77FD79D
:100350007FD77FD77FD77FD77FD77FD79FE79FE78D
:100360009FE79FE79FE79FE79FE79FE79FE79FE75D
:100370009FE79FE79FE79FE79FE79FE79FE79FE74D
:100380009FE79FE79FE79FE7BFF7DFF7BFF7DFF73D
:10039000BFF77ED7FE9E7D769D7EDE961FA7FE9ED2
:1003A000FE9EFE9EFE9EFE9EFE9EFE9EFEA6FFA65C
:1003B000FFA6FFA6FFA65FBFFFFFFFFFFFFFFFFF38
:1003C000FFFFFFFFFFFFFFFFFFFFFFFFFFFFFFFF3D
:1003D000FFFFFFFFFFFFFFFFFFFFFFFFFFFF9FE7A5
:1003E0007FD77FD77FD77FD77FD77FD77FD77FD75D
:1003F0007FD77FD77FD77FD77FD77FD79FE79FE7ED
:100400009FE79FE79FE79FE79FE79FE79FE79FE7BC
:100410009FE79FE79FE79FE79FE79FE79FE79FE7AC
:100420009FE79FE79FE79FE79FE79FE79FE79FE79C
:100430009FE7BFF7DFFF1EB77D6E9D86FEA6FFA676
:10044000FE9EFE9EFE9EFE9EFE9EFE9EFE9EFE9ECC
:10045000FE9EFE9EFE9E1FA73EB7FFFFFFFFFFFF13
:10046000FFFFFFFFFFFFFFFFFFFFFFFFFFFFFFFF9C
:10047000FFFFFFFFFFFFFFFFFFFFFFFF9FE77FD7AC
:100480007FD77FD77FD77FD77FD77FD77FD77FD7BC
:100490007FD77FD77FD77FD77FD77FD79FDF9FE754
:1004A0009FE79FE79FE79FE79FE79FE79FE79FE71C
:1004B0009FE79FE79FE79FE79FE79FE79FE79FE70C
:1004C0009FE79FE79FE79FE79FE79FE79FE79FE7FC
:1004D0009FE79FE7BFEFDFFF1EAF7D6EDE961FA792
:1004E000FE9EFE9EFE9EFE9EFE9EFE9EFE9EFE9E2C
:1004F000FE9EFE9EFE9EFE9E1FA79FD7FFFFFFFF54
:10050000FFFFFFFFFFFFFFFFFFFFFFFFFFFFFFFFFB
:10051000FFFFFFFFFFFFFFFFFFFFDFF77FD77FD763
:100520007FD77FD77FD77FD77FD77FD77FD77FD71B
:100530007FD77FD77FD77FD77FD77FD77FDF9FE7D3
:100540009FE79FE79FE79FE79FE79FE79FE79FE77B
:100550009FE79FE79FE79FE79FE79FE79FE79FE76B
:100560009FE79FE79FE79FE79FE79FE79FE79FE75B
:100570009FE79FE79FE7BFEFBFF7BD8E9D76FE9E8B
:10058000FFA6FE9EFE9EFE9EFE9EFE9EFE9EFE9E82
:10059000FE9EFE9EFE9EFE9EFFA63FB7FFFFFFFF54
:1005A000FFFFFFFFFFFFFFFFFFFFFFFFFFFFFFFF5B
:1005B000FFFFFFFFFFFFFFFFFFFF7FDF7FD77FD73B
:1005C0007FD77FD77FD77FD77FD77FD77FD77FD77B
:1005D0007FD77FD77FD77FD77FD77FD77FDF9FE733
:1005E0009FE79FE79FE79FE79FE79FE79FE79FE7DB
:1005F0009FE79FE79FE79FE79FE79FE79FE79FE7CB
:100600009FE79FE79FE79FE79FE79FE79FE79FE7BA
:100610009FE79FE79FE79FE7DFFF5EC77D6EBE8E88
:100620001FA7FEA6FE9EFE9EFE9EFE9EFE9EFE9EB8
:10063000FE9EFE9EFE9EFE9EFFA61EA7FFFFFFFFE4
:10064000FFFFFFFFFFFFFFFFFFFFFFFFFFFFFFFFBA
:10065000FFFFFFFFFFFFFFFFFFFF7FD77FD77FD7A2
:100660007FD77FD77FD77FD77FD77FD77FD77FD7DA
:100670007FD77FD77FD77FD77FD77FD77FD79FE79A
:100680009FE79FE79FE79FE79FE79FE79FE79FE73A
:100690009FE79FE79FE79FE79FE79FE79FE79FE72A
:1006A0009FE79FE79FE79FE79FE79FE79FE79FE71A
:1006B0009FE79FE79FE79FE7BFEF9FDFBD869D76A0
:1006C000DE961FA7FEA6FE9EFE9EFE9EFE9EFE9E40
:1006D000FE9EFE9EFE9EFE9EFFA61EAFFFFFFFFF3C
:1006E000FFFFFFFFFFFFFFFFFFFFFFFFFFFFFFFF1A
:1006F000FFFFFFFFFFFFFFFFDFF77FD77FD77FD72A
:100700007FD77FD77FD77FD77FD77FD77FD77FD739
:100710007FD77FD77FD77FD77FD77FD77FD77FDF21
:100720009FE79FE79FE79FE79FE79FE79FE79FE799
:100730009FE79FE79FE79FE79FE79FE79FE79FE789
:100740009FE79FE79FE79FE79FE79FE79FE79FE779
:100750009FE79FE79FE79FE79FEFBFEFDD967D76DF
:100760009D7EDE961FA7FEA6FE9EFE9EFE9EFE9E20
:10077000FE9EFE9EFE9EFE9EFFA63FB7FFFFFFFF72
:10078000FFFFFFFFFFFFFFFFFFFFFFFFFFFFFFFF79
:10079000FFFFFFFFFFFFFFFFDFEF7FD77FD77FD791
:1007A0007FD77FD77FD77FD77FD77FD77FD77FD799
:1007B0007FD77FD77FD77FD77FD77FD77FD77FD789
:1007C0009FE79FE79FE79FE79FE79FE79FE79FE7F9
:1007D0009FE79FE79FE79FE79FE79FE79FE79FE7E9
:1007E0009FE79FE79FE79FE79FE79FE79FE79FE7D9
:1007F0009FE79FE79FE79FE79FE7BFEFDE9E9D761E
:100800009D869D7EDE961FA7FFA6FE9EFE9EFE9EF7
:10081000FE9EFE9EFE9EFEA6FFA6BFE7FFFFFFFF19
:10082000FFFFFFFFFFFFFFFFFFFFFFFFFFFFFFFFD8
:10083000FFFFFFFFFFFFFFFFDFF77FD77FD77FD7E8
:100840007FD77FD77FD77FD77FD77FD77FD77FD7F8
:100850007FD77FD77FD77FD77FD77FD77FD77FD7E8
:100860007FDF9FE79FE79FE79FE79FE79FE79FE780
:100870009FE79FE79FE79FE79FE79FE79FE79FE748
:100880009FE79FE79FE79FE79FE79FE79FE79FE738
:100890009FE79FE79FE79FE79FEFBFEFDD969D767E
:1008A000BD869D869D7EDE8EFFA61FA7FEA6FE9EB0
:1008B000FE9EFE9EFFA6FFA67FCFFFFFFFFFFFFF6E
:1008C000FFFFFFFFFFFFFFFFFFFFFFFFFFFFFFFF38
:1008D000FFFFFFFFFFFFFFFFFFFF7FD77FD77FD720
:1008E0007FD77FD77FD77FD77FD77FD77FD77FD758
:1008F0007FD77FD77FD77FD77FD77FD77FD77FD748
:100900007FD77FDF9FE79FE79FE79FE79FE79FE70F
:100910009FE79FE79FE79FE79FE79FE79FE79FE7A7
:100920009FE79FE79FE79FE79FE79FE79FE79FE797
:100930009FE79FE79FE79FE7BFEF7ED79D7E9D7E66
:10094000BD86BD86BD869D7EBD86FE9EFFA6FEA69B
:10095000FFA6FFA61EAF9FDFFFFFFFFFFFFFFFFF0A
:10096000FFFFFFFFFFFFFFFFFFFFFFFFFFFFFFFF97
:10097000FFFFFFFFFFFFFFFFFFFF9FE77FD77FD74F
:100980007FD77FD77FD77FD77FD77FD77FD77FD7B7
:100990007FD77FD77FD77FD77FD77FD77FD77FD7A7
:1009A0007FD77FD79FDF9FE79FE79FE79FE79FE77F
:1009B0009FE79FE79FE79FE79FE79FE79FE79FE707
:1009C0009FE79FE79FE79FE79FE79FE79FE79FE7F7
:1009D0009FE79FE79FE79FE7BFF79FDF9FDF9FDFCF
:1009E0009FDF9FDF9FDF9FDF9FDF9FDFBFDFBFE7CF
:1009F000BFE7DFEFFFFFFFFFFFFFFFFFFFFFFFFF8F
:100A0000FFFFFFFFFFFFFFFFFFFFFFFFFFFFFFFFF6
:100A1000FFFFFFFFFFFFFFFFFFFFFFFF5FD77FD756
:100A20007FD77FD77FD77FD77FD77FD77FD77FD716
:100A30007FD77FD77FD77FD77FD77FD77FD77FD706
:100A40007FD77FD77FD79FE79FE79FE79FE79FE706
:100A50009FE79FE79FE79FE79FE79FE79FE79FE766
:100A60009FE79FE79FE79FE79FE79FE79FE79FE756
:100A70009FE79FE79FE79FE79FE7FFFFFFFFFFFFDE
:100A8000FFFFFFFFFFFFFFFFFFFFFFFFFFFFFFFF76
:100A9000FFFFFFFFFFFFFFFFFFFFFFFFFFFFFFFF66
:100AA000FFFFFFFFFFFFFFFFFFFFFFFFFFFFFFFF56
:100AB000FFFFFFFFFFFFFFFFFFFFFFFFFFFF9FE7BE
:100AC0007FDF7FD77FDF7FDF7FDF7FDF7FDF7FDF3E
:100AD0007FDF7FDF7FDF7FDF7FDF7FDF7FDF7FDF26
:100AE0007FDF7FDF7FD77FD79FE7BFEF9FE79FE75E
:100AF0009FE79FE79FE79FE79FE79FE79FE79FE7C6
:100B00009FE79FE79FE79FE79FE79FE79FE79FE7B5
:100B10009FE79FE79FE7DFF7FFFFFFFFFFFFFFFF75
:100B2000FFFFFFFFFFFFFFFFFFFFFFFFFFFFFFFFD5
:100B3000FFFFFFFFFFFFFFFFFFFFFFFFFFFFFFFFC5
:100B4000FFFFFFFFFFFFFFFFFFFFFFFFFFFFFFFFB5
:100B5000FFFFFFFFFFFFFFFFFFFFFFFFFFFFDFEFD5
:100B6000BFEFBFEFBFEFBFEFBFEFBFEFBFEFBFEF15
:100B7000BFEFBFEFBFEFBFEFBFEFBFEFBFEFBFEF05
:100B8000BFEFBFEFBFEF9FEF9FE7BFEFDFF7DFFFE5
:100B9000DFFFDFF7DFF7DFF7DFF7DFF7DFF7DFF79D
:100BA000DFF7DFF7DFF7DFF7DFF7DFF7DFF7DFF795
:100BB000DFF7DFFFDFFFDFF7FFFFFFFFFFFFFFFFD5
:100BC000FFFFFFFFFFFFFFFFFFFFFFFFFFFFFFFF35
:100BD000FFFFFFFFFFFFFFFFFFFFFFFFFFFFFFFF25
:100BE000FFFFFFFFFFFFFFFFFFFFFFFFFFFFFFFF15
:100BF0005ECF9D969D969D96BD969D8E7D86FEAE02
:100C00009D967D8E7D867D867D867D867D867D8694
:100C10007D867D867D867D867D867D867D867D86BC
:100C20007D867D867D867D867D867D867D8E9D8E7C
:100C30007D8E7D8E7D8E7D8E7D8E7D8E7D8E7D8E5C
:100C40007D8E7D8E7D8E7D8E7D8E7D8E7D8E7D8E4C
:100C50007D8E9D969D96DDA67D869D8EBD969D96EC
:100C60009D969D969D969D969D969D969D969D96EC
:100C70009D969D969D969D969D969D969D96BD9EB4
:100C8000FFFFFFFFFFFFFFFFFFFFFFFFFFFFFFFF74
:100C9000FC5DFC5DFC5DFC5DFC5DFC5DFC5DDC55B4
:100CA000BB459B45BB45BB45BB45BB45BB45BB4564
:100CB000BB45BB45BB45BB45BB45BB45BB45BB4534
:100CC000BB45BB45BB45BB45BB45BB459B459B4564
:100CD0009B459B459B459B459B459B459B459B4514
:100CE0009B459B459B459B459B459B459B459B4504
:100CF0009B459B45BB45DC55FC5DFC5DFC5DFC5D9F
:100D0000FC5DFC5DFC5DFC5DFC5DFC5DFC5DFC5D1B
:100D1000FC5DFC5DFC5DFC5DFC5DFC5DFC5DFC5D0B
:100D2000FFFFFFFFFFFFFFFFFFFFFFFFFFFFFFFFD3
:100D3000FEAE5C763C763C763C763C763C763C7609
:100D40003C763C763C763C763C763C763C763C7613
:100D50003C763C763C763C763C763C763C763C7603
:100D60003C763C763C763C763C763C763C763C76F3
:100D70003C763C763C763C763C763C763C763C76E3
:100D80003C763C763C763C763C763C763C763C76D3
:100D90003C763C763C763C763C763C763C763C76C3
:100DA0003C763C763C763C763C763C763C763C76B3
:100DB0003C763C763C763C763C763C763C765D7E7A
:100DC000FFFFFFFFFFFFFFFFFFFFFFFFFFFFFFFF33
:100DD000FFFFFFFFFFFFFFFFFFFFFFFFFFFFFFFF23
:100DE000FFFFFFFFFFFFFFFFFFFFFFFFFFFFFFFF13
:100DF000FFFFFFFFFFFFFFFFFFFFFFFFFFFFFFFF03
:10105000FFFFFFFFFFFFFFFFDFF73EBF1EB71EB71B
:101060001EB71EB71EB71EB71EB71EB71EB71EB7D8
:101070001EB71EB71EB71EB71EB71EB71EB71EB7C8
:101080001EB71EB71EB71EB71EB71EB71EB71EB7B8
:101090001EB71EB71EB71EB71EB71EB71EB71EB7A8
:1010A0001EB71EB71EB71EB71EB71EB71EB71EB798
:1010B0001EB71EB71EB71EB71EB71EB71EB71EB788
:1010C0001EB71EB71EB73EC7FFFFFFFF7FD71EB775
:1010D0001EB71EB71EB73EBFFFFFFFFFFFFFFFFF9C
:1010E000FFFFFFFFFFFFFFFFFFFFFFFFFFFFFFFF10
:1010F000FFFFFFFFFFFFFFFF9D96FC5DFC5DFC5DBA
:10110000FC5DFC5DFC5DFC5DFC5DFC5DFC5DFC5D17
:10111000FC5DFC5DFC5DFC5DFC5DFC5DFC5DFC5D07
:10112000FC5DFC5DFC5DFC5DFC5DFC5DFC5DFC5DF7
:10113000FC5DFC5DFC5DFC5DFC5DFC5DFC5DFC5DE7
:10114000FC5DFC5DFC5DFC5DFC5DFC5DFC5DFC5DD7
:10115000FC5DFC5DFC5DFC5DFC5DFC5DFC5DFC5DC7
:10116000FC5DFC5DFC5DFC5D7ED7FFFFFC5DFC5D16
:10117000FC5DFC5DFC5DFC5DDDA6FFFFFFFFFFFF8E
:10118000FFFFFFFFFFFFFFFFFFFFFFFFFFFFFFFF6F
:10119000FFFFFFFFFFFFFFFF1EBFFC65FC5DFC5D67
:1011A000FC5DFC5DFC5DFC5DFC5DFC5DFC5DFC5D77
:1011B000FC5DFC5DFC5DFC5DFC5DFC5DFC5DFC5D67
:1011C000FC5DFC5DFC5DFC5DFC5DFC5DFC5DFC5D57
:1011D000FC5DFC5DFC5DFC5DFC5DFC5DFC5DFC5D47
:1011E000FC5DFC5DFC5DFC5DFC5DFC5DFC5DFC5D37
:1011F000FC5DFC5DFC5DFC5DFC5DFC5DFC5DFC5D27
:10120000FC5DFC5DFC5D1C6EBFE7FFFF5D7EFC5D71
:10121000FC5DFC5DFC5D1C665ECFFFFFFFFFFFFF1A
:10122000FFFFFFFFFFFFFFFFFFFFFFFFFFFFFFFFCE
:10123000FFFFFFFFFFFFFFFFFFFFDFF7DFEFDFEF46
:10124000DFEFDFEFDFEFDFEFDFEFDFEFDFEFDFEF2E
:10125000DFEFDFEFDFEFDFEFDFEFDFEFDFEFDFEF1E
:10126000DFEFDFEFDFEFDFEFDFEFDFEFDFEFDFEF0E
:10127000DFEFDFEFDFEFDFEFDFEFDFEFDFEFDFEFFE
:10128000DFEFDFEFDFEFDFEFDFEFDFEFDFEFDFEFEE
:10129000DFEFDFEFDFEFDFEFDFEFDFEFDFEFDFEFDE
:1012A000DFEFDFEFDFEFFFFFFFFFFFFFFFFFDFEF0E
:1012B000DFEFDFEFDFEFFFF7FFFFFFFFFFFFFFFFD6
:1012C000FFFFFFFFFFFFFFFFFFFFFFFFFFFFFFFF2E
:1012D000FFFFFFFFFFFFFFFFFFFFFFFFFFFFFFFF1E
:1012E000FFFFFFFFFFFFFFFFFFFFFFFFFFFFFFFF0E
:1012F000FFFFFFFFFFFFFFFFFFFFFFFFFFFFFFFFFE
:10130000FFFFFFFFFFFFFFFFFFFFFFFFFFFFFFFFED
:10131000FFFFFFFFFFFFFFFFFFFFFFFFFFFFFFFFDD
:10132000FFFFFFFFFFFFFFFFFFFFFFFFFFFFFFFFCD
:10133000FFFFFFFFFFFFFFFFFFFFFFFFFFFFFFFFBD
:10134000FFFFFFFFFFFFFFFFFFFFFFFFFFFFFFFFAD
:10135000FFFFFFFFFFFFFFFFFFFFFFFFFFFFFFFF9D
:10136000FFFFFFFFFFFFFFFFFFFFFFFFFFFFFFFF8D
:10137000FFFFFFFFFFFFFFFFFFFFFFFFFFFFFFFF7D
:10138000FFFFFFFFFFFFFFFFFFFFFFFFFFFFFFFF6D
:10139000FFFFFFFFFFFFFFFFFFFFFFFFFFFFFFFF5D
:1013A000FFFFFFFFFFFFFFFFFFFFFFFFFFFFFFFF4D
:1013B000FFFFFFFFFFFFFFFFFFFFFFFFFFFFFFFF3D
:1013C000FFFFFFFFFFFFFFFFFFFFFFFFFFFFFFFF2D
:1013D000FFFFFFFFFFFFFFFFFFFFFFFFFFFFFFFF1D
:1013E000FFFFFFFFFFFFFFFFFFFFFFFFFFFFFFFF0D
:1013F000FFFFFFFFFFFFFFFFFFFFFFFFFFFFFFFFFD
:10140000FFFFFFFFFFFFFFFFFFFFFFFFFFFFFFFFEC
:10141000FFFFFFFFFFFFFFFFFFFFFFFFFFFFFFFFDC
:10142000FFFFFFFFFFFFFFFFFFFFFFFFFFFFFFFFCC
:10143000FFFFFFFFFFFFFFFFFFFFFFFFFFFFFFFFBC
:10144000FFFFFFFFFFFFFFFFFFFFFFFFFFFFFFFFAC
:10145000FFFFFFFFFFFFFFFFFFFFFFFFFFFFFFFF9C
:10146000FFFFFFFFFFFFFFFFFFFFFFFFFFFFFFFF8C
:10147000FFFFFFFFFFFFFFFFFFFFFFFFFFFFFFFF7C
:10148000FFFFFFFFFFFFFFFFFFFFFFFFFFFFFFFF6C
:10149000FFFFFFFFFFFFFFFFFFFFFFFFFFFFFFFF5C
:1014A000FFFFFFFFFFFFFFFFFFFFFFFFFFFFFFFF4C
:1014B000FFFFFFFFFFFFFFFFFFFFFFFFFFFFFFFF3C
:1014C000FFFFFFFFFFFF7ED77ED77ED77ED77ED779
:1014D0007ED77ED77ED77ED77ED77ED77ED79FDF3B
:1014E000FFFFFFFFFFFF7ED77ED77ED77ED77ED759
:1014F0007ED77ED77ED77ED77ED77ED77ED77ED744
:101500007ED77ED77ED77ED77ED77ED77ED77ED733
:101510007ED77ED77ED77ED77ED77ED77ED77ED723
:101520007ED77ED77ED77ED77ED77ED7FFFFFFFFC1
:10153000FFFFFFFFFFFFFFFFFFFFFFFFFFFFFFFFBB
:10154000FFFFFFFFFFFFFFFFFFFFFFFFFFFFFFFFAB
:10155000FFFFFFFFFFFFFFFFFFFFFFFFFFFFFFFF9B
:10156000FFFFFFFF3C76FC5DFC5DFC5DFC5DFC5D10
:10157000FC5DFC5DFC5DFC5DFC5DFC5DFC5DFC5DA3
:101580001EBFFFFF7D86FC5DFC5DFC5DFC5DFC5DC0
:10159000FC5DFC5DFC5DFC5DFC5DFC5DFC5DFC5D83
:1015A000FC5DFC5DFC5DFC5DFC5DFC5DFC5DFC5D73
:1015B000FC5DFC5DFC5DFC5DFC5DFC5DFC5DFC5D63
:1015C000FC5DFC5DFC5DFC5DFC5DFC5D9D8EFFFFDC
:1015D000FFFFFFFFFFFFFFFFFFFFFFFFFFFFFFFF1B
:1015E000FFFFFFFFFFFFFFFFFFFFFFFFFFFFFFFF0B
:1015F000FFFFFFFFFFFFFFFFFFFFFFFFFFFFFFFFFB
:10160000FFFFFFFF5D7EFC5DFC5DFC5DFC5DFC5D46
:10161000FC5DFC5DFC5DFC5DFC5DFC5DFC5DFC5D02
:101620003EBFFFFF7D86FC5DFC5DFC5DFC5DFC5DFF
:10163000FC5DFC5DFC5DFC5DFC5DFC5DFC5DFC5DE2
:10164000FC5DFC5DFC5DFC5DFC5DFC5DFC5DFC5DD2
:10165000FC5DFC5DFC5DFC5DFC5DFC5DFC5DFC5DC2
:10166000FC5DFC5DFC5DFC5DFC5DFC5D9D8EFFFF3B
:10167000FFFFFFFFFFFFFFFFFFFFFFFFFFFFFFFF7A
:10168000FFFFFFFFFFFFFFFFFFFFFFFFFFFFFFFF6A
:10169000FFFFFFFFFFFFFFFFFFFFFFFFFFFFFFFF5A
:1016A000FFFFFFFFFFFF7FDF7FD77FD77FD77FD78A
:1016B0007FD77FD77FD77FD77FD77FD77FD79FDF52
:1016C000FFFFFFFFFFFF7FDF7FD77FD77FD77FD76A
:1016D0007FD77FD77FD77FD77FD77FD77FD77FD75A
:1016E0007FD77FD77FD77FD77FD77FD77FD77FD74A
:1016F0007FD77FD77FD77FD77FD77FD77FD77FD73A
:101700007FD77FD77FD77FD77FD79FDFFFFFFFFFB1
:10171000FFFFFFFFFFFFFFFFFFFFFFFFFFFFFFFFD9
:10172000FFFFFFFFFFFFFFFFFFFFFFFFFFFFFFFFC9
:10173000FFFFFFFFFFFFFFFFFFFFFFFFFFFFFFFFB9
:10174000FFFFFFFFFFFFFFFFFFFFFFFFFFFFFFFFA9
:10193000FFFFDFEFBFEFBFEFBFEFBFEFBFEFBFEFC7
:10194000BFEFBFEFBFEFBFEFBFEFBFEFBFEFBFEF27
:10195000BFEFBFEFBFEFBFEFBFEFDFF7FFFFFFFF4F
:10196000FFFFDFEFBFEFBFEFBFEFBFEFBFEFBFEF97
:10197000BFEFBFEFBFEFBFEFBFEFBFEFBFEFDFF7CF
:10198000FFFFFFFFFFFFFFFFFFFFFFFFFFFFFFFF67
:10199000FFFFFFFFFFFFFFFFFFFFFFFFFFFFFFFF57
:1019A000FFFFFFFFFFFFFFFFFFFFFFFFFFFFFFFF47
:1019B000FFFFFFFFFFFFFFFFFFFFFFFFFFFFFFFF37
:1019C000FFFFFFFFFFFFFFFFFFFFFFFFFFFFFFFF27
:1019D000FEAEFC5DFC5DFC5DFC5DFC5DFC5DFC5DEC
:1019E000FC5DFC5DFC5DFC5DFC5DFC5DFC5DFC5D2F
:1019F000FC5DFC5DFC5DFC5DFC5DFC657ECFFFFF7E
:101A0000DDA6FC5DFC5DFC5DFC5DFC5DFC5DFC5DE4
:101A1000FC5DFC5DFC5DFC5DFC5DFC5DFC5DFC5DFE
:101A20003EBFFFFFFFFFFFFFFFFFFFFFFFFFFFFFC7
:101A3000FFFFFFFFFFFFFFFFFFFFFFFFFFFFFFFFB6
:101A4000FFFFFFFFFFFFFFFFFFFFFFFFFFFFFFFFA6
:101A5000FFFFFFFFFFFFFFFFFFFFFFFFFFFFFFFF96
:101A6000FFFFFFFFFFFFFFFFFFFFFFFFFFFFFFFF86
:101A70007D86FC5DFC5DFC5DFC5DFC5DFC5DFC5DF4
:101A8000FC5DFC5DFC5DFC5DFC5DFC5DFC5DFC5D8E
:101A9000FC5DFC5DFC5DFC5DFC5DFC5D1EB7FFFF5D
:101AA0005D7EFC5DFC5DFC5DFC5DFC5DFC5DFC5DEC
:101AB000FC5DFC5DFC5DFC5DFC5DFC5DFC5DFC5D5E
:101AC000BD9EFFFFFFFFFFFFFFFFFFFFFFFFFFFFC9
:101AD000FFFFFFFFFFFFFFFFFFFFFFFFFFFFFFFF16
:101AE000FFFFFFFFFFFFFFFFFFFFFFFFFFFFFFFF06
:101AF000FFFFFFFFFFFFFFFFFFFFFFFFFFFFFFFFF6
:101B0000FFFFFFFFFFFFFFFFFFFFFFFFFFFFFFFFE5
:101B1000BFEFFEAEFEAEFEAEFEAEFEAEFEAEFEAE63
:101B2000FEAEFEAEFEAEFEAEFEAEFEAEFEAEFEAE55
:101B3000FEAEFEAEFEAEFEAEFEAE1EB7FFFFFFFF78
:101B4000BFEFFEAEFEAEFEAEFEAEFEAEFEAEFEAE33
:101B5000FEAEFEAEFEAEFEAEFEAEFEAEFEAEFEB61D
:101B6000DFF7FFFFFFFFFFFFFFFFFFFFFFFFFFFFAD
:101B7000FFFFFFFFFFFFFFFFFFFFFFFFFFFFFFFF75
:101B8000FFFFFFFFFFFFFFFFFFFFFFFFFFFFFFFF65
:101B9000FFFFFFFFFFFFFFFFFFFFFFFFFFFFFFFF55
:101BA000FFFFFFFFFFFFFFFFFFFFFFFFFFFFFFFF45
:10285000FFFFDFEF7FCF3FBF1FAF1FAF1FAF3FB700
:102860007FCFBFE7FFFFFFFFFFFFFFFFFFFFFFFF80
:10287000FFFFFFFFFFFFFFFFFFFFFFFFFFFFFFFF68
:10288000FFFFFFFFFFFFFFFFFFFFFFFFFFFFFFFF58
:10289000FFFFFFFFFFFFFFFFFFFFFFFFFFFFFFFF48
:1028A000FFFFFFFFFFFFFFFFFFFFFFFFFFFFFFFF38
:1028B000FFFFFFFFFFFFFFFFFFFFFFFFFFFFFFFF28
:1028C000FFFFFFFFFFFFFFFFFFFFFFFFFFFFFFFF18
:1028D000FFFFFFFFFFFFFFFFFFFFFFFFFFFFFFFF08
:1028E000FFFFFFFFFFFFFFFFFFFFFFFFFFFFDFEF28
:1028F0003FBFFE9EFE9EFE9EFE9EFE9EFE9EFE9E96
:10290000FE9EFE9E3FB7BFE7FFFFFFFFFFFFFFFFFB
:10291000FFFFFFFFFFFFFFFFFFFFFFFFFFFFDFF7EF
:10292000DFF7BFEFBFEFBFEFDFF7FFFFFFFFFFFFF7
:10293000FFFFFFFFFFFFFFFFFFFFFFFFFFFFFFFFA7
:10294000FFFFFFFFFFFFFFFFFFFFFFFFFFFFFFFF97
:10295000FFFFFFFFFFFFFFFFFFFFFFFFFFFFFFFF87
:10296000FFFFFFFFFFFFFFFFFFFFFFFFFFFFFFFF77
:10297000FFFFFFFFFFFFFFFFFFFFFFFFFFFFFFFF67
:10298000FFFFFFFFFFFFFFFFFFFFFFFF7FD7FE9E61
:10299000FE9EFE9EFE9EFE9EFE9EFE9EFE9EFE9E57
:1029A000FE9EFE9EFE9EFE9E7FC7FFFFFFFFFFFF77
:1029B000FFFFFFFFFFFFFFFFFFFFFFFFBFEF9FE7EF
:1029C0009FE79FE79FE79FE79FE79FE7DFF7FFFF0F
:1029D000FFFFFFFFFFFFFFFFFFFFFFFFFFFFFFFF07
:1029E000FFFFFFFFFFFFFFFFFFFFFFFFFFFFFFFFF7
:1029F000FFFFFFFFFFFFFFFFFFFFFFFFFFFFFFFFE7
:102A0000FFFFFFFFFFFFFFFFFFFFFFFFFFFFFFFFD6
:102A1000FFFFFFFFFFFFFFFFFFFFFFFFFFFFFFFFC6
:102A2000FFFFFFFFFFFFFFFFFFFF7FCFFE9EFE9E2A
:102A3000FE9EFE9EFE9EFE9EFE9EFE9EFE9EFE9EB6
:102A4000FE9EFE9EFE9EFE9EFE9E5FBFFFFFFFFF60
:102A5000FFFFFFFFFFFFFFFFFFFF9FE79FE79FE7EE
:102A60009FE79FE79FE79FE79FE79FE79FE7DFF7E6
:102A7000FFFFFFFFFFFFFFFFFFFFFFFFFFFFFFFF66
:102A8000FFFFFFFFFFFFFFFFFFFFFFFFFFFFFFFF56
:102A9000FFFFFFFFFFFFFFFFFFFFFFFFFFFFFFFF46
:102AA000FFFFFFFFFFFFFFFFFFFFFFFFFFFFFFFF36
:102AB000FFFFFFFFFFFFFFFFFFFFFFFFFFFFFFFF26
:102AC000FFFFFFFFFFFFFFFF9FDFFE9EFE9EFE9EBC
:102AD000FE9EFE9EFE9EFE9EFE9EFE9EFE9EFE9E16
:102AE000FE9EFE9EFE9EFE9EFE9EFE9E7FCFFFFFF2
:102AF000FFFFFFFFFFFFFFFF9FE79FE79FE79FE7C6
:102B00009FE79FE79FE79FE79FE79FE79FE79FE795
:102B1000DFF7FFFFFFFFFFFFFFFFFFFFFFFFFFFFED
:102B2000FFFFFFFFFFFFFFFFFFFFFFFFFFFFFFFFB5
:102B3000FFFFFFFFFFFFFFFFFFFFFFFFFFFFFFFFA5
:102B4000FFFFFFFFFFFFFFFFFFFFFFFFFFFFFFFF95
:102B5000FFFFFFFFFFFFFFFFFFFFFFFFFFFFFFFF85
:102B6000FFFFFFFFFFFFFFFFFE9EFE9EFE9EFE9EFD
:102B7000FE9EFE9EFE9EFE9EFE9EFE9EFE9EFE9E75
:102B8000FE9EFE9EFE9EFE9EFE9EFE9EFEA6DFEF2B
:102B9000FFFFFFFFFFFFDFF79FE79FE79FE79FE74D
:102BA0009FE79FE79FE79FE79FE79FE79FE79FE7F5
:102BB0009FE7FFFFFFFFFFFFFFFFFFFFFFFFFFFF9D
:102BC000FFFFFFFFFFFFFFFFFFFFFFFFFFFFFFFF15
:102BD000FFFFFFFFFFFFFFFFFFFFFFFFFFFFFFFF05
:102BE000FFFFFFFFFFFFFFFFFFFFFFFFFFFFFFFFF5
:102BF000FFFFFFFFFFFFFFFFFFFFFFFFFFFFFFFFE5
:102C0000FFFFFFFFFFFF5FC7FE9EFE9EFE9EFE9E34
:102C1000FE9EFE9EFE9EFE9EFE9EFE9EFE9EFE9ED4
:102C2000FE9EFE9EFE9EFE9EFE9EFEA6FE961FAF92
:102C3000FFFFFFFFFFFF9FE79FE79FE79FE79FE7FC
:102C40009FE79FE79FE79FE79FE79FE79FE79FE754
:102C50009FE7DFF7FFFFFFFFFFFFFFFFFFFFFFFF24
:102C6000FFFFFFFFFFFFFFFFFFFFFFFFFFFFFFFF74
:102C7000FFFFFFFFFFFFFFFFFFFFFFFFFFFFFFFF64
:102C8000FFFFFFFFFFFFFFFFFFFFFFFFFFFFFFFF54
:102C9000FFFFFFFFFFFFFFFFFFFFFFFFFFFFFFFF44
:102CA000FFFFFFFFFFFFFEA6FE9EFE9EFE9EFE9E16
:102CB000FE9EFE9EFE9EFE9EFE9EFE9EFE9EFE9E34
:102CC000FE9EFE9EFE9EDE96DE96DE96FEA65FCF02
:102CD0007FDF7FD77FDF9FE79FE79FE79FE79FE744
:102CE0009FE79FE79FE79FE79FE79FE79FE79FE7B4
:102CF0009FE7DFF7FFFFFFFFFFFFFFFFFFFFFFFF84
:102D0000FFFFFFFFFFFFFFFFFFFFFFFFFFFFFFFFD3
:102D1000FFFFFFFFFFFFFFFFFFFFFFFFFFFFFFFFC3
:102D2000FFFFFFFFFFFFFFFFFFFFFFFFFFFFFFFFB3
:102D3000FFFFFFFFFFFFFFFFFFFFFFFFBFE77FCFAB
:102D40005EC79FD77FD7FEA6FE9EFE9EFE9EFE9E7E
:102D5000FE9EFE9EFE9EFE9EFE9EFE9EFE9EFEA68B
:102D6000FE9EDE961EA71FB73FB71FAF7FD79FE718
:102D70007FD77FD77FDF9FE79FE79FE79FE79FE7AB
:102D80009FE79FE79FE79FE79FE79FE79FE79FE713
:102D90009FE7BFEFFFFFDFF7FFFFFFFFFFFFFFFF33
:102DA000FFFFFFFFFFFFFFFFFFFFFFFFFFFFFFFF33
:102DB000FFFFFFFFFFFFFFFFFFFFFFFFFFFFFFFF23
:102DC000FFFFFFFFFFFFFFFFFFFFFFFFFFFFFFFF13
:102DD000FFFFFFFFFFFFFFFFBFE7FE9E9D869D8673
:102DE0009D7EBD86FEA6FEA6FE9EFE9EFE9EFE9ECD
:102DF000FE9EFE9EFE9EFE9EFE9EFE9EFEA6FE9EEB
:102E0000FE9E3FBF7FDF7FE77FE77FE77FDF7FD7E4
:102E10007FD77FD77FDF9FE79FE79FE79FE79FE70A
:102E20009FE79FE79FE79FE79FE79FE79FE79FE772
:102E30009FE79FE79FE79FE79FE7BFEFFFFFFFFF4A
:102E4000FFFFFFFFFFFFFFFFFFFFFFFFFFFFFFFF92
:102E5000FFFFFFFFFFFFFFFFFFFFFFFFFFFFFFFF82
:102E6000FFFFFFFFFFFFFFFFFFFFFFFFFFFFFFFF72
:102E7000FFFFFFFFFFFF7FD79D7E9D86BD86BD863E
:102E80009D86BD86FE9EFFA6FE9EFE9EFE9EFE9E2B
:102E9000FE9EFE9EFE9EFE9EFE9EFE9EFE9EFE9E52
:102EA0005FCF9FE77FDF7FD77FD77FDF7FD77FD75A
:102EB0007FD77FD77FDF9FE79FE79FE79FE79FE76A
:102EC0009FE79FE79FE79FE79FE79FE79FE79FE7D2
:102ED0009FE79FE79FE79FE79FE79FE79FE7DFF772
:102EE000FFFFFFFFFFFFFFFFFFFFFFFFFFFFFFFFF2
:102EF000FFFFFFFFFFFFFFFFFFFFFFFFFFFFFFFFE2
:102F0000FFFFFFFFFFFFFFFFFFFFBFE75EBF1EA743
:102F1000FE9EFEA61EAF9D869D86BD86BD86BD8695
:102F2000BD86BD86FE9EFFA6FE9EFE9EFE9EFE9E6A
:102F3000FE9EFE9EFE9EFE9EFE9EFE9EDE963FBF77
:102F40009FE77FD77FD77FD77FD77FD77FD77FD7A1
:102F50007FD77FD77FD79FE79FE79FE79FE79FE7D1
:102F60009FE79FE79FE79FE79FE79FE79FE79FE731
:102F70009FE79FE79FE79FE79FE79FE79FE79FE721
:102F8000FFFFFFFFFFFFFFFFFFFFFFFFFFFFFFFF51
:102F9000FFFFFFFFFFFFFFFFFFFFFFFFFFFFFFFF41
:102FA000FFFFFFFFFFFFDFF71EAF9D869D869D861B
:102FB0009D86BD869D86BD86BD86BD86BD86BD8639
:102FC000BD869D7EDE961FA7FE9EFE9EFE9EFE9EF9
:102FD000FE9EFE9EFE9EFE9EFE9EFE9EFE9E7FD757
:102FE0007FDF7FD77FD77FD77FD77FD77FD77FD729
:102FF0007FD77FD77FD77FDF9FE79FE79FE79FE759
:103000009FE79FE79FE79FE79FE79FE79FE79FE790
:103010009FE79FE79FE79FE79FE79FE79FE79FE780
:10302000FFFFFFFFFFFFFFFFFFFFFFFFFFFFFFFFB0
:10303000FFFFFFFFFFFFFFFFFFFFFFFFFFFFFFFFA0
:10304000FFFFFFFFDFEFBD869D86BD86BD86BD8687
:10305000BD86BD86BD86BD86BD86BD86BD86BD8658
:10306000BD869D7EBE8E1FA7FE9EFE9EFE9EFE9E80
:10307000FE9EFE9EFE9EFE9EFE9EFE961EAF7FDF85
:103080007FDF7FD77FD77FD77FD77FD77FD77FD788
:103090007FD77FD77FD77FD79FE79FE79FE79FE7C0
:1030A0009FE79FE79FE79FE79FE79FE79FE79FE7F0
:1030B0009FE79FE79FE79FE79FE79FE79FE79FE7E0
:1030C000FFFFFFFFFFFFFFFFFFFFFFFFFFFFFFFF10
:1030D000FFFFFFFFFFFFFFFFFFFFFFFFFFFFFFFF00
:1030E000FFFFFFFFBD8E9D7EBD86BD86BD86BD8672
:1030F000BD86BD86BD86BD86BD86BD86BD86BD86B8
:10310000BD869D86BD86FE9EFEA6FE9EFE9EFE9E02
:10311000FE9EFE9EFE9EFE9EFE9EFE961EAF7FDFE4
:103120007FDF7FD77FD77FD77FD77FD77FD77FD7E7
:103130007FD77FD77FD77FD77FDF9FE79FE79FE747
:103140009FE79FE79FE79FE79FE79FE79FE79FE74F
:103150009FE79FE79FE79FE79FE79FE79FE79FE73F
:10316000FFFFFFFFFFFFFFFFFFFFFFFFFFFFFFFF6F
:10317000FFFFFFFFFFFFFFFFFFFFFFFFFFFFFFFF5F
:10318000FFFF1EAF9D7EBD86BD86BD86BD86BD860A
:10319000BD86BD86BD86BD86BD86BD86BD86BD8617
:1031A000BD86BD869D7EDE961FA7FE9EFE9EFE9E70
:1031B000FE9EFE9EFE9EFE9EFE9EFE9E1EA77FDF44
:1031C0007FDF7FD77FD77FD77FD77FD77FD77FD747
:1031D0007FD77FD77FD77FD77FD79FDF9FE79FE7B7
:1031E0009FE79FE79FE79FE79FE79FE79FE79FE7AF
:1031F0009FE79FE79FE79FE79FE79FE79FE79FE79F
:10320000FFFFFFFFFFFFFFFFFFFFFFFFFFFFFFFFCE
:10321000FFFFFFFFFFFFFFFFFFFFFFFFFFFFFFFFBE
:10322000BFE79D7EBD86BD86BD86BD869D7E9D76A3
:103230009D769D7E9D7EBD86BD86BD86BD86BD86F6
:10324000BD86BD869D7EBD8EFFA6FE9EFE9EFE9E19
:10325000FE9EFE9EFE9EFE9EFE9EFE9EDE965FCF24
:103260009FE77FD77FD77FD77FD77FD77FD77FD77E
:103270007FD77FD77FD77FD77FD77FD79FE79FE73E
:103280009FE79FE79FE79FE79FE79FE79FE79FE70E
:103290009FE79FE79FE79FE79FE79FE79FE79FE7FE
:1032A000FFFFFFFFFFFFFFFFFFFFFFFFFFFFFFFF2E
:1032B000FFFFFFFFFFFFFFFFFFFFFFFFFFFFFFFF1E
:1032C0003EBF9D7EBD86BD867D767D76BD8EDD96BC
:1032D000DE9EDD969D7E7D6E9D7EBD86BD86BD8615
:1032E000BD86BD86BD869D7EDE9E1FA7FE9EFE9E80
:1032F000FE9EFE9EFE9EFE9EFE9EFE9EFE961EA7CD
:103300007FE77FDF7FD77FD77FD77FD77FD77FD7F5
:103310007FD77FD77FD77FD77FD77FD77FD79FE7CD
:103320009FE79FE79FE79FE79FE79FE79FE79FE76D
:103330009FE79FE79FE79FE79FE79FE79FE7BFEF35
:10334000FFFFFFFFFFFFFFFFFFFFFFFFFFFFFFFF8D
:10335000FFFFFFFFFFFFFFFFFFFFFFFFFFFFFFFF7D
:10336000FEA69D869D7E7D76DD965EC79FE7BFEFBC
:10337000BFEF9FEF7EDF1EB79D867D76BD86BD8643
:10338000BD86BD86BD869D7EBD86FFA6FEA6FE9E31
:10339000FE9EFE9EFE9EFE9EFE9EFE9EFEA6DE966D
:1033A0001FAF7FDF9FE77FDF7FDF7FDF7FDF7FDF95
:1033B0007FDF7FDF7FDF7FDF7FDF7FDF7FDF7FDF1D
:1033C0009FE7BFEFBFEFBFEF9FE79FE79FE79FE755
:1033D0009FE79FE79FE79FE79FE79FE7BFEFFFFF1D
:1033E000FFFFFFFFFFFFFFFFFFFFFFFFFFFFFFFFED
:1033F000FFFFFFFFFFFFFFFFFFFFFFFFFFFFFFFFDD
:10340000DE969D7E7D761EB7BFF7DFFFBFEF9FE79D
:103410009FE79FEFBFF7DFFF9FE7DD967D6EBD86DD
:10342000BD86BD86BD86BD869D7EDE961FA7FE9E9F
:10343000FE9EFE9EFE9EFE9EFE9EFE9EFE9EFE9EAC
:10344000DE96FEA63FC75FCF5FCF5FCF5FCF5FCF78
:103450005FCF5FCF5FCF5FCF5FCF5FCF5FCF5FCFFC
:103460005FCF5FD77FD79FDFBFEFBFEFBFEFBFEF6C
:10347000BFEFBFEFBFEFBFEFBFEFDFF7FFFFFFFF14
:10348000FFFFFFFFFFFFFFFFFFFFFFFFFFFFFFFF4C
:10349000FFFFFFFFFFFFFFFFFFFFFFFFFFFFFFFF3C
:1034A000DE967D6E3EB7DFFFBFEF9FE79FE79FE7AA
:1034B0009FE79FE79FE79FE7BFF7BFF7DD967D7622
:1034C000BD86BD86BD86BD869D869D7EFE9E1FA750
:1034D000FE9EFE9EFE9EFE9EFE9EFE9EFE9EFE9E0C
:1034E000FEA6FE9EDE96FE9EFE9EFE9EFE9EFE9E1C
:1034F000FE9EFE9EFE9EFE9EFE9EFE9EFE9EFE9EEC
:10350000FE9EFE9EFE9E1FAFFFFFFFFFFFFFFFFF21
:10351000FFFFFFFFFFFFFFFFFFFFFFFFFFFFFFFFBB
:10352000FFFFFFFFFFFFFFFFFFFFFFFFFFFFFFFFAB
:10353000FFFFFFFFFFFFFFFFFFFFFFFFFFFFFFFF9B
:10354000FE9EDD9EBFEFBFEF9FE79FE79FE79FE7F0
:103550009FE79FE79FE79FE79FE7BFF79FE7BD864E
:103560009D7EBD86BD86BD86BD869D7E9D86FE9E5A
:103570001FA7FE9EFE9EFE9EFE9EFE9EFE9EFE9E41
:10358000FE9EFE9EFE9EFE9EFE9EFE9EFE9EFE9E5B
:10359000FE9EFE9EFE9EFE9EFE9EFE9EFE9EFE9E4B
:1035A000FE9EFE9EFE9E3FBFFFFFFFFFFFFFFFFF51
:1035B000FFFFFFFFFFFFFFFFFFFFFFFFFFFFFFFF1B
:1035C000FFFFFFFFFFFFFFFFFFFFFFFFFFFFFFFF0B
:1035D000FFFFFFFFFFFFFFFFFFFFFFFFFFFFFFFFFB
:1035E0007FD75ECF9FE79FE79FE79FE79FE79FE734
:1035F0009FE79FE79FE79FE79FE79FE7DFFF3EB7D4
:103600005D667D769D769D86BD86BD869D7EBD86EA
:10361000FFA61FA7FE9EFE9EFE9EFE9EFE9EFE9E97
:10362000FE9EFE9EFE9EFE9EFE9EFE9EFE9EFE9EBA
:10363000FE9EFE9EFE9EFE9EFE9EFE9EFE9EFE9EAA
:10364000FE9EFE9EFE9E9FD7FFFFFFFFFFFFFFFF38
:10365000FFFFFFFFFFFFFFFFFFFFFFFFFFFFFFFF7A
:10366000FFFFFFFFFFFFFFFFFFFFFFFFFFFFFFFF6A
:10367000FFFFFFFFFFFFFFFFFFFFFFFFFFFFFFFF5A
:10368000DFF77FDF7FDF9FE79FE79FE79FE79FE70A
:103690009FE79FE79FE79FE79FE79FE7BFEF7ED703
:1036A000DD96FEA6DE9E9D7E7D76BD86BD869D7ED8
:1036B000BD86FEA61FA7FE9EFE9EFE9EFE9EFE9E51
:1036C000FE9EFE9EFE9EFE9EFE9EFE9EFE9EFE9E1A
:1036D000FE9EFE9EFE9EFE9EFE9EFE9EFE9EFE9E0A
:1036E000FE9EFE9EFE9EFFFFFFFFFFFFFFFFFFFF10
:1036F000FFFFFFFFFFFFFFFFFFFFFFFFFFFFFFFFDA
:10370000FFFFFFFFFFFFFFFFFFFFFFFFFFFFFFFFC9
:10371000FFFFFFFFFFFFFFFFFFFFFFFFFFFFFFFFB9
:10372000DFF77FD77FD79FE79FE79FE79FE79FE779
:103730009FE79FE79FE79FE79FE79FE79FE79FE759
:10374000BFEFBFF7BFF77ED7DD967D6E7D767D76C6
:103750007D6E9D86FE9E1FA7FFA6FE9EFE9EFE9E80
:10376000FE9EFE9EFE9EFE9EFE9EFE9EFE9EFE9E79
:10377000FE9EFE9EFE9EFE9EFE9EFE9EFE9EFE9E69
:10378000FE9EFE9E9FD7FFFFFFFFFFFFFFFFFFFF95
:10379000FFFFFFFFFFFFFFFFFFFFFFFFFFFFFFFF39
:1037A000FFFFFFFFFFFFFFFFFFFFFFFFFFFFFFFF29
:1037B000FFFFFFFFFFFFFFFFFFFFDFF7DFF7DFF791
:1037C000BFE77FD77FD79FDF9FE79FE79FE79FE711
:1037D0009FE79FE79FE79FE79FE79FE79FE79FE7B9
:1037E0009FE79FE79FE7DFFF9FE71EAF1EB71EB76C
:1037F000FE9E7D767D76DE96FEA61FA7FFA6FE9E28
:10380000FE9EFE9EFE9EFE9EFE9EFE9EFE9EFE9ED8
:10381000FE9EFE9EFE9EFE9EFE9EFE9EFE9EFE9EC8
:10382000FE9E5FBFFFFFFFFFFFFFFFFFFFFFFFFFEA
:10383000FFFFFFFFFFFFFFFFFFFFFFFFFFFFFFFF98
:10384000FFFFFFFFFFFFFFFFFFFFFFFFFFFFFFFF88
:10385000FFFFFFFFFFFFDFF77FDF7FD77FD77FD738
:103860007FD77FD77FD77FDF9FE79FE79FE79FE7E0
:103870009FE79FE79FE79FE79FE79FE79FE79FE718
:103880009FE79FE79FE79FE7BFEFBFF7DFF7DFF710
:10389000BFF77ED7BD867D6EBD86DE96FEA61FA7CE
:1038A000FFA6FEA6FE9EFE9EFE9EFE9EFE9EFE9E27
:1038B000FE9EFE9EFE9EFE9EFE9EFE9EFE9EFE9E28
:1038C0005FC7FFFFFFFFFFFFFFFFFFFFFFFFFFFFE0
:1038D000FFFFFFFFFFFFFFFFFFFFFFFFFFFFFFFFF8
:1038E000FFFFFFFFFFFFFFFFFFFFFFFFFFFFFFFFE8
:1038F000FFFFFFFFBFEF7FD77FD77FD77FD77FD770
:103900007FD77FD77FD77FD79FE79FE79FE79FE747
:103910009FE79FE79FE79FE79FE79FE79FE79FE777
:103920009FE79FE79FE79FE79FE79FE79FE79FE767
:103930009FE7DFFFBFEFBD8E5D669D7EBD86DE9695
:10394000FE9EFEA6FE9EFE9EFE9EFE9EFE9EFE9E8F
:10395000FE9EFE9EFE9EFE9EFE9EFEA63FBFBFE713
:10396000FFFFFFFFFFFFFFFFFFFFFFFFFFFFFFFF67
:10397000FFFFFFFFFFFFFFFFFFFFFFFFFFFFFFFF57
:10398000FFFFFFFFFFFFFFFFFFFFFFFFFFFFFFFF47
:10399000FFFFDFF77FD77FD77FD77FD77FD77FD74F
:1039A0007FD77FD77FD77FD77FDF9FE79FE79FE7CF
:1039B0009FE79FE79FE79FE79FE79FE79FE79FE7D7
:1039C0009FE79FE79FE79FE79FE79FE79FE79FE7C7
:1039D0009FE79FE7BFF79FE79FDF7FCF9FD79FD7E7
:1039E0009FD79FDFBFDFBFDFBFDFBFDFBFDFBFDF2F
:1039F000BFDFBFDFBFDFBFDFBFE7FFF7FFFFFFFFB7
:103A0000FFFFFFFFFFFFFFFFFFFFFFFFFFFFFFFFC6
:103A1000FFFFFFFFFFFFFFFFFFFFFFFFFFFFFFFFB6
:103A2000FFFFFFFFFFFFFFFFFFFFFFFFFFFFFFFFA6
:103A3000FFFF9FE77FD77FD77FD77FD77FD77FD7FE
:103A40007FD77FD77FD77FD77FD79FE79FE79FE736
:103A50009FE79FE79FE79FE79FE79FE79FE79FE736
:103A60009FE79FE79FE79FE79FE79FE79FE79FE726
:103A70009FE79FE79FE7BFF7FFFFFFFFFFFFFFFF06
:103A8000FFFFFFFFFFFFFFFFFFFFFFFFFFFFFFFF46
:103A9000FFFFFFFFFFFFFFFFFFFFFFFFFFFFFFFF36
:103AA000FFFFFFFFFFFFFFFFFFFFFFFFFFFFFFFF26
:103AB000FFFFFFFFFFFFFFFFFFFFFFFFFFFFFFFF16
:103AC000FFFFFFFFFFFFFFFFFFFFFFFFFFFFFFFF06
:103AD000FFFF7FDF7FD77FD77FD77FD77FD77FD786
:103AE0007FD77FD77FD77FD77FD77FD79FE79FE7C6
:103AF0009FE79FE79FE79FE79FE79FE79FE79FE796
:103B00009FE79FE79FE79FE79FE79FE79FE79FE785
:103B10009FE79FE79FE79FE7DFF7FFFFFFFFFFFFBD
:103B2000FFFFFFFFFFFFFFFFFFFFFFFFFFFFFFFFA5
:103B3000FFFFFFFFFFFFFFFFFFFFFFFFFFFFFFFF95
:103B4000FFFFFFFFFFFFFFFFFFFFFFFFFFFFFFFF85
:103B5000FFFFFFFFFFFFFFFFFFFFFFFFFFFFFFFF75
:103B6000FFFFFFFFFFFFFFFFFFFFFFFFFFFFFFFF65
:103B7000FFFF7FD77FD77FD77FD77FD77FD77FD7ED
:103B80007FD77FD77FD77FD77FD77FD77FDF9FE74D
:103B90009FE79FE79FE79FE79FE79FE79FE79FE7F5
:103BA0009FE79FE79FE79FE79FE79FE79FE79FE7E5
:103BB0009FE79FE79FE79FE7BFEFFFFFFFFFFFFF45
:103BC000FFFFFFFFFFFFFFFFFFFFFFFFFFFFFFFF05
:103BD000FFFFFFFFFFFFFFFFFFFFFFFFFFFFFFFFF5
:103BE000FFFFFFFFFFFFFFFFFFFFFFFFFFFFFFFFE5
:103BF000FFFFFFFFFFFFFFFFFFFFFFFFFFFFFFFFD5
:103C0000FFFFFFFFFFFFFFFFFFFFFFFFFFFFFFFFC4
:103C1000FFFF7FDF7FD77FD77FD77FD77FD77FD744
:103C20007FD77FD77FD77FD77FD77FD77FD77FDFDC
:103C30009FE79FE79FE79FE79FE79FE79FE79FE754
:103C40009FE79FE79FE79FE79FE79FE79FE79FE744
:103C50009FE79FE79FE79FE7BFEFFFFFFFFFFFFFA4
:103C6000FFFFFFFFFFFFFFFFFFFFFFFFBFE7DFEFEC
:103C7000FFFFFFFFFFFFFFFFFFFFFFFFFFFFFFFF54
:103C8000FFFFFFFFFFFFFFFFFFFFFFFFFFFFFFFF44
:103C9000FFFFFFFFDFEFBFE7FFFFFFFFFFFFFFFFBC
:103CA000FFFFFFFFFFFFFFFFFFFFFFFFFFFFFFFF24
:103CB000FFFF9FE77FD77FD77FD77FD77FD77FD77C
:103CC0007FD77FD77FD77FD77FD77FD77FD77FD744
:103CD0007FDF9FE79FE79FE79FE79FE79FE79FE7DC
:103CE0009FE79FE79FE79FE79FE79FE79FE79FE7A4
:103CF0009FE79FE79FE79FE7FFFFFFFFFFFFFFFFB4
:103D0000FFFFFFFFFFFFFFF7FFFFDFF7FE9EFE9EB7
:103D1000FFFFFFFFFFFFFFFFFFFFFFFFFFFFFFFFB3
:103D2000FFFFFFFFFFFFFFFFFFFFFFFFFFFFFFFFA3
:103D3000FFFFFFFFFEA6FE9EBFEFFFFFFFF7FFFFA7
:103D4000FFFFFFFFFFFFFFFFFFFFFFFFFFFFFFFF83
:103D5000FFFFFFFF7FD77FD77FD77FD77FD77FD763
:103D60007FD77FD77FD77FD77FD77FD77FD77FD7A3
:103D70007FD77FDF9FE79FE79FE79FE79FE79FE76B
:103D80009FE79FE79FE79FE79FE79FE79FE79FE703
:103D90009FE79FE79FE7BFEFFFFFFFFFFFFFFFFFEB
:103DA000FFFFFFFFBFEFFEA63FB77FCFFE9EFEA641
:103DB0009FD71FA71EA7DFF7FFFFFFFFFFFFFFFF34
:103DC000FFFFFFFFFFFFFFFFFFFFFFFFFFFF1FAF33
:103DD0001EA79FD71EA7FE9E7FCF5FBFFEA6BFE791
:103DE000FFFFFFFFFFFFFFFFFFFFFFFFFFFFFFFFE3
:103DF000FFFFFFFFDFEF7FD77FD77FD77FD77FD74B
:103E00007FD77FD77FD77FD77FD77FD77FD77FD702
:103E10007FD77FD77FDF9FE79FE79FE79FE79FE7FA
:103E20009FE79FE79FE79FE79FE79FE79FE79FE762
:103E30009FE79FE7BFEFFFFFFFFFFFFFFFFFFFFFD2
:103E4000FFFFFFFFBFE7FE9EFE9EFE9EFE9EFEA6BC
:103E5000FE9EFE9EFE9EDFF7FFFFFFFFFFFFFFFFC0
:103E6000FFFFFFFFFFFFFFFFFFFFFFFFFFFFFE9EC4
:103E7000FE9EFE9EFEA6FE9EFE9EFE9EFE9EBFDF58
:103E8000FFFFFFFFFFFFFFFFFFFFFFFFFFFFFFFF42
:103E9000FFFFFFFFFFFFDFF79FDF7FD77FD77FD7D2
:103EA0007FD77FD77FD77FD77FD77FD77FD77FD762
:103EB0007FD77FD77FD77FD77FDF9FE79FE79FE7BA
:103EC0009FE79FE79FE79FE79FE79FE79FE79FE7C2
:103ED0009FE7DFF7FFFFFFFFFFFFFFFFFFFFFFFF92
:103EE000FFFFFFFFFFFF5FBFFE9EFE9EFE9EFE9E4A
:103EF000FE9EFE9E7FCFFFFFFFFFFFFFFFFFFFFF46
:103F0000FFFFFFFFFFFFFFFFFFFFFFFFFFFF9FD749
:103F1000FEA6FE9EFE9EFE9EFE9EFE9E3FBFFFF7FD
:103F2000FFFFFFFFFFFFFFFFFFFFFFFFFFFFFFFFA1
:103F3000FFFFFFFFFFFFFFFFFFFFFFFFDFF7DFF7E1
:103F4000DFF7DFF7DFF7DFF7DFF7DFF7DFF7DFF7C1
:103F5000DFF7DFF7DFF7DFF7DFF7DFF7DFF7DFF7B1
:103F6000DFF7DFF7DFF7DFF7DFF7DFF7DFF7FFFF79
:103F7000FFFFFFFFFFFFFFFFFFFFFFFFFFFFFFFF51
:103F8000FFFF9FD7FEA61FAFFE9EFE9EFE9EFE9EDB
:103F9000FE9EFE9E1FAF1EA7BFE7FFFFFFFFFFFFB6
:103FA000FFFFFFFFFFFFFFFFFFFFBFE71EA71FAFE2
:103FB000FEA6FE9EFE9EFE9EFE9EFE9E1FA71FA7C5
:103FC000FFFFFFFFFFFFFFFFFFFFFFFFFFFFFFFF01
:103FD000FFFFFFFFFFFFFFFFFFFFFFFFFFFFFFFFF1
:103FE000FFFFFFFFFFFFFFFFFFFFFFFFFFFFFFFFE1
:103FF000FFFFFFFFFFFFFFFFFFFFFFFFFFFFFFFFD1
:10400000FFFFFFFFFFFFFFFFFFFFFFFFFFFFFFFFC0
:10401000FFFFFFFFFFFFFFFFFFFFFFFFFFFFFFFFB0
:10402000FFFF5FC7FE9EFE9EFE9EFE9EFE9EFE9EC4
:10403000FE9EFE9EFE9EFE9E7FD7FFFFFFFFFFFFC0
:10404000FFFFFFFFFFFFFFFFFFFF9FDFFE9EFE9EC4
:10405000FE9EFE9EFE9EFE9EFE9EFE9EFE9EFE9E80
:10406000FFFFFFFFFFFFFFFFFFFFFFFFFFFFFFFF60
:10407000FFFFFFFFFFFFFFFFFFFFFFFFFFFFFFFF50
:10408000FFFFFFFFFFFFFFFFFFFFFFFFFFFFFFFF40
:10409000FFFFFFFFFFFFFFFFFFFFFFFFFFFFFFFF30
:1040A000FFFFFFFFFFFFFFFFFFFFFFFFFFFFFFFF20
:1040B000FFFFFFFFFFFFFFFFFFFFFFFFFFFFFFFF10
:1040C000FFFFFFFFBFDF5FC7FE9EFE9EFE9EFE9EC0
:1040D000FE9EFE9E7FCFBFE7FFFFFFFFFFFFFFFFBC
:1040E000FFFFFFFFFFFFFFFFFFFFFFFFBFE79FD7C0
:1040F000FEA6FE9EFE9EFE9EFE9EFE9E5FBFBFE74C
:10410000FFFFFFFFFFFFFFFFFFFFFFFFFFFFFFFFBF
:10411000FFFFFFFFFFFFFFFFFFFFFFFFFFFFFFFFAF
:10412000FFFFFFFFFFFFFFFFFFFFFFFFFFFFFFFF9F
:10413000FFFFFFFFFFFFFFFFFFFFFFFFFFFFFFFF8F
:10414000FFFFFFFFFFFFFFFFFFFFFFFFFFFFFFFF7F
:10415000FFFFFFFFFFFFFFFFFFFFFFFFFFFFFFFF6F
:10416000FFFFFFFFFFFF3FB7FE9EFE9EFE9EFE9EEF
:10417000FE9EFE9E3FBFFFFFFFFFFFFFFFFFFFFF13
:10418000FFFFFFFFFFFFFFFFFFFFFFFFFFFF5FC717
:10419000FE9EFE9EFE9EFE9EFE9EFE9E1FAFFFFFAB
:1041A000FFFFFFFFFFFFFFFFFFFFFFFFFFFFFFFF1F
:1041B000FFFFFFFFFFFFFFFFFFFFFFFFFFFFFFFF0F
:1041C000FFFFFFFFFFFFFFFFFFFFFFFFFFFFFFFFFF
:1041D000FFFFFFFFFFFFFFFFFFFFFFFFFFFFFFFFEF
:1041E000FFFFFFFFFFFFFFFFFFFFFFFFFFFFFFFFDF
:1041F000FFFFFFFFFFFFFFFFFFFFFFFFFFFFFFFFCF
:10420000FFFFFFFF9FDFFE9EFE9E3FB7FE9E1FA7A4
:104210003FB7FE9EFE9EBFEFFFFFFFFFFFFFFFFFCA
:10422000FFFFFFFFFFFFFFFFFFFFFFFFFFFFFE9E00
:10423000FE9E3FB71FAFFE9E3FB7FEA6FE9E9FD7D6
:10424000FFFFFFFFFFFFFFFFFFFFFFFFFFFFFFFF7E
:10425000FFFFFFFFFFFFFFFFFFFFFFFFFFFFFFFF6E
:10426000FFFFFFFFFFFFFFFFFFFFFFFFFFFFFFFF5E
:10427000FFFFFFFFFFFFFFFFFFFFFFFFFFFFFFFF4E
:10428000FFFFFFFFFFFFFFFFFFFFFFFFFFFFFFFF3E
:10429000FFFFFFFFFFFFFFFFFFFFFFFFFFFFFFFF2E
:1042A000FFFFFFFFFFFF9FD7BFE7BFE7FE9EFE9E1A
:1042B000FFF79FDF9FD7FFFFFFFFFFFFFFFFFFFF1E
:1042C000FFFFFFFFFFFFFFFFFFFFFFFFFFFFBFE756
:1042D0009FD7FFFFFE9EFE9EBFDFDFEF9FD7FFFF52
:1042E000FFFFFFFFFFFFFFFFFFFFFFFFFFFFFFFFDE
:1042F000FFFFFFFFFFFFFFFFFFFFFFFFFFFFFFFFCE
:10430000FFFFFFFFFFFFFFFFFFFFFFFFFFFFFFFFBD
:10431000FFFFFFFFFFFFFFFFFFFFFFFFFFFFFFFFAD
:10432000FFFFFFFFFFFFFFFFFFFFFFFFFFFFFFFF9D
:10433000FFFFFFFFFFFFFFFFFFFFFFFFFFFFFFFF8D
:10434000FFFFFFFFFFFFFFFFFFFFFFFF5FBF5FC735
:10435000FFFFFFFFFFFFFFFFFFFFFFFFFFFFFFFF6D
:10436000FFFFFFFFFFFFFFFFFFFFFFFFFFFFFFFF5D
:10437000FFFFFFFF7FCF5FBFDFF7FFFFFFFFFFFF05
:10438000FFFFFFFFFFFFFFFFFFFFFFFFFFFFFFFF3D
:10439000FFFFFFFFFFFFFFFFFFFFFFFFFFFFFFFF2D
:1043A000FFFFFFFFFFFFFFFFFFFFFFFFFFFFFFFF1D
:1043B000FFFFFFFFFFFFFFFFFFFFFFFFFFFFFFFF0D
:1043C000FFFFFFFFFFFFFFFFFFFFFFFFFFFFFFFFFD
:1043D000FFFFFFFFFFFFFFFFFFFFFFFFFFFFFFFFED
:1043E000FFFFFFFFFFFFFFFFFFFFFFFFFFFFFFFFDD
:1043F000FFFFFFFFFFFFFFFFFFFFFFFFFFFFFFFFCD
:10440000FFFFFFFFFFFFFFFFFFFFFFFFFFFFFFFFBC
:10441000FFFFFFFFFFFFFFFFFFFFFFFFFFFFFFFFAC
:10442000FFFFFFFFFFFFFFFFFFFFFFFFFFFFFFFF9C
:10443000FFFFFFFFFFFFFFFFFFFFFFFFFFFFFFFF8C
:10444000FFFFFFFFFFFFFFFFFFFFFFFFFFFFFFFF7C
:10445000FFFFFFFFFFFFFFFFFFFFFFFFFFFFFFFF6C
:10446000FFFFFFFFFFFFFFFFFFFFFFFFFFFFFFFF5C
:10447000FFFFFFFFFFFFFFFFFFFFFFFFFFFFFFFF4C
:10448000FFFFFFFFFFFFFFFFFFFFFFFFFFFFFFFF3C
:10449000FFFFFFFFFFFFFFFFFFFFFFFFFFFFFFFF2C
:1044A000FFFFFFFFFFFFFFFFFFFFFFFFFFFFFFFF1C
:1044B000FFFFFFFFFFFFFFFFFFFFFFFFFFFFFFFF0C
:1044C000FFFFFFFFFFFFFFFFFFFFFFFFFFFFFFFFFC
:1044D000FFFFFFFFFFFFFFFFFFFFFFFFFFFFFFFFEC
:1044E000FFFFFFFFFFFFFFFFFFFFFFFFFFFFBFE734
:1044F000BFDFFFFFFFFFFFFFFFFFFFFFFFFFFFFF2C
:10450000FFFFFFFFFFFFFFFFFFFFFFFFFFFFFFFFBB
:10451000FFFFFFFFFFFFDFF79FDFFFFFFFFFFFFF53
:10452000FFFFFFFFFFFFFFFFFFFFFFFFFFFFFFFF9B
:10453000FFFFFFFFFFFFFFFFFFFFFFFFFFFFFFFF8B
:104540009FDFDFEFFFFFFFFFFFFFFFFFFFFFFFFF2B
:10455000FFFFFFFFFFFFFFFFFFFFFFFFFFFFFFFF6B
:10456000FFFFFFFFFFFFFFFFFFFFFFFFFFFFFFFF5B
:10457000FFFFFFFFFFFFFFFFFFFFFFFFFFFFFFFF4B
:10458000FFFFFFFFFFFFFFFFFFF7FFF7FFFFFE9EAD
:10459000FE9EDFF7FFFFDFF7FFFFFFFFFFFFFFFFDD
:1045A000FFFFFFFFFFFFFFFFFFFFFFFFFFFFFFFF1B
:1045B000FFFFDFF7FFFF3FB7FE9E7FCFFFFFDFF775
:1045C000FFFFFFFFFFFFFFFFFFFFFFFFFFFFFFFFFB
:1045D000FFFFFFFFFFFFFFFFFFFFDFF7FFFF9FDF93
:1045E000FE9E1FAFFFFFDFF7FFFFFFFFFFFFFFFF95
:1045F000FFFFFFFFFFFFFFFFFFFFFFFFFFFFFFFFCB
:10460000FFFFFFFFFFFFFFFFFFFFFFFFFFFFFFFFBA
:10461000FFFFFFFFFFFFFFFFFFFFFFFFFFFFFFFFAA
:10462000FFFFFFFFFFFFDFF7FEA6FEA67FD7FEA678
:10463000FE9E7FCF3FB7FE9EDFEFFFFFFFFFFFFF36
:10464000FFFFFFFFFFFFFFFFFFFFFFFFFFFFFFFF7A
:104650005FBFFE9E7FD73FB7FE9E5FBF7FCFFE9EB0
:104660007FCFFFFFFFFFFFFFFFFFFFFFFFFFFFFF0A
:10467000FFFFFFFFFFFFFFFF9FD7FE9E5FC75FC7E4
:10468000FE9E3FAF7FD7FE9E3FB7FFFFFFFFFFFFBE
:10469000FFFFFFFFFFFFFFFFFFFFFFFFFFFFFFFF2A
:1046A000FFFFFFFFFFFFFFFFFFFFFFFFFFFFFFFF1A
:1046B000FFFFFFFFFFFFFFFFFFFFFFFFFFFFFFFF0A
:1046C000FFFFFFFFFFFFFFF7FE9EFE9EFE9EFEA682
:1046D000FE9EFE9EFE9EFE9EBFEFFFFFFFFFFFFFC2
:1046E000FFFFFFFFFFFFFFFFFFFFFFFFFFFFFFFFDA
:1046F0003FB7FE9EFE9EFEA6FE9EFE9EFE9EFE9E78
:104700005FC7FFFFFFFFFFFFFFFFFFFFFFFFFFFF91
:10471000FFFFFFFFFFFFFFFF7FD7FE9EFE9EFE9E77
:10472000FE9EFEA6FE9EFE9E1FAFFFFFFFFFFFFF49
:10473000FFFFFFFFFFFFFFFFFFFFFFFFFFFFFFFF89
:10474000FFFFFFFFFFFFFFFFFFFFFFFFFFFFFFFF79
:10475000FFFFFFFFFFFFFFFFFFFFFFFFFFFFFFFF69
:10476000FFFFFFFFFFFFFFFF7FCFFE9EFE9EFE9E2F
:10477000FE9EFE9EFE9E5FC7FFFFFFFFFFFFFFFF47
:10478000FFFFFFFFFFFFFFFFFFFFFFFFFFFFFFFF39
:10479000BFE71FA7FE9EFE9EFE9EFE9EFE9E1FAFD3
:1047A000DFEFFFFFFFFFFFFFFFFFFFFFFFFFFFFF49
:1047B000FFFFFFFFFFFFFFFFDFF73FB7FE9EFE9EFD
:1047C000FE9EFE9EFE9E1EA7BFE7FFFFFFFFFFFFB0
:1047D000FFFFFFFFFFFFFFFFFFFFFFFFFFFFFFFFE9
:1047E000FFFFFFFFFFFFFFFFFFFFFFFFFFFFFFFFD9
:1047F000FFFFFFFFFFFFFFFFFFFFFFFFFFFFFFFFC9
:10480000FFFFFFFFBFE71FA71FAFFE9EFE9EFE9E9E
:10481000FE9EFE9EFE9E1FAF1EA79FDFFFFFFFFFB7
:10482000FFFFFFFFFFFFFFFFFFFFFFFFFFFF3FB7A0
:104830001FAFFEA6FE9EFE9EFE9EFE9EFE9E1FA734
:104840001FA73FBFFFFFFFFFFFFFFFFFFFFFFFFFB0
:10485000FFFFFFFFFFFF7FC71FA71FA7FE9EFE9E54
:10486000FE9EFE9EFE9EFEA61FAF1FAFFFF7FFFF40
:10487000FFFFFFFFFFFFFFFFFFFFFFFFFFFFFFFF48
:10488000FFFFFFFFFFFFFFFFFFFFFFFFFFFFFFFF38
:10489000FFFFFFFFFFFFFFFFFFFFFFFFFFFFFFFF28
:1048A000FFFFFFFF9FD7FE9EFE9EFE9EFE9EFE9E8A
:1048B000FE9EFE9EFE9EFE9EFE9E5FC7FFFFFFFFCA
:1048C000FFFFFFFFFFFFFFFFFFFFFFFFDFF7FE9E82
:1048D000FE9EFE9EFE9EFE9EFE9EFE9EFE9EFE9EF8
:1048E000FE9EFE9EFFFFFFFFFFFFFFFFFFFFFFFF9C
:1048F000FFFFFFFFFFFF1FAFFE9EFE9EFE9EFE9E80
:10490000FE9EFE9EFE9EFE9EFE9EFE9EDFEFFFFF33
:10491000FFFFFFFFFFFFFFFFFFFFFFFFFFFFFFFFA7
:10492000FFFFFFFFFFFFFFFFFFFFFFFFFFFFFFFF97
:10493000FFFFFFFFFFFFFFFFFFFFFFFFFFFFFFFF87
:10494000FFFFFFFFFFFFBFDF7FCFFEA6FE9EFE9EA5
:10495000FE9EFE9EFE9E5FBF9FDFFFFFFFFFFFFFED
:10496000FFFFFFFFFFFFFFFFFFFFFFFFFFFFBFEFA7
:104970009FD71FA7FE9EFE9EFE9EFE9EFE9E1FAF21
:104980009FDFDFEFFFFFFFFFFFFFFFFFFFFFFFFFE7
:10499000FFFFFFFFFFFFDFF79FDF3FB7FE9EFE9E9B
:1049A000FE9EFE9EFE9E1EA79FD7BFE7FFFFFFFF56
:1049B000FFFFFFFFFFFFFFFFFFFFFFFFFFFFFFFF07
:1049C000FFFFFFFFFFFFFFFFFFFFFFFFFFFFFFFFF7
:1049D000FFFFFFFFFFFFFFFFFFFFFFFFFFFFFFFFE7
:1049E000FFFFFFFFFFFFFFFF3FBFFE9EFE9EFE9EFD
:1049F000FE9EFE9EFE9E3FB7FFFFFFFFFFFFFFFFF5
:104A0000FFFFFFFFFFFFFFFFFFFFFFFFFFFFFFFFB6
:104A10007FD7FEA6FE9EFE9EFE9EFE9EFE9EFEA6EC
:104A2000BFDFFFFFFFFFFFFFFFFFFFFFFFFFFFFFF6
:104A3000FFFFFFFFFFFFFFFFDFEF1FA7FE9EFE9EB2
:104A4000FE9EFE9EFE9EFE9E7FCFFFFFFFFFFFFFAE
:104A5000FFFFFFFFFFFFFFFFFFFFFFFFFFFFFFFF66
:104A6000FFFFFFFFFFFFFFFFFFFFFFFFFFFFFFFF56
:104A7000FFFFFFFFFFFFFFFFFFFFFFFFFFFFFFFF46
:104A8000FFFFFFFFFFFFDFEFFE9EFE9E3FBF1EA763
:104A9000FE9E3FBFFE9EFE9EBFDFFFFFFFFFFFFFAC
:104AA000FFFFFFFFFFFFFFFFFFFFFFFFFFFFFFFF16
:104AB0001FA7FE9E3FB73FAFFE9E3FB73FB7FE9E8C
:104AC0003FB7FFFFFFFFFFFFFFFFFFFFFFFFFFFFFE
:104AD000FFFFFFFFFFFFFFFF5FC7FE9E1FAF3FB758
:104AE000FE9E1FAF3FB7FE9EFE9EFFFFFFFFFFFF34
:104AF000FFFFFFFFFFFFFFFFFFFFFFFFFFFFFFFFC6
:104B0000FFFFFFFFFFFFFFFFFFFFFFFFFFFFFFFFB5
:104B1000FFFFFFFFFFFFFFFFFFFFFFFFFFFFFFFFA5
:104B2000FFFFFFFFFFFFFFFFBFDFBFDFFFFFFE9EB7
:104B3000FE9EDFEFBFEF9FDFFFFFFFFFFFFFFFFFE7
:104B4000FFFFFFFFFFFFFFFFFFFFFFFFFFFFFFFF75
:104B5000DFEF9FD7FFFF3FB7FE9E5FC7FFFF9FD7E7
:104B6000FFF7FFFFFFFFFFFFFFFFFFFFFFFFFFFF5D
:104B7000FFFFFFFFFFFFFFFFFFFF9FD7FFF79FD75D
:104B8000FE9E1FAFFFFF9FDFDFEFFFFFFFFFFFFF77
:104B9000FFFFFFFFFFFFFFFFFFFFFFFFFFFFFFFF25
:104BA000FFFFFFFFFFFFFFFFFFFFFFFFFFFFFFFF15
:104BB000FFFFFFFFFFFFFFFFFFFFFFFFFFFFFFFF05
:104BC000FFFFFFFFFFFFFFFFFFFFFFFFFFFF5FC7CD
:104BD0005FBFFFFFFFFFFFFFFFFFFFFFFFFFFFFFC5
:104BE000FFFFFFFFFFFFFFFFFFFFFFFFFFFFFFFFD5
:104BF000FFFFFFFFFFFF9FDF3FBFBFE7FFFFFFFF9D
:104C0000FFFFFFFFFFFFFFFFFFFFFFFFFFFFFFFFB4
:104C1000FFFFFFFFFFFFFFFFFFFFFFFFFFFFDFEFD4
:104C20003FBF9FD7FFFFFFFFFFFFFFFFFFFFFFFF1C
:104C3000FFFFFFFFFFFFFFFFFFFFFFFFFFFFFFFF84
:104C4000FFFFFFFFFFFFFFFFFFFFFFFFFFFFFFFF74
:104C5000FFFFFFFFFFFFFFFFFFFFFFFFFFFFFFFF64
:104C6000FFFFFFFFFFFFFFFFFFFFFFFFFFFFFFFF54
:104C7000FFFFFFFFFFFFFFFFFFFFFFFFFFFFFFFF44
:104C8000FFFFFFFFFFFFFFFFFFFFFFFFFFFFFFFF34
:104C9000FFFFFFFFFFFFFFFFFFFFFFFFFFFFFFFF24
:104CA000FFFFFFFFFFFFFFFFFFFFFFFFFFFFFFFF14
:104CB000FFFFFFFFFFFFFFFFFFFFFFFFFFFFFFFF04
:104CC000FFFFFFFFFFFFFFFFFFFFFFFFFFFFFFFFF4
:104CD000FFFFFFFFFFFFFFFFFFFFFFFFFFFFFFFFE4
:104CE000FFFFFFFFFFFFFFFFFFFFFFFFFFFFFFFFD4
:104CF000FFFFFFFFFFFFFFFFFFFFFFFFFFFFFFFFC4
:104D0000FFFFFFFFFFFFFFFFFFFFFFFFFFFFFFFFB3
:104D1000FFFFFFFFFFFFFFFFFFFFFFFFFFFFFFFFA3
:104D2000FFFFFFFFFFFFFFFFFFFFFFFFFFFFFFFF93
:104D3000FFFFFFFFFFFFFFFFFFFFFFFFFFFFFFFF83
:104D4000FFFFFFFFFFFFFFFFFFFFFFFFFFFFFFFF73
:104D5000FFFFFFFFFFFFFFFFFFFFFFFFFFFFFFFF63
:104D6000FFFFFFFFFFFFFFFFFFFFFFFFFFFFFFFF53
:104D7000FFFFFFFFFFFFFFFFFFFFFFFFFFFFFFFF43
:104D8000FFFFFFFFFFFFFFFFFFFFFFFFFFFFFFFF33
:104D9000FFFFFFFFFFFFFFFFFFFF9FDFDFF7FFFFCB
:104DA000FFFFFFFFFFFFFFFFFFFFFFFFFFFFFFFF13
:104DB000FFFFFFFFFFFFFFFFFFFFFFFFFFFFFFFF03
:104DC000FFFFBFE7BFE7FFFFFFFFFFFFFFFFFFFFA3
:104DD000FFFFFFFFFFFFFFFFFFFFFFFFFFFFFFFFE3
:104DE000FFFFFFFFFFFFFFFFFFFFDFEFBFDFFFFF63
:104DF000FFFFFFFFFFFFFFFFFFFFFFFFFFFFFFFFC3
:104E0000FFFFFFFFFFFFFFFFFFFFFFFFFFFFFFFFB2
:104E1000FFFFFFFFFFFFFFFFFFFFFFFFFFFFFFFFA2
:104E2000FFFFFFFFFFFFFFFFFFFFFFFFFFFFFFFF92
:104E3000FFFFFFFFDFF7FFFF7FCFFE9E5FBFFFFF9C
:104E4000DFF7FFFFFFFFFFFFFFFFFFFFFFFFFFFF9A
:104E5000FFFFFFFFFFFFFFFFFFFFFFFFDFF7FFFF8A
:104E6000FFF7FE9EFE9EFFFFFFFFFFF7FFFFFFFF26
:104E7000FFFFFFFFFFFFFFFFFFFFFFFFFFFFFFFF42
:104E8000FFFFFFFFFFFFFFF7FFFFFE9EFE9EDFEF2E
:104E9000FFFFDFF7FFFFFFFFFFFFFFFFFFFFFFFF4A
:104EA000FFFFFFFFFFFFFFFFFFFFFFFFFFFFFFFF12
:104EB000FFFFFFFFFFFFFFFFFFFFFFFFFFFFFFFF02
:104EC000FFFFFFFFFFFFFFFFFFFFFFFFFFFFFFFFF2
:104ED000FFFF7FCFFE9E7FCF5FBFFE9E3FB77FCF9E
:104EE000FE9E3FBFFFFFFFFFFFFFFFFFFFFFFFFF34
:104EF000FFFFFFFFFFFFFFFFFFFFBFE7FE9E1FAFAC
:104F00007FCFFE9EFE9E7FCF1FA7FEA6DFF7FFFF8F
:104F1000FFFFFFFFFFFFFFFFFFFFFFFFFFFFFFFFA1
:104F2000FFFFFFFF1FA7FEA67FD71FA7FE9E7FCF15
:104F30003FBFFE9E9FDFFFFFFFFFFFFFFFFFFFFF63
:104F4000FFFFFFFFFFFFFFFFFFFFFFFFFFFFFFFF71
:104F5000FFFFFFFFFFFFFFFFFFFFFFFFFFFFFFFF61
:104F6000FFFFFFFFFFFFFFFFFFFFFFFFFFFFFFFF51
:104F7000FFFF7FCFFE9EFE9EFE9EFE9EFE9EFE9E3D
:104F8000FE9E3FB7FFFFFFFFFFFFFFFFFFFFFFFF9B
:104F9000FFFFFFFFFFFFFFFFFFFFBFE7FE9EFE9E3D
:104FA000FE9EFE9EFEA6FE9EFE9EFE9EFFF7FFFF5D
:104FB000FFFFFFFFFFFFFFFFFFFFFFFFFFFFFFFF01
:104FC000FFFFFFFFFEA6FE9EFE9EFEA6FE9EFE9E2D
:104FD000FE9EFE9E9FDFFFFFFFFFFFFFFFFFFFFF25
:104FE000FFFFFFFFFFFFFFFFFFFFFFFFFFFFFFFFD1
:104FF000FFFFFFFFFFFFFFFFFFFFFFFFFFFFFFFFC1
:10500000FFFFFFFFFFFFFFFFFFFFFFFFFFFFFFFFB0
:10501000FFFFDFEF1FAFFE9EFE9EFE9EFE9EFE9EEA
:105020001FA7BFE7FFFFFFFFFFFFFFFFFFFFFFFF20
:10503000FFFFFFFFFFFFFFFFFFFFFFF75FC7FE9EC2
:10504000FE9EFE9EFE9EFE9EFE9E7FCFFFFFFFFF0A
:10505000FFFFFFFFFFFFFFFFFFFFFFFFFFFFFFFF60
:10506000FFFFFFFF9FD7FEA6FE9EFE9EFE9EFE9EBA
:10507000FE9E3FB7DFF7FFFFFFFFFFFFFFFFFFFFD2
:10508000FFFFFFFFFFFFFFFFFFFFFFFFFFFFFFFF30
:10509000FFFFFFFFFFFFFFFFFFFFFFFFFFFFFFFF20
:1050A000FFFFFFFFFFFFFFFFFFFFFFFFFFFFFFFF10
:1050B0003FBFFEA61EA7FE9EFE9EFE9EFE9EFE9E7D
:1050C000FEA61EA71FAFFFF7FFFFFFFFFFFFFFFFBB
:1050D000FFFFFFFFFFFFFFFF9FD7FEA61FA7FE9E5C
:1050E000FE9EFE9EFE9EFE9EFE9E1FA7FEA6BFE7A4
:1050F000FFFFFFFFFFFFFFFFFFFFFFFFFFFFFFFFC0
:10510000DFEF1EA71FA7FEA6FE9EFE9EFE9EFE9E32
:10511000FE9E1FA7FEA67FCFFFFFFFFFFFFFFFFF43
:10512000FFFFFFFFFFFFFFFFFFFFFFFFFFFFFFFF8F
:10513000FFFFFFFFFFFFFFFFFFFFFFFFFFFFFFFF7F
:10514000FFFFFFFFFFFFFFFFFFFFFFFFFFFFFFFF6F
:10515000FE9EFE9EFE9EFE9EFE9EFE9EFE9EFE9E6F
:10516000FE9EFE9EFE9EDFF7FFFFFFFFFFFFFFFF9D
:10517000FFFFFFFFFFFFFFFF5FC7FE9EFE9EFE9E3D
:10518000FE9EFE9EFE9EFE9EFE9EFE9EFE9E7FD785
:10519000FFFFFFFFFFFFFFFFFFFFFFFFFFFFFFFF1F
:1051A000BFE7FE9EFE9EFE9EFE9EFE9EFE9EFE9E15
:1051B000FE9EFE9EFE9E3FB7FFFFFFFFFFFFFFFF2D
:1051C000FFFFFFFFFFFFFFFFFFFFFFFFFFFFFFFFEF
:1051D000FFFFFFFFFFFFFFFFFFFFFFFFFFFFFFFFDF
:1051E000FFFFFFFFFFFFFFFFFFFFFFFFFFFFFFFFCF
:1051F000DFEF9FDF1FAFFE9EFE9EFE9EFE9EFE9E89
:105200001FA79FD7BFE7FFFFFFFFFFFFFFFFFFFFC6
:10521000FFFFFFFFFFFFFFFFFFFF9FDF5FBFFE9E60
:10522000FE9EFE9EFE9EFE9EFE9E7FC79FDFFFFFB0
:10523000FFFFFFFFFFFFFFFFFFFFFFFFFFFFFFFF7E
:10524000FFFFBFDF7FCFFEA6FE9EFE9EFE9EFE9E60
:10525000FE9E3FB79FDFFFF7FFFFFFFFFFFFFFFF50
:10526000FFFFFFFFFFFFFFFFFFFFFFFFFFFFFFFF4E
:10527000FFFFFFFFFFFFFFFFFFFFFFFFFFFFFFFF3E
:10528000FFFFFFFFFFFFFFFFFFFFFFFFFFFFFFFF2E
:10529000FFFFBFE71EA7FE9EFE9EFE9EFE9EFE9E99
:1052A000FEA69FD7FFFFFFFFFFFFFFFFFFFFFFFFF0
:1052B000FFFFFFFFFFFFFFFFFFFFFFFF3FB7FE9E68
:1052C000FE9EFE9EFE9EFE9EFE9E3FBFFFFFFFFFD8
:1052D000FFFFFFFFFFFFFFFFFFFFFFFFFFFFFFFFDE
:1052E000FFFFFFFF5FC7FE9EFE9EFE9EFE9EFE9E90
:1052F000FE9E1FAFDFF7FFFFFFFFFFFFFFFFFFFF78
:10530000FFFFFFFFFFFFFFFFFFFFFFFFFFFFFFFFAD
:10531000FFFFFFFFFFFFFFFFFFFFFFFFFFFFFFFF9D
:10532000FFFFFFFFFFFFFFFFFFFFFFFFFFFFFFFF8D
:10533000FFFF3FBFFE9E1FAF3FB7FE9E1FAF3FB7B1
:10534000FE9EFEA6FFFFFFFFFFFFFFFFFFFFFFFF29
:10535000FFFFFFFFFFFFFFFFFFFF9FDFFE9EFE9EA1
:105360003FB7FE9EFE9E3FB7FE9EFE9EDFEFFFFF15
:10537000FFFFFFFFFFFFFFFFFFFFFFFFFFFFFFFF3D
:10538000FFFFFFF7FE9EFE9E3FBFFEA6FE9E3FB7BD
:10539000FEA6FE9E7FCFFFFFFFFFFFFFFFFFFFFF89
:1053A000FFFFFFFFFFFFFFFFFFFFFFFFFFFFFFFF0D
:1053B000FFFFFFFFFFFFFFFFFFFFFFFFFFFFFFFFFD
:1053C000FFFFFFFFFFFFFFFFFFFFFFFFFFFFFFFFED
:1053D000FFFFFFF79FD7FFFF7FD71EA75FC7FFFF26
:1053E0009FD7DFEFFFFFFFFFFFFFFFFFFFFFFFFF85
:1053F000FFFFFFFFFFFFFFFFFFFFFFFF9FD7BFE79D
:10540000DFF71EA71EA7FFF7BFDF9FDFFFFFFFFF2E
:10541000FFFFFFFFFFFFFFFFFFFFFFFFFFFFFFFF9C
:10542000FFFFFFFFBFE79FDFFFFF1FAF1EA7BFE725
:10543000DFEF9FD7FFFFFFFFFFFFFFFFFFFFFFFF34
:10544000FFFFFFFFFFFFFFFFFFFFFFFFFFFFFFFF6C
:10545000FFFFFFFFFFFFFFFFFFFFFFFFFFFFFFFF5C
:10546000FFFFFFFFFFFFFFFFFFFFFFFFFFFFFFFF4C
:10547000FFFFFFFFFFFFFFFFFFFFFFFFFFFFFFFF3C
:105E9000FFFFFFFFFFFFFFF77FCF3FB71FAF1FAF32
:105EA0003FBF9FD7FFFFFFFFFFFFFFFFFFFFFFFF8A
:105EB000FFFFFFFFFFFFFFFFFFFFFFFFFFFFFFFFF2
:105EC000FFFFFFFFFFFFFFFFFFFFFFFFFFFFFFFFE2
:105ED000FFFFFFFFFFFFFFFFFFFFFFFFFFFFFFFFD2
:105EE000FFFFFFFFFFFFFFFFFFFFFFFFFFFFFFFFC2
:105EF000FFFFFFFFFFFFFFFFFFFFFFFFFFFFFFFFB2
:105F0000FFFFFFFFFFFFFFFFFFFFFFFFFFFFFFFFA1
:105F1000FFFFFFFFFFFFFFFFFFFFFFFFFFFFFFFF91
:105F2000FFFFFFFFFFFFFFFFFFFFFFFFFFFFFFFF81
:105F3000FFFFFFFF9FD7FEA6FE9EFE9EFE9EFE9EDB
:105F4000FE9EFE9E1FA79FDFFFFFFFFFFFFFFFFFDD
:105F5000FFFFFFFFFFFFFFFFFFFFFFFFFFFFFFFF51
:105F6000FFFFFFFFFFFFFFFFFFFFFFFFFFFFFFFF41
:105F7000FFFFFFFFFFFFFFFFFFFFFFFFFFFFFFFF31
:105F8000FFFFFFFFFFFFFFFFFFFFFFFFFFFFFFFF21
:105F9000FFFFFFFFFFFFFFFFFFFFFFFFFFFFFFFF11
:105FA000FFFFFFFFFFFFFFFFFFFFFFFFFFFFFFFF01
:105FB000FFFFFFFFFFFFFFFFFFFFFFFFFFFFFFFFF1
:105FC000FFFFFFFFFFFFFFFFFFFFFFFFFFFFFFFFE1
:105FD000FFFF7FCFFE9EFE9EFE9EFE9EFE9EFE9ECD
:105FE000FE9EFE9EFE9EFE9E9FD7FFFFFFFFFFFFD1
:105FF000FFFFFFFFFFFFFFFFFFFFFFFFFFFFFFFFB1
:10600000FFFFFFFFFFFFFFFFFFFFFFFFFFFFFFFFA0
:10601000FFFFFFFFFFFFFFFFFFFFFFFFFFFFFFFF90
:10602000FFFFFFFFFFFFFFFFFFFFFFFFFFFFFFFF80
:10603000FFFFFFFFFFFFFFFFFFFFFFFFFFFFFFFF70
:10604000FFFFFFFFFFFFFFFFFFFFFFFFFFFFFFFF60
:10605000FFFFFFFFFFFFFFFFFFFFFFFFFFFFFFFF50
:10606000FFFFFFFFFFFFFFFFFFFFFFFFFFFFFFFF40
:10607000BFE7FE9EFE9EFE9EFE9EFE9EFE9EFE9E36
:10608000FE9EFE9EFE9EFE9EFE9EBFEFFFFFFFFF5A
:10609000FFFFFFFFFFFFFFFFFFFFFFFFFFFFFFFF10
:1060A000FFFFFFFFFFFFFFFFFFFFFFFFFFFFFFFF00
:1060B000FFFFFFFFFFFFFFFFFFFFFFFFFFFFFFFFF0
:1060C000FFFFFFFFFFFFFFFFFFFFFFFFFFFFFFFFE0
:1060D000FFFFFFFFFFFFFFFFFFFFFFFFFFFFFFFFD0
:1060E000FFFFFFFFFFFFFFFFFFFFFFFFFFFFFFFFC0
:1060F000FFFFFFFFFFFFFFFFFFFFFFFFFFFFFFFFB0
:10610000FFFFFFFFFFFFFFFFFFFFFFFFFFFFFFFF9F
:106110001FA7FE9EFE9EFE9EFE9EFE9EFE9EFE9E75
:10612000FE9EFE9EFE9EFE9EFE9E1FAFFFFFFFFF99
:10613000FFFFFFFFFFFFFFFFFFFFFFFFFFFFFFFF6F
:10614000FFFFFFFFFFFFFFFFFFFFFFFFFFFFFFFF5F
:10615000FFFFFFFFFFFFFFFFFFFFFFFFFFFFFFFF4F
:10616000FFFFFFFFFFFFFFFFFFFFFFFFFFFFFFFF3F
:10617000FFFFFFFFFFFFFFFFFFFFFFFFFFFFFFFF2F
:10618000FFFFFFFFFFFFFFFFFFFFFFFFFFFFFFFF1F
:10619000FFFFFFFFFFFFFFFFFFFFFFFFFFFFFFFF0F
:1061A000FFFFFFFFFFFFFFFFFFFFBFE7BFE79FD737
